:020000020000FC
:0200040039D1F0
:0200080037D1EE
:02000C0035D1EC
:0200100033D1EA
:0200140031D1E8
:020018002FD1E6
:02001C002DD1E4
:020020002BD1E2
:0200240029D1E0
:0200280027D1DE
:02002C0025D1DC
:0200300023D1DA
:0200340021D1D8
:020038001FD1D6
:02003C001DD1D4
:020040001BD1D2
:0200440019D1D0
:0200480017D1CE
:02004C0015D1CC
:0200500013D1CA
:0200540011D1C8
:020058000FD1C6
:02005C000DD1C4
:020060000BD1C2
:0200640009D1C0
:0200680007D1BE
:02006C0005D1BC
:0200700003D1BA
:0200740001D1B8
:02007800FFD0B7
:02007C00FDD0B5
:02008000FBD0B3
:02008400F9D0B1
:02008800F7D0AF
:02008C00F5D0AD
:02009000F3D0AB
:02009400F1D0A9
:02009800EFD0A7
:02009C00EDD0A5
:0200A000EBD0A3
:0200A400E9D0A1
:0200A800E7D09F
:0200AC00E5D09D
:0200B000E3D09B
:0200B400E1D099
:0200B800DFD097
:0200BC00DDD095
:0200C000DBD093
:0200C400D9D091
:0200C800D7D08F
:0200CC00D5D08D
:0200D000D3D08B
:0200D400D1D089
:0200D800CFD087
:0200DC00CDD085
:1000E000CBD000200010FFFF39000A0041546D659D
:1000F00067613235363107FF3E72782D62756600D2
:1001000000008200082F10911002E0E0F2E0E10F01
:10011000F31D008313951F7010931002899199911C
:100120000C941F0106FF6973722D72787B001B010E
:10013000CE04CE0031054A05CE0403006D12C7047B
:10014000A200BF0E8100AE041B01CE049700CE04B6
:100150004800EB08CE040002CE041600ED0533097A
:10016000AE0406FF72782D62756692001B01D10005
:10017000C704B700CE04110231054A05CE040002BF
:10018000360631055D05C806CE040F00AC06CE0468
:1001900011022605AE0407FF72783F2D62756600D6
:1001A000B1001B01B70ECE0411023105CE041002BE
:1001B0003105AC05AE0407FF74782D706F6C6C00D0
:1001C000CB001B01EF00C704E200CE04CE002605E1
:1001D000AE0408FF74783F2D706F6C6CDB001B0160
:1001E000B70ECE04C8003105CE042000AC06AE0424
:1001F00004FF75627272E9000905CA001A10241022
:1002000006FF2B7573617274F8001B01CE04980011
:10021000CE04C9002605CE040600CE04CA00260579
:10022000FC004A059207CE04CD002605CE04CC0082
:060230002605A400AE0447
:040000000C94C00E8E
:10023600BF93AF93DB011196B21499F4FD015527D4
:10024600EE0FFF1F551F5BBF679177911196FB015C
:100256005527EE0FFF1F551F5BBF07911791F8013A
:1002660009949A938A938B2D9927BB2466E079E0AB
:10027600EECF0A920FB60A920F900F900F900A9443
:10028600B02CFF93EF93E2E1F2E00694E00DF31D4C
:10029600008003940082EF91FF9109900FBE0990B0
:1002A600089502FF6D2B00011B0155127908AE045B
:1002B60003FF75642A0054011B014A059805790657
:1002C60072055D058F0579067A053606AE0404FFCC
:1002D600756D61785B011B01CA09F505C7047401D8
:1002E6005D057205AE0404FF756D696E6A011B013A
:1002F600CA090006C70480015D057205AE041B012C
:10030600CE040080AC06B305C7048B017412AE049C
:10031600E405AE040AFF6E616D653E666C61677347
:1003260076011B012C08CE0400FFAC06AE0406FFC6
:100336006E65776573748D01DC044B0206FF6C6194
:10034600746573749A01DC044F0208FF28637265B2
:1003560061746529A1011B011A0E05034A059F0157
:10036600C2091A05EA029F011A05AE0401005C00E3
:10037600A8011B01010E8905E3091A05AE04010057
:100386002800B9011B01CE042900ED0DD309AE04E6
:1003960007FF636F6D70696C6500C2011B018F05F5
:1003A6004A05111098052C08DC01AE0401FF2C004B
:1003B600CB011B01130A0D08130AC806FF0F140A06
:1003C600AE0403005B275D00D9011B01700CF2012E
:1003D600AE0407006C69746572616C00E4011B0170
:1003E600D101CE04DC01AE040800736C6974657239
:1003F600616CEC011B01D101D30BE10BAE041B01B7
:10040600130AD101FFFFAE041B01BD0F130A5D05E0
:100416000D08AE041B01130AAE041B01BD0FDC015F
:10042600AE040500616865616400F7011B01D10136
:10043600BD040202AE040200696614021B01D1016A
:10044600C7040202AE040400656C73651E021B013C
:10045600D101BD0402025D050702AE040400746802
:10046600656E26021B010702AE0405006265676918
:100476006E0031021B010D02AE0405007768696C3F
:10048600650038021B0121025D05AE040600726597
:100496007065617440021B0162023502AE040500FC
:1004A600756E74696C0049021B01CE04C704DC0139
:1004B6001002AE040500616761696E0052021B01FD
:1004C600D101BD041002AE040200646F5D021B017F
:1004D600D10134070D02ED05C502AE0404006C6FB0
:1004E6006F7067021B01D1016207AC02AE04050002
:1004F6002B6C6F6F700071021B01D1015307AC02A8
:10050600AE0405006C65617665007A021B01D101B7
:100516006D071902C502AE0403003F646F00840232
:100526001B01D1019B0221026A025D05C502AE04D0
:100536001B01CA096D124A059805C704A302D3090F
:100546008F059606AE0407FF656E646C6F6F7000CC
:100556008F021B011002B9025205C704B50235020B
:10056600BD04AE02AE0402FF6C3EA6021B01D80219
:1005760012051205CE04FEFFD802FE06AE0402FFE7
:100586003E6CB6021B017912D802FE06D80212058D
:100596001A05AE0403FF6C703000C20209057E0026
:1005A6001A10241002FF6C70CD02DC04510206FF03
:1005B600637265617465D5021B01AE010E03D1013C
:1005C600E904AE0406FF686561646572DA021B0120
:1005D600130A980598054A05C105C704FC024A0591
:1005E600CE0400FFB506E50B8F05F907DC018F0584
:1005F600AE04CE04F0FFA70C07FF776C73636F7031
:100606006500E50279107A001A10241006FF72655B
:100616007665616CFF021B019F01C2091205520536
:10062600C70419039F0112055D05D507AE04050031
:10063600646F65733E0009031B01D1013203D101CA
:100646000E94D1012703AE049A938A93CB010196A7
:100656007F917F916F91BF93AF93DB01EDCD1B012E
:100666008F059F01C2091205F907E4100D08AE04B3
:1006760001FF3A001A031B01AE0149037205AE04DD
:1006860007FF3A6E6F6E616D65003B031B01130A2F
:100696004A05A6011A05D1011B015E03AE0401003D
:1006A6003B0043031B01D101AE0466030E03AE04F7
:1006B60001FF5D0052031B017412AF091A05AE0457
:1006C60001005B005B031B01ED05AF091A05AE04D3
:1006D60008FF7661726961626C6563031B01240A17
:1006E6007D0379122D0AAE0408FF636F6E73746181
:1006F6006E746B031B01AE010E03D101DC04DC0139
:10070600AE0404FF7573657277031B01AE010E0319
:10071600D101EF04DC01AE040700726563757273E4
:10072600650084031B01A6011205DC01AE0409FF66
:10073600696D6D656469617465008F031B0143040F
:10074600F9074A052C08CE04FF7FAC065D050D08A7
:10075600AE0406005B636861725D9A031B01D101FA
:10076600CE04500DDC01AE04060061626F72742285
:10077600AC031B012509D101CE03AE0405FF61625E
:100786006F727400B7031B01E405A70C06FF3F61F7
:10079600626F7274C1031B017A05C704D403060C89
:1007A600C603D309AE0409FF6765742D73746163CC
:1007B6006B00C9031B014A05C2095D05F9074A0515
:1007C6009805ED055D059B02C704F403340745074C
:1007D600CE06BC0968053606F9075D05E40553072C
:1007E600EA03D3098F05AE0409FF7365742D73748C
:1007F60061636B00D6031B016805BA05C7040604CE
:10080600CE04FCFFA70CCA09D5075D05ED059B02C2
:10081600C70413043407C209DB09D50762070E04AF
:100826007205AE0409FF6D61702D737461636B0010
:10083600F7031B014A05C2095D05F907BC094C12FD
:100846009B02C704380434074507F9075D05980578
:10085600A105B8045205C70434048F0572056D0757
:10086600AE048F057912530727047205ED05AE0411
:100876000BFF6765742D63757272656E74001504DF
:100886001B01CE048400F907AE0409FF6765742DC9
:100896006F72646572003B041B01CE048800DD03A1
:1008A600AE0409FF6366672D6F72646572004804C3
:1008B600DC04880007FF636F6D7061726500540485
:1008C6006404BF93AF938C0189919991DC0189915E
:1008D60099919C0189919991FC01ED90F190EF1409
:1008E60051F40A9519F02A95C1F701C02A95022BF1
:1008F60011F4882702C08FEF00C0982FAF91BF91E7
:100906009BCC07FF6E66613E6C6661005D041B0151
:10091600D810C8069D063606AE040BFF6170706CD3
:100926007475726E6B65790084041B010501DD0820
:10093600CA0F480CA409CE04E8035B068905420ADF
:10094600880BD30B04006B487A20060CAE0404FF18
:10095600657869749004AF04AF91BF916DCC07FFC1
:100966006578656375746500AA04B904BC0189914C
:1009760099916DCCBE04FD015527EE0FFF1F551F43
:100986005BBFA791B79158CCC804982B89919991D0
:1009960091F3119651CCCF049A938A93FD01552772
:1009A600EE0FFF1F551F5BBF87919791119644CCA1
:1009B600DC049A938A93FB0131965527EE0FFF1FAD
:1009C600551F5BBF8791979137CCE9049A938A9319
:1009D600CB01019631CCEF049A938A93FB013196B1
:1009E6005527EE0FFF1F551F5BBF87919791840D0B
:1009F600951D22CC07FF2876616C75652900B20427
:100A06001B01AE010E03D1010905AE041DDE4A0528
:100A160011102C08B804AE0401FF4000FD041305B4
:100A2600FC018191919108CC01FF21000F051B0566
:100A3600FC01899199919183808389919991FCCB4D
:100A460002FF632117052705FC018991999180838F
:100A560089919991F1CB02FF634023053205FC0190
:100A660099278081E9CB02FF40752E051B019B0764
:100A760036061205AE0402FF217536051B019B07DB
:100A860036061A05AE0403FF647570003E054B0575
:100A96009A938A93D1CB04FF3F647570460553053C
:100AA600082F092B11F09A938A93C6CB04FF73770C
:100AB60061704E055E058C01899199911A930A938E
:100AC600BBCB04FF6F766572590569059A938A93C5
:100AD6008A819B81B1CB04FF64726F7064057305D4
:100AE60089919991A9CB03FF726F74006E057B05FE
:100AF6008C0129913991899199913A932A931A9364
:100B06000A939ACB03FF6E69700076058A052296D2
:100B160093CB02FF723E850590059A938A938F9137
:100B26009F918ACB02FF3E728C0599059F938F9306
:100B36008991999181CB02FF72409505A2059A93FE
:100B46008A938F919F919F938F9376CB02FF3C3E22
:100B56009E051B016D12B305AE0402FF303DA905CB
:100B6600B405982BD1F530C002FF303CB005BB056B
:100B760097FD2AC032C002FF303EB705C205821576
:100B860093055CF151F120C003FF64303E00BE05C1
:100B9600CC05821593058991999182059305ECF010
:100BA600E1F012C003FF64303C00C705DA05229667
:100BB60097FD0C94E7050C94F00504FF74727565B7
:100BC600D505E5059A938A938FEF9FEF35CB01FF05
:100BD6003000E005EE059A938A93C1012DCB02FF02
:100BE600753CEA05F6052991399182179307A8F312
:100BF600A1F3EACF02FF753EF2051B015D05F5057F
:100C0600AE0401FF3C00FD0508062991399128171D
:100C160039071CF7D9CF01FF3E00040612062991B9
:100C2600399128173907CCF2C1F2CECF04FF6C6F89
:100C360067320E061E06FC01992780E18A9522F08E
:100C4600EE0FFF1FD8F7F8CA9A95F6CA01FF2D00D6
:100C560019062D0609911991081B190BC801ECCA32
:100C660001FF2B002906370609911991800F911F64
:100C7600E3CA02FF6D2A330640068C0189919991D9
:100C86009C0131027001209FC0013003F308900DD2
:100C9600E11CF31C1203F308900DE11CF31C9A935C
:100CA6008A93C701C9CA06FF756D2F6D6F643C062E
:100CB6005C067C01299139910991199140E15527EA
:100CC600000F111F221F331F551F2E153F055205FA
:100CD60018F003952E193F094A9589F73A932A93F6
:100CE600C801AACA03FF756D2A0056067A068C014A
:100CF60089919991809FF00122273327909FF00DCB
:100D0600211D331D819FF00D211D331D919F200D47
:100D1600311DCF019A938A93C9018ECA06FF696E67
:100D260076657274750697068095909585CA02FF5A
:100D3600322F91069E06959587957ECA02FF322A26
:100D46009A06A506880F991F77CA03FF616E64008D
:100D5600A106AD0609911991802391236DCA02FF60
:100D66006F72A806B60609911991802B912B64CA59
:100D760003FF786F7200B206C006099119918027A9
:100D860091275ACA02FF312BBB06C906019654CADF
:100D960002FF312DC506CF0601974ECA07FF3F6EEB
:100DA600656761746500CB061B01BA05C704DC06DE
:100DB600A50AAE0406FF6C7368696674D106E3067D
:100DC600FC018991999131971AF0880F991FFBCFF1
:100DD60033CA06FF727368696674DD06F206FC01A3
:100DE6008991999131971AF096958795FBCF24CAE8
:100DF60002FF2B21EC06FF06FC01899199912081C7
:100E06003181820F931F808391838991999114CAAE
:100E160003FF72704000FB0610079A938A938DB702
:100E26009EB70ACA03FF727021000B071A072FB775
:100E3600F8948DBF9EBF2FBF89919991FDC903FF7D
:100E460073704000150727079A938A93CE01F4C959
:100E560003FF7370210022073007EC0189919991F5
:100E6600EBC9350729913991E0E83E0F821B930BB8
:100E76003F932F939F938F9389919991DDC901FF9A
:100E860069002B0746079A938A938F919F91EF915A
:100E9600FF91FF93EF939F938F938E0F9F1FCCC964
:100EA6005407EF91FF91E80FF91F899199911BF073
:100EB600FF93EF9360CD0F911F911196BDC9630704
:100EC600EF91FF913196BBF3F3CF06FF756E6C6F12
:100ED6006F7042076E071F910F911F910F91ACC95A
:100EE60006FF636D6F76653E68077907BF93AF931C
:100EF600E991F991A991B991092F082B41F0E80FD1
:100F0600F91FA80FB91F1E9112930197E1F7AF9130
:100F1600BF918991999190C902FF3E3C730793074F
:100F2600092F982F802F88C903FF757040008F07FF
:100F36009C079A938A93C2017FC903FF75702100AB
:100F46009707A5072C018991999176C903FF316D01
:100F56007300A007AE07E6E6FEE03197F1F7000062
:100F66006BC903FF323E7200A907B907FC018991DC
:100F760099919F938F93FF93EF93899199915CC970
:100F860003FF32723E00B407C8079A938A93EF9123
:100F9600FF918F919F919A938A93CF014DC902FF3A
:100FA6002165C307D607FC01899199912FB7F8945B
:100FB60028D000B5081709F00BD0319622D000B51D
:100FC600091711F0892F04D02FBF8991999134C93F
:100FD600F999FECF07B700FDFDCFF2BDE1BD80BD9B
:100FE600FA9AF99A089502FF4065D207FA072FB7D1
:100FF600F894FC0106D080B5319603D090B52FBF8A
:101006001BC9F999FECFF2BDE1BDF89A089502FF1A
:101016002169F6077910A4001A10241004FF286924
:1010260021290A0816089C0189919991AF93BF93CB
:10103600CF93DF93E1E0EBBFF0EFE0E01995DF91AE
:0C104600CF91BF91AF9189919991F6C8AC
:020000023000CC
:10E0000010D0E094F0948E219F21982B19F0F90103
:10E0100003E023D0F90105E020D0F90101E11DD092
:10E020000895F901E078FF7FEF01A0E8B0E0FE017C
:10E030005527EE0FFF1F551F5BBF47915791FE01FC
:10E04000E217F30711F00A0102C07A010C0101E0A6
:10E0500004D02196119759F708951FB71F93F8948C
:10E06000F999FECF17B710FDFDCF5527EE0FFF1F13
:0EE07000551F5BBF07BFE8951F911FBF0895A6
:020000020000FC
:1010520002FF406911082D08FC015527EE0FFF1F02
:10106200551F5BBF87919791E9C803FF6E3E7200DF
:1010720029083B08FC01082F899199919F938F932E
:101082000A95D1F7EF93FF9389919991D7C803FFFE
:101092006E723E0036084D089A938A93FF91EF9143
:1010A2000E2F8F919F919A938A930A95D1F7CF0130
:1010B200C5C803FF64322A0048085F0809911991E4
:1010C200000F111F881F991F1A930A93B7C803FFB5
:1010D20064322F005A086D080991199195958795E8
:1010E200179507951A930A93A9C802FF642B6808FB
:1010F2007A0829913991E990F99049915991240FEF
:10110200351F8E1D9F1D3A932A9398C802FF642DA6
:1011120076088B0829913991E990F9904991599172
:10112200421B530BE80AF90A5A934A93C70186C82D
:1011320007FF64696E76657274008708A0080991DA
:10114200199180959095009510951A930A9376C8F7
:1011520002FF752E99081B01ED05900BAE0403FFEB
:10116200752E7200A9081B01ED055D05990BAE04F1
:101172000DFF73686F772D776F72646C69737400FB
:10118200B0081B01CE04C8085D05BD10AE041B01EA
:10119200D810060C480CE405AE0405FF776F7264A4
:1011A2007300B9081B01CE048A00F907C208AE0415
:1011B20004FF2B696E74CE08DE0878943FC804FFE2
:1011C2002D696E74D908E508F89438C804FF696E71
:1011D2007421E0081B01CE0400003606D507AE04D8
:1011E20004FF696E7440E7081B01CE040000360656
:1011F200F907AE0408FF696E742D74726170F1080C
:101202000209B82E8991999119C81B01F508B804F1
:101212000B09AE040C0901D011C8189504FF7069BE
:10122200636BFB081B01C806BC09260736061205BC
:10123200AE0402002E220F091B012509D101060C62
:10124200AE04020073221A091B01CE042200ED0D26
:10125200AF091205C7042E09FD01AE0404FF666939
:101262006C6C22091B017A057A055205C7044009F4
:101272004C1234074A054507260562073B097205E9
:10128200AE040BFF656E7669726F6E6D656E7400EB
:101292002F09DC04820009FF776F72646C69737432
:1012A200730000001B01CE040800AE0404FF2F707F
:1012B20061644C091B012607E9092C06AE0405FFEF
:1012C2002F686F6C640057091B01E909240A2C0678
:1012D200AE040AFF666F7274682D6E616D656009F7
:1012E2001B01D30B0700616D666F72746800AE0458
:1012F20007FF76657273696F6E006A091B01CE047F
:101302004100AE0403FF6370750079091B01CE042E
:101312007500320CAE0408FF6D63752D696E666F41
:1013220083091B01CE047100AE0405FF2F7573659E
:1013320072008C091B01CE042C00AE0405FF665F0F
:101342006370750042091B01CE040000CE04E10067
:10135200AE0405FF7374617465009F09DC045302D7
:1013620004FF62617365AA09EF040C0005FF63655F
:101372006C6C7300B109A50605FF63656C6C2B00EC
:10138200B709C30902960C941F0104FF32647570F9
:10139200BD091B0168056805AE0405FF3264726F62
:1013A2007000C6091B0172057205AE0404FF747554
:1013B200636BCE091B015D056805AE0403FF3E6940
:1013C2006E00D709EF04180003FF70616400DF09A3
:1013D2001B01240ACE0428003606AE0404FF656D04
:1013E2006974E50979100E0042104E1005FF656D13
:1013F20069743F00EF097910100042104E1003FF8C
:101402006B657900F7097910120042104E1004FF43
:101412006B65793F000A7910140042104E1002FFEA
:101422006470080A090574001A10241005FF656823
:1014320065726500100A090578001A10241004FF6D
:1014420068657265170A090576001A10241005FFEF
:10145200616C6C6F7400200A1B01240A3606FF0FB0
:10146200250AAE0403FF62696E00280A1B01791285
:10147200B5091A05AE0407FF646563696D616C0006
:10148200330A1B01CE040A00B5091A05AE0403FF94
:10149200686578003C0A1B01CE041000B5091A05E4
:1014A200AE0402FF626C480ADC04200007FF747578
:1014B200726E6B657900520A791080001A1024103E
:1014C20004FF2F6D6F64570A660A9C0109911991F6
:1014D200412F432717FF04C0109500950F5F1F4F40
:1014E20037FF04C0309520952F5F3F4FEE24FF1841
:1014F20051E1001F111F5A9539F447FF04C010959E
:1015020000950F5F1F4F0BC0EE1CFF1CE21AF30A7F
:1015120020F4E20EF31E8894ECCF0894EACFFA92FC
:10152200EA92C8010C941F0105FF752F6D6F6400CC
:10153200610A1B019805ED058F055B06AE0406FFE7
:101542006E6567617465950A1B019606C806AE044E
:1015520001FF2F00A00A1B01650A8905AE0403FFE3
:101562006D6F6400A90A1B01650A7205AE0403FFD0
:1015720061627300B00A1B014A05D706AE0403FF7D
:101582006D696E00B80A1B01CA091106C704CA0AAE
:101592005D057205AE0403FF6D617800C00A1B0190
:1015A200CA090706C704D60A5D057205AE0406FF1E
:1015B20077697468696ECC0A1B0168052C06980568
:1015C2002C068F05F505AE0407FF746F7570706504
:1015D2007200D80A1B014A05CE046100CE047B00CA
:1015E200DD0AC704F70ACE04DF00AC06AE0407FF2B
:1015F200746F6C6F77657200E50A1B014A05CE04B1
:101602004100CE045B00DD0AC7040A0BCE042000B1
:10161200B506AE0403FF686C6400F80ADC045502E8
:1016220004FF686F6C640B0B1B010F0B4A0512055C
:10163200CE064A0598055D051A058F052605AE04F6
:1016420002FF3C23110B1B01E9090F0B1A05AE0423
:1016520001FF2300210B1B01B5091205A90B7A0515
:10166200CE04090068050706C7043A0BCE0407003A
:101672003606CE0430003606150BAE0402FF237385
:10168200290B1B012C0BCA09B506B305C704430B72
:10169200AE0402FF233E3F0B1B01D3090F0B1205C1
:1016A200E90968052C06AE0404FF7369676E4A0BEC
:1016B2001B01BA05C704600BCE042D00150BAE0446
:1016C20003FF642E7200550B1B019805DB093A11CA
:1016D200240B420B7A05590B4D0B8F0568052C061E
:1016E200510C610CAE0402FF2E72610B1B019805B6
:1016F20055128F05650BAE0402FF642E740B1B019D
:10170200ED05650B480CAE0401FF2E007D0B1B019D
:101712005512800BAE0403FF75642E00850B1B016E
:10172200ED05990B480CAE0404FF75642E728C0B08
:101732001B019805240B420B4D0B8F0568052C06E7
:10174200510C610CAE0406FF75642F6D6F64950B2E
:101752001B019805ED05A1055B068F055D05980542
:101762005B068F05AE0406FF64696769743FA40BCC
:101772001B01EB0A4A05CE0439001106CE04000112
:10178200AC0636064A05CE0440011106CE04070116
:10179200AC062C06CE0430002C064A05B50912050B
:1017A200F505AE041B01A105320C8F056805C806BC
:1017B2009D063606C8069805AE0402FF732CB40BCC
:1017C2001B014A05E50BAE041B01DC014A059D061F
:1017D200DB09A4062C069805ED059B02C704F80B4D
:1017E20034074A051205DC01C2096207F20B8F05B4
:1017F200C105C704FF0B4A053105DC017205AE04C1
:1018020005FF697479706500DE0B1B014A059D06B0
:10181200DB09A4062C069805ED059B02C7041A0CE9
:1018220034074A052C084A05270C230CC806620710
:10183200120C8F05C105C704210C4A052C08270C80
:101842007205AE041B019207270CAE041B01CE04E5
:10185200FF00AC06F309AE0406FF69636F756E7490
:10186200010C1B014A05C8065D052C08AE0402FFE7
:1018720063722D0C1B01CE040D00F309CE040A0085
:10188200F309AE0405FF737061636500380C1B0138
:10189200550AF309AE0406FF737061636573430C66
:1018A2001B01ED05D00A4A05C7045B0C480CCE06A5
:1018B200BD04540C7205AE0404FF747970654C0CBF
:1018C2001B014C129B02C7046C0C340745073105FF
:1018D200F3096207670CAE0401FF27005D0C1B01D0
:1018E2001A0E320F3D0F4A05B00F6D125D052C081E
:1018F200CE04E50F6D12B506C704820CCE04F3FFC9
:10190200A70C7205AE0407FF68616E646C65720015
:101912006D0CEF040A0005FF636174636800840CB8
:101922001B01260798058A0C120598050F078A0CD9
:101932001A05B8048F058A0C1A058F057205ED0584
:10194200AE0405FF7468726F77008C0C1B014A05A8
:10195200B305C704AE0C7205AE048A0C1205190752
:101962008F058A0C1A058F055D0598052F077205EC
:101972008F05AE0405FF63736B697000A20C1B0137
:1019820098054A05C704CF0C68053105A1056D12FB
:10199200C704CF0C74120B0EBD04C20C8F05720566
:1019A200AE0405FF637363616E00BB0C1B019805F7
:1019B20068054A053105A1056D12B305C704EC0C93
:1019C2005D05CE065D056805BA05B305C704EC0CD6
:1019D200C806BD04DA0C890568052C068F05720558
:1019E200AE0406FF616363657074D20C1B01680567
:1019F2003606CE066805040A4A05380DB305C70443
:101A02002A0D4A05CE0408006D12C7041A0D72058C
:101A12007A05CA09110698057A057A058F05C70461
:101A2200180D300DCE06980568058F056E01BD04B0
:101A3200280D4A05550A0706C704210D7205550AE5
:101A42004A05F30968052605C80668057A01BD043A
:101A5200FC0C720589055D052C063B0CAE041B01CE
:101A6200CE0408004A05F309480CF309AE041B0131
:101A72004A05CE040D006D125D05CE040A006D12FA
:101A8200B506AE0406FF726566696C6CF20C7910DD
:101A92001A0042104E1004FF63686172430D1B016D
:101AA2001A0E72053105AE0406FF6E756D6265721F
:101AB2004C0D1B01B509120598059E0D9805B10D37
:101AC2009E0D8F05B50698054A05B305C704710D2D
:101AD200D3098F0572058F05B5091A05ED05AE0408
:101AE200B807ED05ED05C707CF0D5205C704930DE5
:101AF20074126D12C7048A0D3105CE042E006D12C8
:101B0200C7048B0D8F05C704870D47117912BD04D9
:101B1200990D7205D3098F0572058F05B5091A054E
:101B2200ED05AE04D3098F05C704980DA50A7412FA
:101B32008F05B5091A05E405AE041B0168053105D8
:101B4200CE042D006D124A059805C704AA0D741221
:101B52000B0E8F05AE04E9040A00100002000A0011
:101B62001B0168053105CE0423002C064A05ED054C
:101B7200CE040400DD0AC704C70DAC0D36062C08DE
:101B8200B5091A0574120B0EBD04C80D7205AE0418
:101B920007FF3E6E756D62657200550D1B014A05A9
:101BA200C704E70D68053105B90BB305C704DB0DA2
:101BB2007205AE0498056B11B50912055F018F0518
:101BC20057016B1174120B0EBD04D00DAE0405FF4C
:101BD200706172736500C90D1B019805010EE3095E
:101BE20012050B0E8F05D70C4A05C806E309FE063F
:101BF20074120B0EAE0406FF736F75726365E80D07
:101C02007910160042104E1007FF2F737472696E1E
:101C12006700FC0D1B017A05680536067A057A0510
:101C22002C06AE040AFF70617273652D6E616D65DC
:101C3200050E1B01550A1E0EAE041B019805010E6E
:101C4200E30912050B0EA105C00C8F05D70CCA09BA
:101C52003606010E72052C06E3091A05AE0407FFCB
:101C620066696E642D787400130E1B01CE04420E59
:101C7200CE0488001C04B305C704410ED309ED0548
:101C8200AE041B019805CA098F058B104A05C704CB
:101C92004F0E9805890589058F05E405AE041B01E1
:101CA200D30B0300206F6B00060CAE0403FF2E6FF4
:101CB2006B00300E79101C0042104E101B01D30B2A
:101CC20002003E203B0C060CAE0406FF2E7265613C
:101CD2006479570E7910200042104E101B01D30B6D
:101CE2000400203F3F20060CB50912059805420A60
:101CF200880BE3091205880B8F05B5091A05AE0496
:101D020006FF2E6572726F72660E79101E00421007
:101D12004E1004FF71756974810E1B01D102D80245
:101D22001A05EF0E2F07FC0E19076603AF091205FD
:101D3200B305C7049D0E6B0E480DC704AF0ECE044B
:101D4200150F910C5205C704AF0E4A05CE04FEFFD3
:101D52000706C704AD0E860EBD048F0E5B0EBD04D2
:101D6200970E05FF7061757365008A0E7910570230
:101D72002E10381004FF636F6C64B20EC00EA4B64E
:101D820022243324BB2424BEE0E0F2E02192E0309E
:101D9200E9F7F232D9F7E9E5F2E02F010FEF0DBFD3
:101DA200048311E21EBF1583CFEAC683D1E2D78333
:101DB200A2EEBEE00C941F0104FF7761726DBB0EB0
:101DC2001B01B611CE04E50FCE04B70E59106603FF
:101DD2005D0A8E0E03FF73703000DD0E09050600EA
:101DE20042104E1002FF7370EB0EEF04080003FF67
:101DF20072703000F30E1B01000F1205AE04EF04E7
:101E0200040005FF646570746800F80E1B01EF0E94
:101E120026072C069D06CE06AE0409FF696E746580
:101E2200727072657400020F1B011A0E4A05C70414
:101E3200260F320F3D0FAF091205C704210F1110F3
:101E42002C08B804BD0FBD04160FD309AE0410FF51
:101E5200666F7274682D7265636F676E697A6572F8
:101E62000E0F09057C001A10241009FF7265636FBA
:101E7200676E697A6500280F1B01CE04480F5D0565
:101E82001C04B305C704470FD309B00FAE041B01EE
:101E92007A057A05CA09B8077A05B804C7077A0528
:101EA2004A05B00F6D12C704590F7205ED05AE0455
:101EB20089058905E405AE0406FF64743A6E756D02
:101EC200360FE904E50FF201F20107FF64743A6488
:101ED2006E756D005D0FE904E50F6512651207FF6F
:101EE2007265633A6E756D00660F1B015A0DC70469
:101EF200820F74126D12C704800F620FAE046C0F52
:101F0200AE04B00FAE0408FF7265633A66696E6490
:101F1200700F1B01360E4A05B305C704930F7205F5
:101F2200B00FAE049A0FAE0405FF64743A787400E1
:101F3200840FE9049E0FA20F65121B017205B804FB
:101F4200AE041B01BA05C704A80FDC01AE04B80435
:101F5200AE0407FF64743A6E756C6C00950FE90469
:101F6200B40FB40FB40F1B01CE04F3FFA70C06FF8E
:101F72003F737461636BAA0F1B01070FBA05C70495
:101F8200C50FCE04FCFFA70CAE0403FF76657200FA
:101F9200B80F1B017109060C480CB50912057F091F
:101FA200420A5512240B2C0BCE042E00150B420BA9
:101FB2004D0B610CB5091A05480C8709060CAE04D5
:101FC20004FF6E6F6F70C60F1B01AE0406FF756EC5
:101FD20075736564E10F1B012607240A2C06AE0403
:101FE2000200746FE70F1B01700C5E12AF0912053D
:101FF200C7040510D101FF0FDC01AE041B018F05E0
:102002004A05111098052C084A05111011102C08C8
:10201200B804AE0407FF692D63656C6C2B00F10FE9
:102022001B01C806AE0407FF456465666572400081
:102032000B101B012C08F907AE0407FF4564656607
:102042006572210014101B012C08D507AE0407FF8E
:1020520052646566657240001E101B012C08120551
:10206200AE0407FF526465666572210028101B01E9
:102072002C081A05AE0407FF5564656665724000B8
:1020820032101B012C089B0736061205AE0407FF0F
:1020920055646566657221003C101B012C089B0784
:1020A20036061A05AE0406FF64656665722148109D
:1020B2001B015E124A05111011102C08B804AE045F
:1020C20006FF64656665724054101B015E124A0584
:1020D20011102C08B804AE0407FF28646566657207
:1020E200290061101B01AE010E03D1017910AE046B
:1020F2000E9427034A0511102C08B804B804AE0444
:102102000FFF7365617263682D776F72646C697318
:1021120074006D101B019805ED05CE04A0108F050B
:10212200BD104A05B305C7049A10D3097205ED051F
:10213200AE044A05E4105D0594018201AE041B0160
:1021420098057205CA09A105D810EE10C704AE1091
:102152008F057205ED05E405AE04D3098F05ED0583
:10216200AE0411FF74726176657273652D776F72BA
:10217200646C6973740081101B01F9074A05C70476
:10218200CE10CA09B8075D05B804C7077A05C704A7
:10219200CE108A042C08BD04BF10D309AE040BFF75
:1021A2006E616D653E737472696E6700B2101B01D9
:1021B200320CCE04FF00AC06AE0407FF6E66613E31
:1021C20063666100D0101B018A04C806AE0408FFD2
:1021D20069636F6D70617265DE101B019805680599
:1021E2008F05AC05C704F910D3097205E405AE04E6
:1021F2005D05ED059B02C7041C1134076805120535
:1022020068052C084A05CE040001F505C7040D1126
:102212005D05CE04FF00AC06AC05C7041411D3095A
:10222200E4056D07AE04C8065D05C2095D05CE046E
:1022320002005307FF10D309ED05AE0401FF2A0087
:10224200E8101B013F067205AE0401FF6A001F1170
:102252001B010F07CE040700360612050F07CE0436
:102262000900360612053606AE0404FF6461627385
:1022720026111B014A05BA05C70440114711AE04D5
:1022820007FF646E65676174650036111B019F0864
:102292007412ED057908AE0405FF636D6F76650073
:1022A20041115311BF93AF93E991F991A991B9915A
:1022B200092F082B21F01D9111930197E1F7AF919E
:1022C200BF91899199910C941F0105FF3273776137
:1022D20070004D111B017A0598057A058F05AE0431
:1022E2000AFF726566696C6C2D74696266111B0166
:1022F2009411CE045A00F70C9A111A05ED05E30960
:102302001A05E405AE040AFF736F757263652D74D6
:10231200696271111B0194119A111205AE0403FF37
:10232200746962008411DC04850204FF237469620B
:102332009011DC04DF0206FF65653E72616D961145
:102342001B01ED0534076805F90768051A05C2097E
:102352005D05C2095D056207A411D309AE0408FF39
:10236200696E69742D72616D9C111B01CE04A80007
:102372009B07CE0422009D06A111AE040BFF7365DC
:10238200742D63757272656E7400B0111B01CE04F8
:102392008400D507AE0408FF776F72646C697374AA
:1023A200BF111B011C0AED056805D5074A05C209C4
:1023B200FF0F1D0AAE040EFF666F7274682D776FF1
:1023C20072646C697374CC11DC04860009FF736556
:1023D200742D6F7264657200DC111B01CE048800DB
:1023E200FE03AE040FFF7365742D7265636F676E33
:1023F200697A65727300E7111B01CE049A00FE032D
:10240200AE040FFF6765742D7265636F676E697A3C
:1024120065727300F3111B01CE049A00DD03AE0452
:1024220004FF636F646502121B01AE010E03130AFF
:102432001110DC01AE0408FF656E642D636F6465E4
:1024420011121B01D1010C94D1011F01AE0408FF2E
:10245200286D61726B6572291C120905A6001A109B
:1024620024100800706F7374706F6E6528121B0160
:102472001A0E320F3D0F4A059805111011102C0843
:10248200B8048F0511102C08DC01AE0406FF626F40
:10249200756E647332121B01680536065D05AE0463
:1024A20003FF733E640047121B014A05BA05AE04DE
:1024B20005FF3E626F6479005112C9060800326C52
:1024C20069746572616C59121B015D05F201F201BA
:1024D200AE0401FF3D005F121B012C06B305AE04E2
:1024E20001FF31006A12DC04010001FF32007112A7
:0E24F200DC04020002FF2D317612DC04FFFF35
:00000001FF
