:020000020000FC
:0200040026D103
:0200080024D101
:02000C0022D1FF
:0200100020D1FD
:020014001ED1FB
:020018001CD1F9
:02001C001AD1F7
:0200200018D1F5
:0200240016D1F3
:0200280014D1F1
:02002C0012D1EF
:0200300010D1ED
:020034000ED1EB
:020038000CD1E9
:02003C000AD1E7
:0200400008D1E5
:0200440006D1E3
:0200480004D1E1
:02004C0002D1DF
:0200500000D1DD
:02005400FED0DC
:02005800FCD0DA
:02005C00FAD0D8
:02006000F8D0D6
:10006400F6D00008000400701A000A0041546D65BF
:1000740067613332385007FF3E72782D627566002F
:1000840000004400082F10911001E0E0F1E0E10FBE
:10009400F31D008313951F7010931001899199919A
:1000A4000C94043806FF6973722D72783D00003891
:1000B4003C38C6009738B0383C380300DE3F35384A
:1000C4006400373D43001F3800383C3859003C3841
:1000D4002400A43C3C3800013C3816005339973EB8
:1000E4001F3806FF72782D6275665400003893003D
:1000F400353879003C3811019738B0383C38000164
:100104009C399738C3382E3A3C380F00123A3C38A1
:1001140011018C381F3807FF72783F2D6275660015
:10012400730000382F3D3C38110197383C381001DA
:10013400973812391F3807FF74782D706F6C6C0074
:100144008D000038B1003538A4003C38C6008C3826
:100154001F3808FF74783F2D706F6C6C9D00003859
:100164002F3D3C38C00097383C382000123A1F38E5
:1001740004FF75627272AB006E388C009F3DA93D1E
:1001840006FF2B7573617274BA0000383C3898000E
:100194003C38C1008C383C3806003C38C2008C38EE
:1001A400BE00B038F83A3C38C5008C383C38C4003E
:1001B4008C3866001F3808FF31772E7265736574BA
:1001C400C200E4009A938A93249A2C98E0E8F7E01A
:1001D4003197F1F71FB7F8942C9A2498E0E0F1E0F6
:1001E4003197F1F783B184FF9FEF1FBF24982C98B8
:1001F400E0E8F6E03197F1F7892F0C94043807FF13
:1002040031772E736C6F7400DD0008012C98249AEA
:100214001FB7F894E8E1F0E03197F1F788948795F7
:1002240010F42C9A2498E4E2F0E03197F1F703B14A
:1002340004FD8068ECECF0E03197F1F72C9A2498F7
:0E024400E8E0F0E03197F1F71FBF0C940438AA
:040000000C94383DE7
:100252000A920FB60A920F900F900A94B02CFF9355
:10026200EF93E2E1F1E00694E00DF31D00800394C8
:100272000082EF91FF9109900FBE0990089502FF4D
:100282006D2B01010038C63F143C1F3803FF756413
:100292002A0040010038B038FE38DF39D838C33878
:1002A200F538DF39E0389C391F3804FF756D617805
:1002B20047010038C83E5B3935386001C338D83849
:1002C2001F3804FF756D696E56010038C83E6639E5
:1002D20035386C01C338D8381F3800383C380080B4
:1002E200123A193935387701E53F1F384A391F3834
:1002F2000AFF6E616D653E666C616773620100386C
:10030200CA3B3C3800FF123A1F3803FF7665720081
:1003120079010038DA020304AD3FBC3E7838E802C6
:10032200403FC63F210329033C382E0012033F03FE
:100332004A033904BC3E8038AD3FF00203041F3843
:1003420004FF6E6F6F70860100381F3806FF756EEE
:1003520075736564A10100388C3A223F92391F38C7
:100362000200746FA70100384804CF3FB63E7838C8
:100372003538C5015C07BF0167071F380038F538FB
:10038200B038D101FE38CA3BB038D101D101CA3BE5
:1003920029381F3807FF692D63656C6C2B00B1018A
:1003A20000382E3A1F3808FF69636F6D70617265FD
:1003B200CB010038FE38CE38F53812393538E50130
:1003C200D13ED8384A391F38C33853392608353810
:1003D20008029A3ACE387838CE38CA3BB0383C3820
:1003E20000015B393538F901C3383C38FF00123A55
:1003F200123935380002D13E4A39D33A1F382E3AE3
:10040200C3388F3CC3383C380200B93AEB01D13EC5
:1004120053391F3801FF2A00D4010038A539D838D2
:100422001F3801FF6A000B020038753A3C3807009A
:100432009C397838753A3C3809009C3978389C39AF
:100442001F3804FF6461627312020038B038203929
:1004520035382C0233021F3807FF646E65676174FA
:100462006500220200383A3CE53F5339143C1F38FC
:1004720005FF636D6F7665002D023F02BF93AF9358
:10048200E991F991A991B991092F082B21F01D91B8
:1004920011930197E1F7AF91BF91899199910C94D2
:1004A200043805FF32737761700039020038E03892
:1004B200FE38E038F5381F380AFF726566696C6CE1
:1004C2002D7469625202003880023C385A00980446
:1004D200860280385339E13E80384A391F380AFF94
:1004E200736F757263652D7469625D0200388002F4
:1004F200860278381F3803FF746962007002473839
:100502002C0104FF237469627C024738860106FFCE
:1005120065653E72616D8202003853399A3ACE386F
:100522005E3BCE3880388F3CC3388F3CC338C83AE4
:100532009002D13E1F3808FF696E69742D72616D99
:10054200880200383C386A00013B3C382200033AFA
:100552008D021F380BFF656E7669726F6E6D656E68
:1005620074009C024738440009FF776F72646C691B
:1005720073747300000000383C3808001F3804FF11
:100582002F706164B50200388C3AE73E92391F3809
:1005920005FF2F686F6C6400C0020038E73E223FFF
:1005A20092391F380AFF666F7274682D6E616D652D
:1005B200C9020038D0030700616D666F727468006B
:1005C2001F3807FF76657273696F6E00D3020038B9
:1005D2003C3841001F3803FF63707500E2020038A7
:1005E2003C3837002F041F3808FF6D63752D696E84
:1005F200666FEC0200383C3833001F3805FF2F7558
:1006020073657200F50200383C382C001F3803FF76
:10061200686C6400AB024738880104FF686F6C6441
:10062200080300380C03B0387838343AB038FE3852
:10063200C3388038F5388C381F3802FF3C230E034C
:100642000038E73E0C0380381F3801FF23001E03E9
:100652000038BC3E7838A603E0383C380900CE3872
:100662006D39353837033C3807009C393C38300047
:100672009C3912031F3802FF237326030038290313
:10068200C83E1B3A1939353840031F3802FF233E52
:100692003C030038D13E0C037838E73ECE3892391D
:1006A2001F3804FF7369676E4703003820393538F5
:1006B2005D033C382D0012031F3803FF642E7200C5
:1006C20052030038FE38D93E260221033F03E038A8
:1006D20056034A03F538CE389239B63F39041F38EB
:1006E20002FF2E725E030038FE38C63FF538620301
:1006F2001F3802FF642E7103003853396203AD3F85
:100702001F3801FF2E007A030038C63F7D031F38D1
:1007120003FF75642E008203003853399603AD3F00
:100722001F3804FF75642E7289030038FE382103D6
:100732003F034A03F538CE389239B63F39041F38A1
:1007420006FF75642F6D6F6492030038FE385339CB
:100752000739C139F538C338FE38C139F5381F3881
:1007620006FF64696769743FA1030038653FB038CA
:100772003C38390077393C380001123A9C39B0389C
:100782003C38400177393C380701123A92393C38FB
:1007920030009239B038BC3E78385B391F380038A7
:1007A20007392F04F538CE382E3A033A9C392E3ABF
:1007B200FE381F3802FF732CB1030038B038E20351
:1007C2001F3800386707B038033AD93E0A3A9239DF
:1007D200FE38533926083538F5039A3AB038783856
:1007E20067078F3CC83AEF03F53827393538FC03E1
:1007F200B03897386707D8381F3805FF69747970A1
:100802006500DB030038B038033AD93E0A3A923920
:10081200FE3853392608353817049A3AB038CA3B9D
:10082200B038240420042E3AC83A0F04F538273988
:1008320035381E04B038CA3B2404D8381F38003873
:10084200F83A24041F3800383C38FF00123AF13ECF
:100852001F3806FF69636F756E74FE030038B03887
:100862002E3AC338CA3B1F3804FF747970652A04D4
:100872000038983F2608353844049A3AAB3A9738FC
:10088200F13EC83A3F041F3801FF27003504003803
:10089200BB05FE050906B0389606DE3FC338CA3BE3
:1008A2003C38A501DE3F1B3A35385A043C38F3FF89
:1008B200853DD8381F3805FF63736B6970004504A6
:1008C2000038FE38B03835387004CE3897380739DA
:1008D200DE3F35387004E53FAC052E386304F53849
:1008E200D8381F3805FF637363616E005C040038FB
:1008F200FE38CE38B03897380739DE3F19393538E7
:100902008D04C338343AC338CE38203919393538D2
:100912008D042E3A2E387B04EF38CE389239F538D2
:10092200D8381F3806FF616363657074730400383A
:10093200CE389C39343ACE38023FB038D90419390E
:100942003538CB04B0383C380800DE3F3538BB04BC
:10095200D838E038C83E7739FE38E038E038F53824
:100962003538B904D104343AFE38CE38F5385A0154
:100972002E38C904B038533F6D393538C204D838DF
:10098200533FB038F13ECE388C382E3ACE3866011D
:100992002E389D04D838EF38C3389239A03F1F381B
:1009A20000383C380800B038F13EAD3FF13E1F3808
:1009B2000038B0383C380D00DE3FC3383C380A00FE
:1009C200DE3F1B3A1F3806FF726566696C6C930442
:1009D200FE3D1A00C73DD33D04FF63686172E40423
:1009E2000038BB05D83897381F3806FF6E756D6220
:1009F2006572ED040038BC3E7838FE383F05FE389B
:100A020052053F05F5381B3AFE38B03819393538EA
:100A12001205D13EF538D838F538BC3E8038533906
:100A22001F381D3B533953392C3B7005B8383538C4
:100A32003405E53FDE3F35382B0597383C382E002C
:100A4200DE3F35382C05F538353828053302EA3FC4
:100A52002E383A05D838D13EF538D838F538BC3E6C
:100A6200803853391F38D13EF53835383905263E9E
:100A7200E53FF538BC3E80384A391F380038CE3859
:100A820097383C382D00DE3FB038FE3835384B05FC
:100A9200E53FAC05F5381F3851380A001000020056
:100AA2000A000038CE3897383C3823009239B038E3
:100AB20053393C380400563E353868054D059C399B
:100AC200CA3BBC3E8038E53FAC052E386905D838B4
:100AD2001F3807FF3E6E756D62657200F6040038BE
:100AE200B03835388805CE389738B60319393538D5
:100AF2007C05D8381F38FE385702BC3E78384B0187
:100B0200F53843015702E53FAC052E3871051F3811
:100B120005FF7061727365006A050038FE38A20530
:100B2200E13E7838AC05F5387804B0382E3AE13E2B
:100B3200643AE53FAC051F3806FF736F7572636553
:100B42008905FE3D1600C73DD33D07FF2F73747222
:100B5200696E67009D050038E038CE389C39E03870
:100B6200E03892391F380AFF70617273652D6E6129
:100B72006D65A6050038533FBF051F380038FE38A3
:100B8200A205E13E7838AC0507396104F5387804EE
:100B9200C83E9C39A205D8389239E13E80381F38C8
:100BA20003FF73703000B4056E380600C73DD33DB5
:100BB20002FF7370D1055738080003FF72703000CE
:100BC200D9050038E60578381F385738040005FF84
:100BD200646570746800DE050038D5058C3A923978
:100BE200033A343A1F3810FF666F7274682D7265CB
:100BF200636F676E697A6572E8056E383E009F3DE5
:100C0200A93D09FF7265636F676E697A6500F40535
:100C120000383C381406C338A70919393538130689
:100C2200D13E96061F380038E038E038C83E1D3BFA
:100C3200E03829382C3BE038B0389606DE3F3538AC
:100C42002506D83853391F38EF38EF384A391F385C
:100C520009FF696E7465727072657400020600386D
:100C6200BB05B03835384106FE050906B63E783870
:100C720035383C06D101CA3B29388A3F2E38310625
:100C8200D13E1F3806FF64743A6E756D29065138DD
:100C9200A5017D077D0707FF64743A646E756D00D8
:100CA20043065138A501D63FD63F07FF7265633A26
:100CB2006E756D004C060038FB0435386806E53F5A
:100CC200DE3F3538660648061F3852061F3896063C
:100CD2001F3808FF7265633A66696E64560600380B
:100CE2000B07B038193935387906D83896061F38C7
:100CF20080061F3805FF64743A7874006A0651381A
:100D020084068806D63F0038D83829381F3800387C
:100D1200203935388E0667071F3829381F3807FFF4
:100D220064743A6E756C6C007B0651389A069A06AA
:100D32009A0600383C38F3FF853D0FFF73656172F8
:100D420063682D776F72646C697374009006003863
:100D5200FE3853393C38BD06F538DA06B038193951
:100D62003538B706D13ED83853391F38B038010765
:100D7200C33880016E011F380038FE38D838C83EAB
:100D82000739F506DA013538CB06F538D838533944
:100D92004A391F38D13EF53853391F3811FF747262
:100DA2006176657273652D776F72646C6973740016
:100DB2009E0600385E3BB0383538EB06C83E1D3B18
:100DC200C33829382C3BE0383538EB06160ACA3BC3
:100DD2002E38DC06D13E1F380BFF6E616D653E7307
:100DE2007472696E6700CF0600382F043C38FF002A
:100DF200123A1F3807FF6E66613E63666100ED06B8
:100E02000038160A2E3A1F3807FF66696E642D787D
:100E12007400FB0600383C3817073C384A00A70923
:100E2200193935381607D13E53391F380038FE3884
:100E3200C83EF538A806B03835382407FE38EF38F2
:100E4200EF38F5384A391F3806FF6E6577657374D7
:100E5200050747388A0106FF6C61746573742507BC
:100E620047388E0108FF28637265617465292C0773
:100E72000038BB059008B0382A078F3C80387508C7
:100E82002A0780381F3801005C0033070038A205AA
:100E9200EF38E13E80381F3801002800440700384F
:100EA2003C3829008E05D13E1F3807FF636F6D70F5
:100EB200696C65004D070038F538B038D101FE384D
:100EC200CA3B67071F3801FF2C0056070038113F45
:100ED200723B113F2E3ABF01123F1F3803005B27BE
:100EE2005D006407003848047D071F3807006C69FD
:100EF200746572616C006F0700385C073C386707E5
:100F02001F380800736C69746572616C770700386A
:100F12005C07D003DE031F380038113F5C07FFFF78
:100F22001F3800388A3F113FC338723B1F380038E0
:100F3200113F1F3800388A3F67071F380500616874
:100F420065616400820700385C072E388D071F3800
:100F5200020069669F0700385C0735388D071F3825
:100F62000400656C7365A90700385C072E388D078D
:100F7200C33892071F3804007468656EB1070038E1
:100F820092071F380500626567696E00BC0700386A
:100F920098071F3805007768696C6500C307003839
:100FA200AC07C3381F380600726570656174CB07E1
:100FB2000038ED07C0071F380500756E74696C00B4
:100FC200D40700383C38353867079B071F380500BF
:100FD200616761696E00DD0700385C072E389B0788
:100FE2001F380200646FE80700385C079A3A9807D6
:100FF200533950081F3804006C6F6F70F2070038C5
:101002005C07C83A37081F3805002B6C6F6F7000F9
:10101200FC0700385C07B93A37081F3805006C65D1
:1010220061766500050800385C07D33AA4075008CA
:101032001F3803003F646F000F0800385C07260862
:10104200AC07F507C33850081F380038C83EDE3FEA
:10105200B038FE3835382E08D13EF538FC391F3805
:1010620007FF656E646C6F6F70001A0800389B078B
:101072004408B83835384008C0072E3839081F38B8
:1010820002FF6C3E310800386308783878383C3803
:10109200FEFF6308643A1F3802FF3E6C41080038C5
:1010A200EA3F6308643A6308783880381F3803FFE0
:1010B2006C7030004D086E3840009F3DA93D02FF24
:1010C2006C7058084738900106FF63726561746559
:1010D20060080038390799085C0751381F3806FF45
:1010E20068656164657265080038113FFE38FE3834
:1010F200B038273935388708B0383C3800FF1B3AFA
:10110200E203F5385E3B6707F5381F383C38F0FFDD
:10111200853D07FF776C73636F7065007008FE3D55
:101122003C009F3DA93D06FF72657665616C8A08A9
:1011320000382A078F3C7838B8383538A4082A078F
:101142007838C3383A3B1F380500646F65733E0038
:10115200940800385C07BD085C070E945C07B2086F
:101162001F389A938A93CB0101967F916F91BF9317
:10117200AF93DB010C9404380038F5382A078F3C12
:1011820078385E3B0107723B1F3801FF3A00A50821
:1011920000383907D408D8381F3807FF3A6E6F6E07
:1011A200616D6500C6080038113FB03831078038DC
:1011B2005C070038E9081F3801003B00CE08003800
:1011C2005C071F38F10899081F3801FF5D00DD0830
:1011D2000038E53FB63E80381F3801005B00E60864
:1011E20000385339B63E80381F3808FF766172697D
:1011F20061626C65EE080038223F0809EA3F2B3F26
:101202001F3808FF636F6E7374616E74F6080038DE
:10121200390799085C07473867071F3804FF757359
:10122200657202090038390799085C075738670761
:101232001F38070072656375727365000F09003805
:101242003107783867071F3809FF696D6D65646972
:10125200617465001A090038CE095E3BB038CA3B9A
:101262003C38FF7F123AC338723B1F3806005B637B
:101272006861725D250900385C073C38F104670734
:101282001F38060061626F72742237090038893E86
:101292005C0759091F3805FF61626F7274004209C9
:1012A20000384A39853D06FF3F61626F72744C090E
:1012B2000038E03835385F0903045109D13E1F3840
:1012C20009FF6765742D737461636B0054090038FC
:1012D200B0388F3CC3385E3BB038FE385339C33820
:1012E200260835387F099A3AAB3A343AC33ECE38AB
:1012F2009C395E3BC3384A39B93A7509D13EF53853
:101302001F3809FF7365742D737461636B00610983
:101312000038CE382039353891093C38FCFF853DFC
:10132200C83E3A3BC3385339260835389E099A3AA3
:101332008F3CD93E3A3BC83A9909D8381F3809FF41
:101342006D61702D737461636B0082090038B0386F
:101352008F3CC3385E3BC33E983F26083538C309ED
:101362009A3AAB3A5E3BC338FE3807392938B83867
:101372003538BF09F538D838D33A1F38F538EA3F3F
:10138200B93AB209D83853391F380BFF6765742D43
:1013920063757272656E7400A00900383C384600AD
:1013A2005E3B1F3809FF6765742D6F7264657200BA
:1013B200C60900383C384A0068091F3809FF6366CD
:1013C200672D6F7264657200D30947384A0007FFC0
:1013D200636F6D7061726500DF09EF09BF93AF93B0
:1013E2008C0189919991DC01899199919C01899152
:1013F2009991FC01ED90F190EF1451F40A9519F0D6
:101402002A95C1F701C02A95022B11F4882702C040
:101412008FEF00C0982FAF91BF910C94043807FF53
:101422006E66613E6C666100E8090038F5062E3A88
:10143200033A9C391F380BFF7365742D6375727202
:10144200656E7400100A00383C3846003A3B1F387B
:1014520008FF776F72646C6973741C0A00381A3F54
:101462005339CE383A3BB0388F3CBF011B3F1F384F
:101472000EFF666F7274682D776F72646C69737495
:10148200290A4738480009FF7365742D6F72646535
:101492007200390A00383C384A0089091F380FFFA8
:1014A2007365742D7265636F676E697A6572730016
:1014B200440A00383C385C0089091F380FFF676511
:1014C200742D7265636F676E697A65727300500A74
:1014D20000383C385C0068091F3804FF636F64659C
:1014E2005F0A003839079908113FD10167071F3891
:1014F20008FF656E642D636F64656E0A00385C07D1
:101502000C945C0704381F3808FF286D61726B6504
:101512007229790A6E3868009F3DA93D0800706FF4
:101522007374706F6E65850A0038BB05FE05090687
:10153200B038FE38D101D101CA3B2938F538D10182
:10154200CA3B67071F380BFF6170706C7475726E4F
:101552006B6579008F0A0038C700963C8A01AD3F5F
:10156200D0030A00466F7274686475696E6F030473
:021572001F3820
:10700000BF93AF93DB011196B21469F4FD01EE0F4B
:10701000FF1F659175911196FB01EE0FFF1F059102
:107020001591F80109949A938A938B2D9927BB2483
:107030006FEB7CE3F1CF04FF65786974A40A203814
:10704000AF91BF91E1CF07FF657865637574650007
:107050001B382A38BC0189919991DECF2F38FD0168
:10706000EE0FFF1FA591B591CFCF3638982B8991A0
:107070009991A9F31196C8CF3D389A938A93FD014F
:10708000EE0FFF1F859195911196BECF47389A93C9
:107090008A93FB013196EE0FFF1F85919591B4CF36
:1070A00051389A938A93CB010196AECF57389A9371
:1070B0008A93FB013196EE0FFF1F85919591840D08
:1070C000951DA2CF07FF2876616C756529002338CE
:1070D0000038390799085C076E381F380E94B208DB
:1070E000B038D101CA3B29381F3801FF400062384F
:1070F0007938FC018191919187CF01FF210075388A
:107100008138FC018991999191838083899199912A
:107110007BCF02FF63217D388D38FC0189919991E5
:1071200080838991999170CF02FF634089389838A4
:10713000FC019927808168CF02FF407594380038A0
:10714000013B9C3978381F3802FF21759C38003884
:10715000013B9C3980381F3803FF64757000A438E8
:10716000B1389A938A9350CF04FF3F647570AC385E
:10717000B938082F092B11F09A938A9345CF04FF51
:1071800073776170B438C4388C01899199911A93DE
:107190000A933ACF04FF6F766572BF38CF389A935F
:1071A0008A938A819B8130CF04FF64726F70CA38E2
:1071B000D9388991999128CF03FF726F7400D43820
:1071C000E1388C0129913991899199913A932A93C7
:1071D0001A930A9319CF03FF6E697000DC38F038F8
:1071E000229612CF02FF723EEB38F6389A938A93BA
:1071F0008F919F9109CF02FF3E72F238FF389F9323
:107200008F938991999100CF02FF7240FB38083922
:107210009A938A938F919F919F938F93F5CE02FFBC
:107220003C3E04390038DE3F19391F3802FF303D3B
:107230000F391A39982BD1F530C002FF303C16397E
:10724000213997FD2AC032C002FF303E1D3928394E
:10725000821593055CF151F120C003FF64303E00BC
:1072600024393239821593058991999182059305C4
:10727000ECF0E1F012C003FF64303C002D394039DE
:10728000229697FD0C944D390C94563904FF747274
:1072900075653B394B399A938A938FEF9FEFB4CE44
:1072A00001FF3000463954399A938A93C101ACCE1C
:1072B00002FF753C50395C39299139918217930747
:1072C000A8F3A1F3EACF02FF753E58390038C3385E
:1072D0005B391F3801FF3C0063396E3929913991C0
:1072E000281739071CF7D9CF01FF3E006A397839D2
:1072F0002991399128173907CCF2C1F2CECF04FF7A
:107300006C6F673274398439FC01992780E18A9562
:1073100022F0EE0FFF1FD8F777CE9A9575CE01FFBA
:107320002D007F39933909911991081B190BC80158
:107330006BCE01FF2B008F399D3909911991800F78
:10734000911F62CE02FF6D2A9939A6398C0189916D
:1073500099919C0131027001209FC0013003F30814
:10736000900DE11CF31C1203F308900DE11CF31CBB
:107370009A938A93C70148CE06FF756D2F6D6F648F
:10738000A239C2397C01299139910991199140E1C1
:107390005527000F111F221F331F551F2E153F05A4
:1073A000520518F003952E193F094A9589F73A932B
:1073B0002A93C80129CE03FF756D2A00BC39E03934
:1073C0008C0189919991809FF00122273327909F0A
:1073D000F00D211D331D819FF00D211D331D919F47
:1073E000200D311DCF019A938A93C9010DCE06FF5E
:1073F000696E76657274DB39FD398095909504CE9F
:1074000002FF322FF739043A95958795FDCD02FF9B
:10741000322A003A0B3A880F991FF6CD03FF616EAE
:107420006400073A133A0991199180239123ECCD16
:1074300002FF6F720E3A1C3A09911991802B912B21
:10744000E3CD03FF786F7200183A263A099119913B
:1074500080279127D9CD02FF312B213A2F3A01966F
:10746000D3CD02FF312D2B3A353A0197CDCD07FF11
:107470003F6E656761746500313A003820393538F0
:10748000423A263E1F3806FF6C7368696674373AC5
:10749000493AFC018991999131971AF0880F991F07
:1074A000FBCFB2CD06FF727368696674433A583AEF
:1074B000FC018991999131971AF096958795FBCFA8
:1074C000A3CD02FF2B21523A653AFC018991999193
:1074D00020813181820F931F8083918389919991BB
:1074E00093CD03FF72704000613A763A9A938A9383
:1074F0008DB79EB789CD03FF72702100713A803A33
:107500002FB7F8948DBF9EBF2FBF899199917CCDE5
:1075100003FF737040007B3A8D3A9A938A93CE01B1
:1075200073CD03FF73702100883A963AEC0189917C
:1075300099916ACD9B3A29913991E0E83E0F821BDF
:10754000930B3F932F939F938F93899199915CCD48
:1075500001FF6900913AAC3A9A938A938F919F9177
:10756000EF91FF91FF93EF939F938F938E0F9F1F48
:107570004BCDBA3AEF91FF91E80FF91F899199919C
:107580001BF0FF93EF936BCD0F911F9111963CCDA4
:10759000C93AEF91FF913196BBF3F3CF06FF756EB9
:1075A0006C6F6F70A83AD43A1F910F911F910F9191
:1075B0002BCD06FF636D6F76653ECE3ADF3ABF9303
:1075C000AF93E991F991A991B991092F082B41F055
:1075D000E80FF91FA80FB91F1E9112930197E1F749
:1075E000AF91BF91899199910FCD02FF3E3CD93A5D
:1075F000F93A092F982F802F07CD03FF75704000AF
:10760000F53A023B9A938A93C201FECC03FF757050
:107610002100FD3A0B3B2C0189919991F5CC03FF98
:10762000316D7300063B143BE0EAFFE03197F1F760
:10763000EBCC03FF323E72000F3B1E3BFC018991F5
:1076400099919F938F93FF93EF9389919991DCCCBC
:1076500003FF32723E00193B2D3B9A938A93EF91C0
:10766000FF918F919F919A938A93CF01CDCC02FF86
:107670002165283B3B3BFC01899199912FB7F894F8
:1076800028D000B5081709F00BD0319622D000B5EC
:10769000091711F0892F04D02FBF89919991B4CC8B
:1076A000F999FECF07B700FDFDCFF2BDE1BD80BD6A
:1076B000FA9AF99A089502FF4065373B5F3B2FB76E
:1076C000F894FC0106D080B5319603D090B52FBF59
:1076D0009BCCF999FECFF2BDE1BDF89A089502FF67
:1076E00021695B3BFE3D66009F3DA93D09FF2821C6
:1076F000692D6E72777729006F3B7E3B1FB71F9312
:10770000F8949C0189919991AF93BF93CF93DF93A4
:1077100009D0DF91CF91BF91AF91899199911F913C
:107720001FBF72CC10D0E094F0948E219F21982B33
:1077300019F0F90102E020D0F90104E01DD0F901AF
:1077400000E11AD00895F901E07CFF7FEF01A0E489
:10775000B0E0FE01EE0FFF1F45915591FE01E217CB
:10776000F30711F00A0102C07A010C01002704D0CE
:107770002196119771F70895F999FECF17B710FD6B
:10778000FDCFEE0FFF1F016007BFE895089502FFD0
:107790004069763BCB3BFC01EE0FFF1F8591959135
:1077A00033CC03FF6E3E7200C73BD63BFC01082F73
:1077B000899199919F938F930A95D1F7EF93FF93B6
:1077C0008991999121CC03FF6E723E00D13BE83B39
:1077D0009A938A93FF91EF910E2F8F919F919A9395
:1077E0008A930A95D1F7CF010FCC03FF64322A00A8
:1077F000E33BFA3B09911991000F111F881F991F54
:107800001A930A9301CC03FF64322F00F53B083C26
:107810000991199195958795179507951A930A934C
:10782000F3CB02FF642B033C153C29913991E9907D
:10783000F99049915991240F351F8E1D9F1D3A9340
:107840002A93E2CB02FF642D113C263C2991399109
:10785000E990F99049915991421B530BE80AF90AB2
:107860005A934A93C701D0CB07FF64696E7665725D
:107870007400223C3B3C09911991809590950095AC
:1078800010951A930A93C0CB04FF2F6D6F64343C9C
:10789000493C9C0109911991412F432717FF04C0CE
:1078A000109500950F5F1F4F37FF04C0309520954E
:1078B0002F5F3F4FEE24FF1851E1001F111F5A9513
:1078C00039F447FF04C0109500950F5F1F4F0BC0A0
:1078D000EE1CFF1CE21AF30A20F4E20EF31E889459
:1078E000ECCF0894EACFFA92EA92C8018DCB03FF5D
:1078F00061627300443C0038B0383D3A1F3804FFE1
:107900007069636B773C00382E3AC33E8C3A9C39E1
:1079100078381F3805FF63656C6C2B007F3C903C0A
:10792000029672CB04FF2B696E748A3C973C789464
:107930006BCB04FF2D696E74923C9E3CF89464CB33
:1079400004FF696E7421993C00383C3800009C3972
:107950003A3B1F3804FF696E7440A03C00383C3845
:1079600000009C395E3B1F3808FF696E742D7472ED
:107970006170AA3CBB3CB82E8991999145CB0038E7
:10798000AE3C2938C43C1F38C53C01D03DCB1895CE
:107990000038D0030300206F6B0003041F3803FF7F
:1079A0002E6F6B00B43CFE3D1C00C73DD33D00383C
:1079B000D00302003E20A03F03041F3806FF2E72B2
:1079C00065616479CF3CFE3D2000C73DD33D003862
:1079D000D0030400203F3F200304BC3E7838FE382B
:1079E000403F8503E13E78388503F538BC3E80385A
:1079F0001F3806FF2E6572726F72DE3CFE3D1E0060
:107A0000C73DD33D04FF71756974F93C00385C08CB
:107A100063088038D505953AE2057F3AF108B63E0D
:107A2000783819393538153DE33CE9043538273DB8
:107A30003C3830066F3DB8383538273DB0383C38D3
:107A4000FEFF6D393538253DFE3C2E38073DD33CD1
:107A50002E380F3D05FF706175736500023DFE3DD8
:107A60009201B33DBD3D04FF636F6C642A3D383D18
:107A7000A4B622243324BB2424BEE0E0F1E021920A
:107A8000E030E9F7F930D9F7E4E9F1E02F010FEF41
:107A90000DBF048318E01EBF1583CFEAC683D8E06C
:107AA000D783A9E5BDE3B0CA04FF7761726D333DAA
:107AB0000038A2023C38A5013C382F3DDE3DF108DC
:107AC0005B3F063D07FF68616E646C657200543D64
:107AD00057380A0005FF636174636800623D00382F
:107AE0008C3AFE38683D7838FE38753A683D803803
:107AF0002938F538683D8038F538D83853391F387B
:107B000005FF7468726F77006A3D0038B038193924
:107B100035388C3DD8381F38683D78387F3AF5388D
:107B2000683D8038F538C338FE38953AD838F5388E
:107B30001F3807FF4564656665724000803D003868
:107B4000CA3B5E3B1F3807FF4564656665722100CE
:107B5000993D0038CA3B3A3B1F3807FF52646566BF
:107B600065724000A33D0038CA3B78381F3807FFD4
:107B70005264656665722100AD3D0038CA3B8038AD
:107B80001F3807FF5564656665724000B73D0038D1
:107B9000CA3B013B9C3978381F3807FF556465663E
:107BA00065722100C13D0038CA3B013B9C398038D9
:107BB0001F3806FF646566657221CD3D0038CF3FF2
:107BC000B038D101D101CA3B29381F3806FF64659E
:107BD00066657240D93D0038CF3FB038D101CA3B0D
:107BE00029381F3807FF2864656665722900E63D5D
:107BF0000038390799085C07FE3D1F380E94B2081B
:107C0000B038D101CA3B293829381F3802FF752EF8
:107C1000F23D003853398D031F3803FF752E720073
:107C2000063E00385339C33896031F3805FF752FB9
:107C30006D6F64000D3E0038FE385339F538C13998
:107C40001F3806FF6E6567617465163E0038FC39A3
:107C50002E3A1F3801FF2F00213E0038483CEF38F4
:107C60001F3803FF6D6F64002A3E0038483CD83847
:107C70001F3803FF6D696E00313E0038C83E77390A
:107C80003538433EC338D8381F3803FF6D6178005C
:107C9000393E0038C83E6D3935384F3EC338D83884
:107CA0001F3806FF77697468696E453E0038CE3824
:107CB0009239FE389239F5385B391F380DFF7368F9
:107CC0006F772D776F72646C69737400513E003862
:107CD0003C386D3EC338DA061F380038F506030419
:107CE000AD3F4A391F3805FF776F726473005E3EFF
:107CF00000383C384C005E3B673E1F3802002E22A5
:107D0000733E0038893E5C0703041F38020073226B
:107D10007E3E00383C3822008E05B63E7838353835
:107D2000923E88071F3804FF66696C6C863E0038F7
:107D3000E038E038B8383538A43E983F9A3AB03841
:107D4000AB3A8C38C83A9F3ED8381F3805FF665F7B
:107D500063707500933E00383C3800243C38F400D2
:107D60001F3805FF737461746500A63E4738C00173
:107D700004FF62617365B13E57380C0005FF63650F
:107D80006C6C7300B83E0B3A04FF32647570BE3EF3
:107D90000038CE38CE381F3805FF3264726F70005D
:107DA000C43E0038D838D8381F3804FF7475636B68
:107DB000CC3E0038C338CE381F3803FF3E696E0012
:107DC000D53E5738180003FF70616400DD3E00386F
:107DD000223F3C3828009C391F3804FF656D6974C8
:107DE000E33EFE3D0E00C73DD33D05FF656D697462
:107DF0003F00ED3EFE3D1000C73DD33D03FF6B65E8
:107E00007900F53EFE3D1200C73DD33D04FF6B6592
:107E1000793FFE3EFE3D1400C73DD33D02FF647036
:107E2000063F6E3836009F3DA93D05FF65686572C7
:107E300065000E3F6E383A009F3DA93D04FF68651E
:107E40007265153F6E3838009F3DA93D05FF616C96
:107E50006C6F74001E3F0038223F9C39BF01233FE6
:107E60001F3803FF62696E00263F0038EA3FBC3EC0
:107E700080381F3807FF646563696D616C00313FAE
:107E800000383C380A00BC3E80381F3803FF686564
:107E900078003A3F00383C381000BC3E80381F382C
:107EA00002FF626C463F4738200007FF7475726E10
:107EB0006B657900503FFE3D42009F3DA93D07FFA5
:107EC000746F757070657200553F0038B0383C387B
:107ED00061003C387B00563E3538713F3C38DF004E
:107EE000123A1F3807FF746F6C6F776572005F3F3F
:107EF0000038B0383C3841003C385B00563E3538DD
:107F0000843F3C3820001B3A1F3806FF3F737461E2
:107F1000636B723F0038ED0520393538923F3C38AD
:107F2000FCFF853D1F3806FF626F756E6473853FE9
:107F30000038CE389C39C3381F3802FF6372933F34
:107F400000383C380D00F13E3C380A00F13E1F3845
:107F500005FF7370616365009D3F0038533FF13E3C
:107F60001F3806FF737061636573A83F003853398B
:107F7000493EB0383538C03FAD3F343A2E38B93F6E
:107F8000D8381F3803FF733E6400B13F0038B03863
:107F900020391F3805FF3E626F647900C23F2F3AD7
:107FA0000800326C69746572616CCA3F0038C3386E
:107FB0007D077D071F3801FF3D00D03F0038923913
:107FC00019391F3801FF3100DB3F4738010001FF3D
:107FD0003200E23F4738020002FF2D31E73F4738C9
:027FE000FFFFA1
:00000001FF
