:020000020000FC
:02000400EDD03D
:02000800EBD03B
:02000C00E9D039
:02001000E7D037
:02001400E5D035
:02001800E3D033
:02001C00E1D031
:02002000DFD02F
:02002400DDD02D
:02002800DBD02B
:02002C00D9D029
:02003000D7D027
:02003400D5D025
:02003800D3D023
:02003C00D1D021
:02004000CFD01F
:02004400CDD01D
:02004800CBD01B
:02004C00C9D019
:02005000C7D017
:02005400C5D015
:02005800C3D013
:02005C00C1D011
:02006000BFD00F
:02006400BDD00D
:02006800BBD00B
:02006C00B9D009
:02007000B7D007
:02007400B5D005
:02007800B3D003
:02007C00B1D001
:02008000AFD0FF
:02008400ADD0FD
:10008800ABD000400010FFFF23000B0041546D650A
:10009800676131323834500007FF3E72782D62753F
:1000A800660000005700082F10911001E0E0F1E011
:1000B800E10FF31D008313951F70109310018991B0
:1000C80099910C9404F006FF6973722D72785000B0
:1000D80000F045F0C600A9F0C2F045F00300AAFD03
:1000E8003EF0770073FA560025F000F045F06C00FA
:1000F80045F02800A1F445F0000145F0160065F12F
:10010800E9F425F006FF72782D627566670000F045
:10011800A6003EF08C0045F01101A9F0C2F045F0B0
:100128000001AEF1A9F0D5F040F245F00F0024F23D
:1001380045F011019EF025F007FF72783F2D62759A
:100148006600860000F06BFA45F01101A9F045F051
:100158001001A9F024F125F007FF74782D706F6C59
:100168006C00A00000F0C4003EF0B70045F0C600E7
:100178009EF025F008FF74783F2D706F6C6CB0000E
:1001880000F06BFA45F0C000A9F045F0200024F219
:1001980025F004FF75627272BE0080F09E00CEFBEF
:1001A800D8FB06FF2B7573617274CD0000F045F023
:1001B800980045F0C1009EF045F0060045F0C200E9
:1001C8009EF0D100C2F00AF345F0C5009EF045F05C
:0801D800C4009EF0790025F03F
:040000000C9474FAEE
:1001E0000A920FB60A920F900F900A94B02CFF93C8
:1001F000EF93E2E1F1E00694E00DF31D008003943B
:100200000082EF91FF9109900FBE0990089502FFBF
:100210006D2BD50000F092FD2FF425F003FF7564DF
:100220002A00070100F0C2F010F1F1F1EAF0D5F078
:1002300007F1F1F1F2F0AEF125F004FF756D617890
:100240000E0100F07FF56DF13EF02701D5F0EAF0E8
:1002500025F004FF756D696E1D0100F07FF578F1E2
:100260003EF03301D5F0EAF025F000F045F00080D3
:1002700024F22BF13EF03E01B1FD25F05CF125F0BA
:100280000AFF6E616D653E666C616773290100F05F
:10029000E2F345F000FF24F225F006FF6E65776576
:1002A0007374400153F0350106FF6C61746573741B
:1002B0004D0153F0390108FF2863726561746529A7
:1002C000540100F0CEF9B802C2F0520178F592F074
:1002D0009D02520192F025F001005C005B0100F0EC
:1002E000B5F901F198F592F025F0010028006C01B4
:1002F00000F045F02900A1F988F525F007FF636FAC
:100300006D70696C6500750100F007F1C2F0C5FB06
:1003100010F1E2F38F0125F001FF2C007E0100F0C7
:10032000C8F584F3C8F540F2B3FBC9F525F0030026
:100330005B275D008C0100F024F8A50125F0070083
:100340006C69746572616C00970100F0840145F07E
:100350008F0125F00800736C69746572616C9F01F0
:1003600000F0840187F795F725F000F0C8F58401C7
:10037000FFFF25F000F071FBC8F5D5F084F325F000
:1003800000F0C8F525F000F071FB8F0125F00500A5
:10039000616865616400AA0100F0840134F0B50170
:1003A00025F002006966C70100F084013EF0B50146
:1003B00025F00400656C7365D10100F0840134F010
:1003C000B501D5F0BA0125F004007468656ED90155
:1003D00000F0BA0125F00500626567696E00E4016E
:1003E00000F0C00125F005007768696C6500EB013D
:1003F00000F0D401D5F025F00600726570656174D7
:10040000F30100F01502E80125F00500756E74692E
:100410006C00FC0100F045F03EF08F01C30125F0B7
:100420000500616761696E00050200F0840134F027
:10043000C30125F00200646F100200F08401ACF2E9
:10044000C00165F1780225F004006C6F6F701A022C
:1004500000F08401DAF25F0225F005002B6C6F6F6B
:100460007000240200F08401CBF25F0225F0050049
:100470006C65617665002D0200F08401E5F2CC0127
:10048000780225F003003F646F00370200F084011A
:100490004E02D4011D02D5F0780225F000F07FF560
:1004A000AAFDC2F010F13EF0560288F507F10EF2F7
:1004B00025F007FF656E646C6F6F7000420200F0FC
:1004C000C3016C02CAF03EF06802E80134F0610238
:1004D00025F002FF6C3E590200F08B028AF08AF090
:1004E00045F0FEFF8B0276F225F002FF3E6C6902BA
:1004F00000F0B6FD8B0276F28B028AF092F025F0C6
:1005000003FF6C703000750280F05200CEFBD8FB08
:1005100002FF6C70800253F03B0106FF637265615D
:100520007465880200F06101C102840160F025F069
:1005300006FF6865616465728D0200F0C8F510F110
:1005400010F1C2F039F13EF0AF02C2F045F000FF09
:100550002DF299F707F170F38F0107F125F045F0BF
:10056000F0FF5BF807FF776C73636F7065009802AC
:100570002DFC4E00CEFBD8FB06FF72657665616CE4
:10058000B20200F0520178F58AF0CAF03EF0CC02D7
:1005900052018AF0D5F04CF325F00500646F6573C5
:1005A0003E00BC0200F08401E50284010E94840147
:1005B000DA0225F09A938A93CB0101967F916F918D
:1005C000BF93AF93DB010C9404F000F007F15201EC
:1005D00078F58AF070F398FC84F325F001FF3A0077
:1005E000CD0200F06101FC02EAF025F007FF3A6E4F
:1005F0006F6E616D6500EE0200F0C8F5C2F0590142
:1006000092F0840100F0110325F001003B00F60296
:1006100000F0840125F01903C10225F001FF5D00FF
:10062000050300F0B1FD65F592F025F001005B00D7
:100630000E0300F065F165F592F025F008FF766194
:10064000726961626C65160300F0D9F53003B6FD7E
:10065000E2F525F008FF636F6E7374616E741E031C
:1006600000F06101C102840153F08F0125F004FF05
:10067000757365722A0300F06101C102840166F09E
:100680008F0125F00700726563757273650037038B
:1006900000F059018AF08F0125F009FF696D6D6541
:1006A000646961746500420300F0F60370F3C2F000
:1006B000E2F345F0FF7F24F2D5F084F325F0060045
:1006C0005B636861725D4D0300F0840145F004F9DD
:1006D0008F0125F0060061626F7274225F0300F0E3
:1006E000DBF48401810325F005FF61626F72740001
:1006F0006A0300F05CF15BF806FF3F61626F7274A1
:10070000740300F0F2F03EF08703BAF7790388F53E
:1007100025F009FF6765742D737461636B007C03BA
:1007200000F0C2F078F5D5F070F3C2F010F165F189
:10073000D5F04E023EF0A703ACF2BDF246F272F5E0
:10074000E0F0AEF170F3D5F05CF1CBF29D0388F5EB
:1007500007F125F009FF7365742D737461636B00F5
:10076000890300F0E0F032F13EF0B90345F0FCFF00
:100770005BF87FF54CF3D5F065F14E023EF0C60311
:10078000ACF278F590F54CF3DAF2C103EAF025F01B
:1007900009FF6D61702D737461636B00AA0300F033
:1007A000C2F078F5D5F070F372F589FD4E023EF097
:1007B000EB03ACF2BDF270F3D5F010F119F12FF0AC
:1007C000CAF03EF0E70307F1EAF0E5F225F007F1A1
:1007D000B6FDCBF2DA03EAF065F125F00BFF6765B1
:1007E000742D63757272656E7400C80300F045F075
:1007F000580070F325F009FF6765742D6F7264650A
:100800007200EE0300F045F05C00900325F009FF54
:100810006366672D6F7264657200FB0353F05C00C2
:1008200007FF636F6D706172650007041704BF9363
:10083000AF938C0189919991DC01899199919C01E7
:1008400089919991FC01ED90F190EF1451F40A9582
:1008500019F02A95C1F701C02A95022B11F48827B7
:1008600002C08FEF00C0982FAF91BF910C9404F09D
:1008700007FF6E66613E6C666100100400F08CFC40
:1008800040F215F2AEF125F00BFF7365742D637520
:100890007272656E7400380400F045F058004CF335
:1008A00025F008FF776F72646C697374440400F07C
:1008B000D1F565F1E0F04CF3C2F078F5B3FBD2F579
:1008C00025F00EFF666F7274682D776F72646C6925
:1008D0007374510453F05A0009FF7365742D6F72DD
:1008E00064657200610400F045F05C00B10325F01E
:1008F0000FFF7365742D7265636F676E697A657239
:1009000073006C0400F045F06E00B10325F00FFF9A
:100910006765742D7265636F676E697A65727300BF
:10092000780400F045F06E00900325F004FF636F3B
:100930006465870400F06101C102C8F5C5FB8F0141
:1009400025F008FF656E642D636F6465960400F002
:1009500084010C94840104F025F008FF286D617275
:100960006B657229A10480F07A00CEFBD8FB0800E9
:10097000706F7374706F6E65AD0400F0CEF9E6FAB7
:10098000F1FAC2F010F1C5FBC5FBE2F32FF007F15D
:10099000C5FBE2F38F0125F00BFF6170706C74757D
:1009A000726E6B657900B70400F0DA0093F47EFB99
:1009B00025F002FF2E73CC0400F0BBFA62F4FCF7C2
:1009C000BBFA65F14E023EF0EB04ACF2BDF2C9F4A5
:1009D00062F4DAF2E60425F00AFF6275696C642DB0
:1009E000696E666FD90400F087F7150041707220B8
:1009F00033302C20323031372032303A31303A31F6
:100A0000340025F005FF706C61636500EC0400F0B4
:100A10007FF59EF040F2D5F017FD25F004FF776FCB
:100A20007264020500F0D2F9D9F50705D9F525F071
:020000021000EC
:10E00000BF93AF93DB011196B21499F4FD0155272C
:10E01000EE0FFF1F551F5BBF679177911196FB01B4
:10E020005527EE0FFF1F551F5BBF07911791F80192
:10E0300009949A938A938B2D9927BB246CEB74EFE8
:10E04000EECF04FF657869740E0526F0AF91BF919D
:10E05000DBCF07FF657865637574650021F030F0EC
:10E06000BC0189919991DBCF35F0FD015527EE0F69
:10E07000FF1F551F5BBFA791B791C6CF3FF0982BED
:10E080008991999191F31196BFCF46F09A938A9313
:10E09000FD015527EE0FFF1F551F5BBF879197911D
:10E0A0001196B2CF53F09A938A93FB01319655277C
:10E0B000EE0FFF1F551F5BBF87919791A5CF60F0B3
:10E0C0009A938A93CB0101969FCF66F09A938A9395
:10E0D000FB0131965527EE0FFF1F551F5BBF879140
:10E0E0009791840D951D90CF07FF2876616C75651B
:10E0F000290029F000F06101C102840180F025F0BF
:10E100000E94DA02C2F0C5FBE2F32FF025F001FF16
:10E11000400074F08BF0FC018191919175CF01FF6B
:10E12000210087F093F0FC0189919991918380837C
:10E130008991999169CF02FF63218FF09FF0FC01D3
:10E14000899199918083899199915ECF02FF634073
:10E150009BF0AAF0FC019927808156CF02FF407501
:10E16000A6F000F013F3AEF18AF025F002FF21755E
:10E17000AEF000F013F3AEF192F025F003FF6475FA
:10E180007000B6F0C3F09A938A933ECF04FF3F64C9
:10E190007570BEF0CBF0082F092B11F09A938A937B
:10E1A00033CF04FF73776170C6F0D6F08C0189918C
:10E1B00099911A930A9328CF04FF6F766572D1F074
:10E1C000E1F09A938A938A819B811ECF04FF647247
:10E1D0006F70DCF0EBF08991999116CF03FF726FAD
:10E1E0007400E6F0F3F08C012991399189919991AD
:10E1F0003A932A931A930A9307CF03FF6E6970002C
:10E20000EEF002F1229600CF02FF723EFDF008F11F
:10E210009A938A938F919F91F7CE02FF3E7204F1F9
:10E2200011F19F938F9389919991EECE02FF7240E5
:10E230000DF11AF19A938A938F919F919F938F93E7
:10E24000E3CE02FF3C3E16F100F0AAFD2BF125F0D3
:10E2500002FF303D21F12CF1982BD1F530C002FFA7
:10E26000303C28F133F197FD2AC032C002FF303E26
:10E270002FF13AF1821593055CF151F120C003FFB3
:10E2800064303E0036F144F18215930589919991ED
:10E2900082059305ECF0E1F012C003FF64303C000E
:10E2A0003FF152F1229697FD0C945FF10C9468F1C6
:10E2B00004FF747275654DF15DF19A938A938FEF47
:10E2C0009FEFA2CE01FF300058F166F19A938A9336
:10E2D000C1019ACE02FF753C62F16EF1299139912C
:10E2E00082179307A8F3A1F3EACF02FF753E6AF104
:10E2F00000F0D5F06DF125F001FF3C0075F180F1E3
:10E3000029913991281739071CF7D9CF01FF3E0011
:10E310007CF18AF12991399128173907CCF2C1F2A1
:10E32000CECF04FF6C6F673286F196F1FC0199271E
:10E3300080E18A9522F0EE0FFF1FD8F765CE9A95FF
:10E3400063CE01FF2D0091F1A5F109911991081BF0
:10E35000190BC80159CE01FF2B00A1F1AFF10991B2
:10E360001991800F911F50CE02FF6D2AABF1B8F1C9
:10E370008C01899199919C0131027001209FC0010B
:10E380003003F308900DE11CF31C1203F308900D09
:10E39000E11CF31C9A938A93C70136CE06FF756D74
:10E3A0002F6D6F64B4F1D4F17C01299139910991F9
:10E3B000199140E15527000F111F221F331F551FD0
:10E3C0002E153F05520518F003952E193F094A9561
:10E3D00089F73A932A93C80117CE03FF756D2A0077
:10E3E000CEF1F2F18C0189919991809FF001222761
:10E3F0003327909FF00D211D331D819FF00D211DAE
:10E40000331D919F200D311DCF019A938A93C9012D
:10E41000FBCD06FF696E76657274EDF10FF28095A3
:10E420009095F2CD02FF322F09F216F2959587955D
:10E43000EBCD02FF322A12F21DF2880F991FE4CDB4
:10E4400003FF616E640019F225F20991199180238E
:10E450009123DACD02FF6F7220F22EF20991199109
:10E46000802B912BD1CD03FF786F72002AF238F206
:10E470000991199180279127C7CD02FF312B33F2E3
:10E4800041F20196C1CD02FF312D3DF247F20197D5
:10E49000BBCD07FF3F6E65676174650043F200F016
:10E4A00032F13EF054F259F625F006FF6C736869BC
:10E4B000667449F25BF2FC018991999131971AF0E7
:10E4C000880F991FFBCFA0CD06FF72736869667431
:10E4D00055F26AF2FC018991999131971AF096955B
:10E4E0008795FBCF91CD02FF2B2164F277F2FC01DF
:10E4F0008991999120813181820F931F808391832B
:10E500008991999181CD03FF7270400073F288F276
:10E510009A938A938DB79EB777CD03FF72702100CF
:10E5200083F292F22FB7F8948DBF9EBF2FBF8991CF
:10E5300099916ACD03FF737040008DF29FF29A9318
:10E540008A93CE0161CD03FF737021009AF2A8F285
:10E55000EC018991999158CDADF229913991E0E87A
:10E560003E0F821B930B3F932F939F938F93899121
:10E5700099914ACD01FF6900A3F2BEF29A938A9362
:10E580008F919F91EF91FF91FF93EF939F938F93C3
:10E590008E0F9F1F39CDCCF2EF91FF91E80FF91F3D
:10E5A000899199911BF0FF93EF935FCD0F911F918C
:10E5B00011962ACDDBF2EF91FF913196BBF3F3CFA9
:10E5C00006FF756E6C6F6F70BAF2E6F21F910F91D5
:10E5D0001F910F9119CD06FF636D6F76653EE0F2D6
:10E5E000F1F2BF93AF93E991F991A991B991092FF4
:10E5F000082B41F0E80FF91FA80FB91F1E911293C5
:10E600000197E1F7AF91BF9189919991FDCC02FFFC
:10E610003E3CEBF20BF3092F982F802FF5CC03FF34
:10E620007570400007F314F39A938A93C201ECCCFF
:10E6300003FF757021000FF31DF32C01899199914F
:10E64000E3CC03FF316D730018F326F3E0EDF7E040
:10E650003197F1F7D9CC03FF323E720021F330F34A
:10E66000FC01899199919F938F93FF93EF938991E7
:10E670009991CACC03FF32723E002BF33FF39A9379
:10E680008A93EF91FF918F919F919A938A93CF01F3
:10E69000BBCC02FF21653AF34DF3FC0189919991BE
:10E6A0002FB7F89428D000B5081709F00BD0319691
:10E6B00022D000B5091711F0892F04D02FBF8991FE
:10E6C0009991A2CCF999FECF07B700FDFDCFF2BD1D
:10E6D000E1BD80BDFA9AF99A089502FF406549F3B9
:10E6E00071F32FB7F894FC0106D080B5319603D0B2
:10E6F00090B52FBF89CCF999FECFF2BDE1BDF89A54
:10E70000089502FF21696DF32DFC7800CEFBD8FB44
:10E7100009FF2821692D6E727777290081F390F324
:10E720001FB71F93F8949C0189919991AF93BF9360
:10E73000CF93DF9309D0DF91CF91BF91AF918991B2
:10E7400099911F911FBF60CC10D0E094F0948E215E
:10E750009F21982B19F0F90102E023D0F90104E080
:10E7600020D0F90100E11DD00895F901E078FF7F84
:10E77000EF01A0E8B0E0FE015527EE0FFF1F551F87
:10E780005BBF47915791FE01E217F30711F00A01B1
:10E7900002C07A010C01002704D02196119759F785
:10E7A0000895F999FECF17B710FDFDCF5527EE0F4D
:10E7B000FF1F551F5BBF016007BFE895089502FF6B
:10E7C000406988F3E3F3FC015527EE0FFF1F551F47
:10E7D0005BBF8791979118CC03FF6E3E7200DFF309
:10E7E000F1F3FC01082F899199919F938F930A95DA
:10E7F000D1F7EF93FF938991999106CC03FF6E7245
:10E800003E00ECF303F49A938A93FF91EF910E2F5D
:10E810008F919F919A938A930A95D1F7CF01F4CB68
:10E8200003FF64322A00FEF315F409911991000FD9
:10E83000111F881F991F1A930A93E6CB03FF6432B6
:10E840002F0010F423F40991199195958795179548
:10E8500007951A930A93D8CB02FF642B1EF430F469
:10E8600029913991E990F99049915991240F351FD7
:10E870008E1D9F1D3A932A93C7CB02FF642D2CF463
:10E8800041F429913991E990F99049915991421BAC
:10E89000530BE80AF90A5A934A93C701B5CB07FF0D
:10E8A00064696E76657274003DF456F409911991AD
:10E8B00080959095009510951A930A93A5CB02FF29
:10E8C000752E4FF400F065F144F725F003FF752E27
:10E8D00072005FF400F065F1D5F04DF725F00DFF03
:10E8E00073686F772D776F72646C6973740066F468
:10E8F00000F045F07EF4D5F071FC25F000F08CFCC2
:10E90000BAF7FCF75CF125F005FF776F72647300CE
:10E910006FF400F045F05E0070F378F425F004FF2A
:10E920002B696E7484F494F478946ECB04FF2D6993
:10E930006E748FF49BF4F89467CB04FF696E7421B6
:10E9400096F400F045F00000AEF14CF325F004FF22
:10E95000696E74409DF400F045F00000AEF170F374
:10E9600025F008FF696E742D74726170A7F4B8F415
:10E97000B82E8991999148CB00F0ABF42FF0C1F4F7
:10E9800025F0C2F401D040CB189504FF7069636B89
:10E99000B1F400F040F272F59EF2AEF18AF025F08B
:10E9A00002002E22C5F400F0DBF48401BAF725F052
:10E9B00002007322D0F400F045F02200A1F965F5C1
:10E9C0008AF03EF0E4F4B00125F004FF66696C6C57
:10E9D000D8F400F0F2F0F2F0CAF03EF0F6F489FD5F
:10E9E000ACF2C2F0BDF29EF0DAF2F1F4EAF025F0FA
:10E9F0000BFF656E7669726F6E6D656E7400E5F47F
:10EA000053F0560009FF776F72646C69737473007A
:10EA1000000000F045F0080025F004FF2F7061644D
:10EA200002F500F09EF29EF5A4F125F005FF2F6897
:10EA30006F6C64000DF500F09EF5D9F5A4F125F09A
:10EA40000AFF666F7274682D6E616D6516F500F0D1
:10EA500087F70700616D666F7274680025F007FF25
:10EA600076657273696F6E0020F500F045F0410025
:10EA700025F003FF637075002FF500F045F04900A5
:10EA8000E6F725F008FF6D63752D696E666F39F541
:10EA900000F045F0450025F005FF2F757365720005
:10EAA00042F500F045F02C0025F005FF665F63702D
:10EAB0007500F8F400F045F0001245F07A0025F0FA
:10EAC00005FF73746174650055F553F03D0104FF53
:10EAD0006261736560F566F00C0005FF63656C6C40
:10EAE000730067F51DF205FF63656C6C2B006DF517
:10EAF00079F5029689CA04FF3264757073F500F0E7
:10EB0000E0F0E0F025F005FF3264726F70007BF5F5
:10EB100000F0EAF0EAF025F004FF7475636B83F50A
:10EB200000F0D5F0E0F025F003FF3E696E008CF5B3
:10EB300066F0180003FF7061640094F500F0D9F5E9
:10EB400045F02800AEF125F004FF656D69749AF573
:10EB50002DFC0E00F6FB02FC05FF656D69743F009D
:10EB6000A4F52DFC1000F6FB02FC03FF6B65790099
:10EB7000ACF52DFC1200F6FB02FC04FF6B65793F3F
:10EB8000B5F52DFC1400F6FB02FC02FF6470BDF528
:10EB900080F04800CEFBD8FB05FF65686572650014
:10EBA000C5F580F04C00CEFBD8FB04FF68657265AC
:10EBB000CCF580F04A00CEFBD8FB05FF616C6C6F92
:10EBC0007400D5F500F0D9F5AEF1B3FBDAF525F018
:10EBD00003FF62696E00DDF500F0B6FD6BF592F0A3
:10EBE00025F007FF646563696D616C00E8F500F06E
:10EBF00045F00A006BF592F025F003FF6865780098
:10EC0000F1F500F045F010006BF592F025F002FFF1
:10EC1000626CFDF553F0200007FF7475726E6B6532
:10EC2000790007F62DFC5400CEFBD8FB04FF2F6DB6
:10EC30006F640CF61BF69C0109911991412F432733
:10EC400017FF04C0109500950F5F1F4F37FF04C0DA
:10EC5000309520952F5F3F4FEE24FF1851E1001FA4
:10EC6000111F5A9539F447FF04C0109500950F5FA6
:10EC70001F4F0BC0EE1CFF1CE21AF30A20F4E20E39
:10EC8000F31E8894ECCF0894EACFFA92EA92C80176
:10EC9000BBC905FF752F6D6F640016F600F010F10B
:10ECA00065F107F1D3F125F006FF6E6567617465C4
:10ECB00049F600F00EF240F225F001FF2F0054F665
:10ECC00000F01AF601F125F003FF6D6F64005DF6A8
:10ECD00000F01AF6EAF025F003FF6162730064F6B3
:10ECE00000F0C2F04FF225F003FF6D696E006CF684
:10ECF00000F07FF589F13EF07EF6D5F0EAF025F0E0
:10ED000003FF6D61780074F600F07FF57FF13EF04F
:10ED10008AF6D5F0EAF025F006FF77697468696E27
:10ED200080F600F0E0F0A4F110F1A4F107F16DF12C
:10ED300025F007FF746F7570706572008CF600F037
:10ED4000C2F045F0610045F07B0091F63EF0ABF675
:10ED500045F0DF0024F225F007FF746F6C6F7765D4
:10ED6000720099F600F0C2F045F0410045F05B00FA
:10ED700091F63EF0BEF645F020002DF225F003FF9F
:10ED8000686C6400ACF653F03F0104FF686F6C647C
:10ED9000BFF600F0C3F6C2F08AF046F2C2F010F1FE
:10EDA000D5F092F007F19EF025F002FF3C23C5F666
:10EDB00000F09EF5C3F692F025F001FF2300D5F692
:10EDC00000F06BF58AF05DF7F2F045F00900E0F035
:10EDD0007FF13EF0EEF645F00700AEF145F0300071
:10EDE000AEF1C9F625F002FF2373DDF600F0E0F680
:10EDF0007FF52DF22BF13EF0F7F625F002FF233ED2
:10EE0000F3F600F088F5C3F68AF09EF5E0F0A4F181
:10EE100025F004FF7369676EFEF600F032F13EF0F4
:10EE200014F745F02D00C9F625F003FF642E72009B
:10EE300009F700F010F190F5FFFCD8F6F6F6F2F0C5
:10EE40000DF701F707F1E0F0A4F105F815F825F04A
:10EE500002FF2E7215F700F010F192FD07F119F77D
:10EE600025F002FF642E28F700F065F119F7FCF792
:10EE700025F001FF2E0031F700F092FD34F725F068
:10EE800003FF75642E0039F700F065F14DF7FCF7CC
:10EE900025F004FF75642E7240F700F010F1D8F6EB
:10EEA000F6F601F707F1E0F0A4F105F815F825F002
:10EEB00006FF75642F6D6F6449F700F010F165F17E
:10EEC00019F1D3F107F1D5F010F1D3F107F125F0E5
:10EED00006FF64696769743F58F700F09FF6C2F057
:10EEE00045F0390089F145F0000124F2AEF1C2F09D
:10EEF00045F0400189F145F0070124F2A4F145F005
:10EF00003000A4F1C2F06BF58AF06DF125F000F04D
:10EF100019F1E6F707F1E0F040F215F2AEF140F238
:10EF200010F125F002FF732C68F700F0C2F099F79A
:10EF300025F000F08F01C2F015F290F51CF2A4F15B
:10EF400010F165F14E023EF0ACF7ACF2C2F08AF07F
:10EF50008F0178F5DAF2A6F707F139F13EF0B3F751
:10EF6000C2F0A9F08F01EAF025F005FF697479700D
:10EF7000650092F700F0C2F015F290F51CF2A4F1D2
:10EF800010F165F14E023EF0CEF7ACF2C2F0E2F3C2
:10EF9000C2F0DBF7D7F740F2DAF2C6F707F139F142
:10EFA0003EF0D5F7C2F0E2F3DBF7EAF025F000F02F
:10EFB0000AF3DBF725F000F045F0FF0024F2A8F596
:10EFC00025F006FF69636F756E74B5F700F0C2F047
:10EFD00040F2D5F0E2F325F002FF6372E1F700F0B2
:10EFE00045F00D00A8F545F00A00A8F525F005FF4D
:10EFF000737061636500ECF700F00AF6A8F525F080
:10F0000006FF737061636573F7F700F065F184F6CE
:10F01000C2F03EF00FF8FCF746F234F008F8EAF0E0
:10F0200025F004FF7479706500F800F089FD4E0248
:10F030003EF020F8ACF2BDF2A9F0A8F5DAF21BF828
:10F0400025F001FF270011F800F0CEF9E6FAF1FAF9
:10F05000C2F064FBAAFDD5F0E2F345F099FBAAFDEE
:10F060002DF23EF036F845F0F3FF5BF8EAF025F0BC
:10F0700007FF68616E646C65720021F866F00A0033
:10F0800005FF63617463680038F800F09EF210F1C8
:10F090003EF88AF010F187F23EF892F02FF007F177
:10F0A0003EF892F007F1EAF065F125F005FF74688B
:10F0B000726F770040F800F0C2F02BF13EF062F87A
:10F0C000EAF025F03EF88AF091F207F13EF892F06E
:10F0D00007F1D5F010F1A7F2EAF007F125F005FFEE
:10F0E00063736B69700056F800F010F1C2F03EF0E7
:10F0F00083F8E0F0A9F019F1AAFD3EF083F8B1FD24
:10F10000BFF934F076F807F1EAF025F005FF6373F4
:10F1100063616E006FF800F010F1E0F0C2F0A9F04A
:10F1200019F1AAFD2BF13EF0A0F8D5F046F2D5F08A
:10F13000E0F032F12BF13EF0A0F840F234F08EF81E
:10F1400001F1E0F0A4F107F1EAF025F006FF6163B8
:10F150006365707486F800F0E0F0AEF146F2E0F01E
:10F16000B9F5C2F0ECF82BF13EF0DEF8C2F045F054
:10F170000800AAFD3EF0CEF8EAF0F2F07FF589F142
:10F1800010F1F2F0F2F007F13EF0CCF8E4F846F2BC
:10F1900010F1E0F007F1210134F0DCF8C2F00AF6DA
:10F1A0007FF13EF0D5F8EAF00AF6C2F0A8F5E0F0FB
:10F1B0009EF040F2E0F02D0134F0B0F8EAF001F1F9
:10F1C000D5F0A4F1EFF725F000F045F00800C2F00B
:10F1D000A8F5FCF7A8F525F000F0C2F045F00D0009
:10F1E000AAFDD5F045F00A00AAFD2DF225F006FF94
:10F1F000726566696C6CA6F82DFC1A00F6FB02FCC1
:10F2000004FF63686172F7F800F0CEF9EAF0A9F044
:10F2100025F006FF6E756D62657200F900F06BF502
:10F220008AF010F152F910F165F952F907F12DF257
:10F2300010F1C2F02BF13EF025F988F507F1EAF064
:10F2400007F16BF592F065F125F02FF365F165F1AB
:10F250003EF383F9CAF03EF047F9B1FDAAFD3EF056
:10F260003EF9A9F045F02E00AAFD3EF03FF907F166
:10F270003EF03BF90CFDB6FD34F04DF9EAF088F5AF
:10F2800007F1EAF007F16BF592F065F125F088F5EA
:10F2900007F13EF04CF959F6B1FD07F16BF592F02C
:10F2A0005CF125F000F0E0F0A9F045F02D00AAFD9A
:10F2B000C2F010F13EF05EF9B1FDBFF907F125F0A3
:10F2C00060F00A00100002000A0000F0E0F0A9F06F
:10F2D00045F02300A4F1C2F065F145F0040091F679
:10F2E0003EF07BF960F9AEF1E2F36BF592F0B1FD1F
:10F2F000BFF934F07CF9EAF025F007FF3E6E756D3A
:10F300006265720009F900F0C2F03EF09BF9E0F08E
:10F31000A9F06DF72BF13EF08FF9EAF025F010F12E
:10F3200030FD6BF58AF0120107F10A0130FDB1FDE5
:10F33000BFF934F084F925F005FF70617273650040
:10F340007DF900F010F1B5F998F58AF0BFF907F1F1
:10F350008BF8C2F040F298F576F2B1FDBFF925F0D6
:10F3600006FF736F757263659CF92DFC1600F6FB42
:10F3700002FC07FF2F737472696E6700B0F900F02A
:10F38000F2F0E0F0AEF1F2F0F2F0A4F125F00AFFB5
:10F3900070617273652D6E616D65B9F900F00AF6E2
:10F3A000D2F925F000F010F1B5F998F58AF0BFF91F
:10F3B00019F174F807F18BF87FF5AEF1B5F9EAF0C1
:10F3C000A4F198F592F025F007FF66696E642D7838
:10F3D0007400C7F900F045F0F6F945F05C00CF0382
:10F3E0002BF13EF0F5F988F565F125F000F010F10C
:10F3F0007FF507F13FFCC2F03EF003FA10F101F196
:10F4000001F107F15CF125F000F087F70300206FB0
:10F410006B00BAF725F003FF2E6F6B00E4F92DFCAB
:10F420001C00F6FB02FC00F087F702003E20EFF71D
:10F43000BAF725F006FF2E72656164790BFA2DFC90
:10F440002000F6FB02FC00F087F70400203F3F207D
:10F45000BAF76BF58AF010F1F7F53CF798F58AF0FA
:10F460003CF707F16BF592F025F006FF2E657272FE
:10F470006F721AFA2DFC1E00F6FB02FC04FF717578
:10F48000697435FA00F084028B0292F0A3FAA7F2B5
:10F49000B0FA91F2190365F58AF02BF13EF051FABA
:10F4A0001FFAFCF83EF063FA45F0C9FA45F8CAF0D5
:10F4B0003EF063FAC2F045F0FEFF7FF13EF061FAE4
:10F4C0003AFA34F043FA0FFA34F04BFA05FF706160
:10F4D000757365003EFA2DFC4101E2FBECFB04FF75
:10F4E000636F6C6466FA74FAA4B622243324BB24D6
:10F4F00024BEE0E0F1E02192E030E9F7F134D9F701
:10F50000E3E4F1E02F010FEF0DBF048310E41EBF11
:10F510001583CFEAC683D0E4D783A6E9BAEF0C946B
:10F5200004F004FF7761726D6FFA00F07BFD45F027
:10F5300099FB45F06BFA0DFC190312F642FA03FF32
:10F540007370300091FA80F00600F6FB02FC02FFB7
:10F5500073709FFA66F0080003FF72703000A7FA1C
:10F5600000F0B4FA8AF025F066F0040005FF646547
:10F5700070746800ACFA00F0A3FA9EF2A4F115F2E0
:10F5800046F225F009FF696E746572707265740049
:10F59000B6FA00F0CEF9C2F03EF0DAFAE6FAF1FA85
:10F5A00065F58AF03EF0D5FAC5FBE2F32FF071FB6A
:10F5B00034F0CAFA88F525F010FF666F7274682D72
:10F5C0007265636F676E697A6572C2FA80F0500087
:10F5D000CEFBD8FB09FF7265636F676E697A6500C1
:10F5E000DCFA00F045F0FCFAD5F0CF032BF13EF049
:10F5F000FBFA88F564FB25F000F0F2F0F2F07FF5FD
:10F600002FF3F2F02FF03EF3F2F0C2F064FBAAFD0C
:10F610003EF00DFBEAF065F125F001F101F15CF13E
:10F6200025F006FF64743A6E756DEAFA60F099FB96
:10F63000A501A50107FF64743A646E756D0011FBA6
:10F6400060F099FBA2FDA2FD07FF7265633A6E753B
:10F650006D001AFB00F00EF93EF036FBB1FDAAFD7D
:10F660003EF034FB16FB25F020FB25F064FB25F073
:10F6700008FF7265633A66696E6424FB00F0EAF97C
:10F68000C2F02BF13EF047FBEAF064FB25F04EFBA5
:10F6900025F005FF64743A78740038FB60F052FB83
:10F6A00056FBA2FD00F0EAF02FF025F000F032F159
:10F6B0003EF05CFB8F0125F02FF025F007FF64740E
:10F6C0003A6E756C6C0049FB60F068FB68FB68FB88
:10F6D00000F045F0F3FF5BF806FF3F737461636B66
:10F6E0005EFB00F0BBFA32F13EF079FB45F0FCFF27
:10F6F0005BF825F003FF766572006CFB00F027F5E0
:10F70000BAF7FCF76BF58AF035F5F7F592FDD8F608
:10F71000E0F645F02E00C9F6F6F601F715F86BF5A0
:10F7200092F0FCF73DF5BAF725F004FF6E6F6F70AD
:10F730007AFB00F025F006FF756E7573656495FB26
:10F7400000F09EF2D9F5A4F125F00200746F9BFB46
:10F7500000F024F89BFD65F58AF03EF0B9FB8401CA
:10F76000B3FB8F0125F000F007F1C2F0C5FB10F1EB
:10F77000E2F3C2F0C5FBC5FBE2F32FF025F007FF73
:10F78000692D63656C6C2B00A5FB00F040F225F041
:10F7900007FF4564656665724000BFFB00F0E2F359
:10F7A00070F325F007FF4564656665722100C8FBAC
:10F7B00000F0E2F34CF325F007FF526465666572D2
:10F7C0004000D2FB00F0E2F38AF025F007FF52641C
:10F7D000656665722100DCFB00F0E2F392F025F033
:10F7E00007FF5564656665724000E6FB00F0E2F3D2
:10F7F00013F3AEF18AF025F007FF55646566657274
:10F800002100F0FB00F0E2F313F3AEF192F025F0EB
:10F8100006FF646566657221FCFB00F09BFDC2F08B
:10F82000C5FBC5FBE2F32FF025F006FF64656665B6
:10F83000724008FC00F09BFDC2F0C5FBE2F32FF024
:10F8400025F007FF286465666572290015FC00F045
:10F850006101C10284012DFC25F00E94DA02C2F090
:10F86000C5FBE2F32FF02FF025F00FFF73656172F7
:10F8700063682D776F72646C6973740021FC00F00B
:10F8800010F165F145F054FC07F171FCC2F02BF169
:10F890003EF04EFC88F5EAF065F125F0C2F098FCE8
:10F8A000D5F04701350125F000F010F1EAF07FF5C1
:10F8B00019F18CFCA2FC3EF062FC07F1EAF065F164
:10F8C0005CF125F088F507F165F125F011FF747200
:10F8D0006176657273652D776F72646C69737400FD
:10F8E00035FC00F070F3C2F03EF082FC7FF52FF3A0
:10F8F000D5F02FF03EF3F2F03EF082FC3E04E2F34E
:10F9000034F073FC88F525F00BFF6E616D653E7376
:10F910007472696E670066FC00F0E6F745F0FF0060
:10F9200024F225F007FF6E66613E6366610084FC89
:10F9300000F03E0440F225F008FF69636F6D7061CE
:10F94000726592FC00F010F1E0F007F124F13EF056
:10F95000ADFC88F5EAF05CF125F0D5F065F14E02DA
:10F960003EF0D2FCACF2E0F08AF0D5FCE0F0E2F33D
:10F97000D5FCC2F045F000016DF13EF0C3FCD5F0BE
:10F9800045F0FF0024F224F13EF0CAFC88F55CF15A
:10F99000E5F225F040F2D5F078F5D5F045F002001B
:10F9A000CBF2B3FC88F565F125F000F0C2F045F02C
:10F9B000FF0024F2B2F6D5F00AF345F0FF0024F27E
:10F9C000B2F60AF32DF225F001FF2A009CFC00F0AC
:10F9D000B7F1EAF025F001FF6A00E4FC00F087F2DD
:10F9E00045F00700AEF18AF087F245F00900AEF16C
:10F9F0008AF0AEF125F004FF64616273EBFC00F065
:10FA0000C2F032F13EF005FD0CFD25F007FF646EFB
:10FA1000656761746500FBFC00F055F4B1FD65F1AC
:10FA20002FF425F005FF636D6F76650006FD18FD68
:10FA3000BF93AF93E991F991A991B991092F082B3F
:10FA400021F01D9111930197E1F7AF91BF91899139
:10FA500099910C9404F005FF32737761700012FDE8
:10FA600000F0F2F010F1F2F007F125F00AFF7265F4
:10FA700066696C6C2D7469622BFD00F059FD45F0D0
:10FA80005A00ABF85FFD92F065F198F592F05CF1E9
:10FA900025F00AFF736F757263652D74696236FD18
:10FAA00000F059FD5FFD8AF025F003FF74696200E4
:10FAB00049FD53F06F0104FF2374696255FD53F053
:10FAC000C90106FF65653E72616D5BFD00F065F181
:10FAD000ACF2E0F070F3E0F092F078F5D5F078F564
:10FAE000D5F0DAF269FD88F525F008FF696E6974D2
:10FAF0002D72616D61FD00F045F07C0013F345F05F
:10FB0000220015F266FD25F006FF626F756E6473C4
:10FB100075FD00F0E0F0AEF1D5F025F003FF733E87
:10FB2000640084FD00F0C2F032F125F005FF3E6272
:10FB30006F6479008EFD41F20800326C6974657261
:10FB4000616C96FD00F0D5F0A501A50125F001FF3F
:10FB50003D009CFD00F0A4F12BF125F001FF3100E8
:10FB6000A7FD53F0010001FF3200AEFD53F002008B
:0AFB700002FF2D31B3FD53F0FFFF3B
:00000001FF
