:020000020000FC
:02000400DAD050
:02000800D8D04E
:02000C00D6D04C
:02001000D4D04A
:02001400D2D048
:02001800D0D046
:02001C00CED044
:02002000CCD042
:02002400CAD040
:02002800C8D03E
:02002C00C6D03C
:02003000C4D03A
:02003400C2D038
:02003800C0D036
:02003C00BED034
:02004000BCD032
:02004400BAD030
:02004800B8D02E
:02004C00B6D02C
:02005000B4D02A
:02005400B2D028
:02005800B0D026
:02005C00AED024
:02006000ACD022
:10006400AAD00008000400701A000A0041546D650B
:1000740067613332385007FF3E72782D627566002F
:1000840000004400082F10911001E0E0F1E0E10FBE
:10009400F31D008313951F7010931001899199919A
:1000A4000C94043806FF6973722D72783D00003891
:1000B4003C38C6009738B0383C380300DE3F35384A
:1000C4006400373D43001F3800383C3859003C3841
:1000D4002400A43C3C3800013C3816005339973EB8
:1000E4001F3806FF72782D6275665400003893003D
:1000F400353879003C3811019738B0383C38000164
:100104009C399738C3382E3A3C380F00123A3C38A1
:1001140011018C381F3807FF72783F2D6275660015
:10012400730000382F3D3C38110197383C381001DA
:10013400973812391F3807FF74782D706F6C6C0074
:100144008D000038B1003538A4003C38C6008C3826
:100154001F3808FF74783F2D706F6C6C9D00003859
:100164002F3D3C38C00097383C382000123A1F38E5
:1001740004FF75627272AB006E388C009F3DA93D1E
:1001840006FF2B7573617274BA0000383C3898000E
:100194003C38C1008C383C3806003C38C2008C38EE
:1001A400BE00B038F83A3C38C5008C383C38C4003E
:0601B4008C3866001F38C4
:040000000C94383DE7
:1001BA000A920FB60A920F900F900A94B02CFF93EE
:1001CA00EF93E2E1F1E00694E00DF31D0080039461
:1001DA000082EF91FF9109900FBE0990089502FFE6
:1001EA006D2BC2000038C63F143C1F3803FF7564EC
:1001FA002A00F4000038B038FE38DF39D838C3385E
:10020A00F538DF39E0389C391F3804FF756D61789D
:10021A00FB000038C83E5B3935381401C338D8387A
:10022A001F3804FF756D696E0A010038C83E6639C9
:10023A0035382001C338D8381F3800383C38008098
:10024A00123A193935382B01E53F1F384A391F3818
:10025A000AFF6E616D653E666C6167731601003850
:10026A00CA3B3C3800FF123A1F3803FF766572001A
:10027A002D0100389F02C803AD3FBC3E7838AD025D
:10028A00403FC63FE602EE023C382E00D702040386
:10029A000F03FE03BC3E8038AD3FB502C8031F38CA
:1002AA0004FF6E6F6F703A0100381F3806FF756ED3
:1002BA0075736564550100388C3A223F92391F38AC
:1002CA000200746F5B0100380D04CF3FB63E7838E8
:1002DA0035387901210773012C071F380038F538A2
:1002EA00B0388501FE38CA3BB03885018501CA3B62
:1002FA0029381F3807FF692D63656C6C2B0065016F
:10030A0000382E3A1F3808FF69636F6D7061726595
:10031A007F010038FE38CE38F53812393538990160
:10032A00D13ED8384A391F38C3385339EB073538E4
:10033A00BE019A3ACE387838C101CE38CA3BC101DB
:10034A00B0383C3800015B393538AF01C3383C3826
:10035A00FF00123A12393538B601D13E4A39D33A3A
:10036A001F382E3AC3388F3CC3383C380200B93A9A
:10037A009F01D13E53391F380038B0383C38FF004E
:10038A00123A783FC338F83A3C38FF00123A783FBD
:10039A00F83A1B3A1F3801FF2A0088010038A539AC
:1003AA00D8381F3801FF6A00D0010038753A3C3846
:1003BA0007009C397838753A3C3809009C397838F6
:1003CA009C391F3804FF64616273D7010038B03862
:1003DA0020393538F101F8011F3807FF646E656767
:1003EA0061746500E70100383A3CE53F5339143C33
:1003FA001F3805FF636D6F766500F2010402BF9333
:10040A00AF93E991F991A991B991092F082B21F09C
:10041A001D9111930197E1F7AF91BF91899199913C
:10042A000C94043805FF327377617000FE010038BE
:10043A00E038FE38E038F5381F380AFF7265666919
:10044A006C6C2D7469621702003845023C385A00F8
:10045A005D044B0280385339E13E80384A391F38EF
:10046A000AFF736F757263652D7469622202003820
:10047A0045024B0278381F3803FF7469620035025F
:10048A0047382C0104FF2374696241024738860108
:10049A0006FF65653E72616D4702003853399A3A24
:1004AA00CE385E3BCE3880388F3CC3388F3CC33859
:1004BA00C83A5502D13E1F3808FF696E69742D7219
:1004CA00616D4D0200383C386A00013B3C3822001D
:1004DA00033A52021F380BFF656E7669726F6E6DB2
:1004EA00656E740061024738440009FF776F7264D1
:1004FA006C6973747300000000383C3808001F38B8
:10050A0004FF2F7061647A0200388C3AE73E923910
:10051A001F3805FF2F686F6C640085020038E73EBC
:10052A00223F92391F380AFF666F7274682D6E6116
:10053A006D658E02003895030700616D666F7274EF
:10054A0068001F3807FF76657273696F6E0098023C
:10055A0000383C3841001F3803FF63707500A7025A
:10056A0000383C383700F4031F3808FF6D63752DD7
:10057A00696E666FB10200383C3833001F3805FFD8
:10058A002F7573657200BA0200383C382C001F3888
:10059A0003FF686C640070024738880104FF686FC3
:1005AA006C64CD020038D102B0387838343AB038A9
:1005BA00FE38C3388038F5388C381F3802FF3C23A0
:1005CA00D3020038E73ED10280381F3801FF2300EA
:1005DA00E3020038BC3E78386B03E0383C38090047
:1005EA00CE386D393538FC023C3807009C393C3826
:1005FA0030009C39D7021F3802FF2373EB02003800
:10060A00EE02C83E1B3A1939353805031F3802FF76
:10061A00233E01030038D13ED1027838E73ECE3876
:10062A0092391F3804FF7369676E0C03003820394A
:10063A00353822033C382D00D7021F3803FF642EB9
:10064A00720017030038FE38D93EEB01E6020403B4
:10065A00E0381B030F03F538CE389239B63FFE0354
:10066A001F3802FF2E7223030038FE38C63FF538C2
:10067A0027031F3802FF642E360300385339270335
:10068A00AD3F1F3801FF2E003F030038C63F42032B
:10069A001F3803FF75642E004703003853395B0384
:1006AA00AD3F1F3804FF75642E724E030038FE38C2
:1006BA00E60204030F03F538CE389239B63FFE033B
:1006CA001F3806FF75642F6D6F6457030038FE38B4
:1006DA0053390739C139F538C338FE38C139F538C5
:1006EA001F3806FF64696769743F66030038653F0F
:1006FA00B0383C38390077393C380001123A9C3915
:10070A00B0383C38400177393C380701123A9239FF
:10071A003C3830009239B038BC3E78385B391F38E3
:10072A0000380739F403F538CE382E3A033A9C39A3
:10073A002E3AFE381F3802FF732C76030038B03881
:10074A00A7031F3800382C07B038033AD93E0A3AB3
:10075A009239FE385339EB073538BA039A3AB0382A
:10076A0078382C078F3CC83AB403F538273935381E
:10077A00C103B03897382C07D8381F3805FF697479
:10078A0079706500A0030038B038033AD93E0A3AB6
:10079A009239FE385339EB073538DC039A3AB038C8
:1007AA00CA3BB038E903E5032E3AC83AD403F53810
:1007BA0027393538E303B038CA3BE903D8381F383C
:1007CA000038F83AE9031F3800383C38FF00123A7B
:1007DA00F13E1F3806FF69636F756E74C3030038F4
:1007EA00B0382E3AC338CA3B1F3804FF7479706593
:1007FA00EF030038983FEB07353809049A3AAB3AC9
:10080A009738F13EC83A04041F3801FF2700FA035B
:10081A0000388005C305CE05B0385B06DE3FC33815
:10082A00CA3B3C385901DE3F1B3A35381F043C3875
:10083A00F3FF853DD8381F3805FF63736B69700075
:10084A000A040038FE38B03835383504CE389738BF
:10085A000739DE3F35383504E53F71052E3828045F
:10086A00F538D8381F3805FF637363616E002104B9
:10087A000038FE38CE38B03897380739DE3F193994
:10088A0035385204C338343AC338CE382039193986
:10089A00353852042E3A2E384004EF38CE38923981
:1008AA00F538D8381F3806FF6163636570743804F9
:1008BA000038CE389C39343ACE38023FB0389E04DC
:1008CA00193935389004B0383C380800DE3F3538DD
:1008DA008004D838E038C83E7739FE38E038E03846
:1008EA00F53835387E049604343AFE38CE38F53871
:1008FA000E012E388E04B038533F6D3935388704CF
:10090A00D838533FB038F13ECE388C382E3ACE38EC
:10091A001A012E386204D838EF38C3389239A03F0A
:10092A001F3800383C380800B038F13EAD3FF13E80
:10093A001F380038B0383C380D00DE3FC3383C3829
:10094A000A00DE3F1B3A1F3806FF726566696C6C47
:10095A005804FE3D1A00C73DD33D04FF6368617227
:10096A00A90400388005D83897381F3806FF6E75F5
:10097A006D626572B2040038BC3E7838FE380405F0
:10098A00FE3817050405F5381B3AFE38B038193910
:10099A003538D704D13EF538D838F538BC3E8038DA
:1009AA0053391F381D3B533953392C3B3505B83859
:1009BA003538F904E53FDE3F3538F00497383C38DE
:1009CA002E00DE3F3538F104F5383538ED04F801EC
:1009DA00EA3F2E38FF04D838D13EF538D838F538F2
:1009EA00BC3E803853391F38D13EF5383538FE04BD
:1009FA00263EE53FF538BC3E80384A391F38003874
:100A0A00CE3897383C382D00DE3FB038FE383538BE
:100A1A001005E53F7105F5381F3851380A001000F6
:100A2A0002000A000038CE3897383C382300923941
:100A3A00B03853393C380400563E35382D05120576
:100A4A009C39CA3BBC3E8038E53F71052E382E05DD
:100A5A00D8381F3807FF3E6E756D62657200BB0499
:100A6A000038B03835384D05CE3897387B031939F8
:100A7A0035384105D8381F38FE381C02BC3E783854
:100A8A00FF00F538F7001C02E53F71052E383605E0
:100A9A001F3805FF7061727365002F050038FE3834
:100AAA006705E13E78387105F5383D04B0382E3ACD
:100ABA00E13E643AE53F71051F3806FF736F7572B0
:100ACA0063654E05FE3D1600C73DD33D07FF2F73F4
:100ADA007472696E670062050038E038CE389C3956
:100AEA00E038E03892391F380AFF70617273652D59
:100AFA006E616D656B050038533F84051F380038F9
:100B0A00FE386705E13E7838710507392604F5385D
:100B1A003D04C83E9C396705D8389239E13E803891
:100B2A001F3803FF7370300079056E380600C73D21
:100B3A00D33D02FF737096055738080003FF7270A1
:100B4A0030009E050038AB0578381F385738040046
:100B5A0005FF646570746800A30500389A058C3A2D
:100B6A009239033A343A1F3810FF666F7274682D4F
:100B7A007265636F676E697A6572AD056E383E009D
:100B8A009F3DA93D09FF7265636F676E697A6500CB
:100B9A00B90500383C38D905C3386C0919393538D4
:100BAA00D805D13E5B061F380038E038E038C83E29
:100BBA001D3BE03829382C3BE038B0385B06DE3F75
:100BCA003538EA05D83853391F38EF38EF384A39FB
:100BDA001F3809FF696E7465727072657400C70503
:100BEA0000388005B03835380606C305CE05B63E4E
:100BFA007838353801068501CA3B29388A3F2E38AC
:100C0A00F605D13E1F3806FF64743A6E756DEE051F
:100C1A00513859014207420707FF64743A646E75F6
:100C2A006D00080651385901D63FD63F07FF726555
:100C3A00633A6E756D0011060038C00435382D060A
:100C4A00E53FDE3F35382B060D061F3817061F38DD
:100C5A005B061F3808FF7265633A66696E641B0695
:100C6A000038D006B038193935383E06D8385B0610
:100C7A001F3845061F3805FF64743A7874002F063A
:100C8A00513849064D06D63F0038D83829381F381A
:100C9A0000382039353853062C071F3829381F38B1
:100CAA0007FF64743A6E756C6C00400651385F0633
:100CBA005F065F0600383C38F3FF853D0FFF73651A
:100CCA00617263682D776F72646C6973740055067C
:100CDA000038FE3853393C388206F5389F06B0385A
:100CEA00193935387C06D13ED83853391F38B038CF
:100CFA00C606C338340122011F380038FE38D838F6
:100D0A00C83E0739BA068E0135389006F538D83804
:100D1A0053394A391F38D13EF53853391F3811FF34
:100D2A0074726176657273652D776F72646C69731C
:100D3A007400630600385E3BB0383538B006C83EEA
:100D4A001D3BC33829382C3BE0383538B006DB095F
:100D5A00CA3B2E38A106D13E1F380BFF6E616D6566
:100D6A003E737472696E670094060038F4033C3867
:100D7A00FF00123A1F3807FF6E66613E6366610024
:100D8A00B2060038DB092E3A1F3807FF66696E641F
:100D9A002D787400C00600383C38DC063C384A001E
:100DAA006C0919393538DB06D13E53391F380038FA
:100DBA00FE38C83EF5386D06B0383538E906FE38D3
:100DCA00EF38EF38F5384A391F3806FF6E65776510
:100DDA007374CA0647388A0106FF6C6174657374B6
:100DEA00EA0647388E0108FF28637265617465292F
:100DFA00F106003880055508B038EF068F3C803878
:100E0A003A08EF0680381F3801005C00F8060038FF
:100E1A006705EF38E13E80381F38010028000907CE
:100E2A0000383C3829005305D13E1F3807FF636F4D
:100E3A006D70696C650012070038F538B0388501A5
:100E4A00FE38CA3B2C071F3801FF2C001B0700384D
:100E5A00113F723B113F2E3A7301123F1F380300B4
:100E6A005B275D00290700380D0442071F38070079
:100E7A006C69746572616C003407003821073C386C
:100E8A002C071F380800736C69746572616C3C0723
:100E9A00003821079503A3031F380038113F2107A3
:100EAA00FFFF1F3800388A3F113FC338723B1F3893
:100EBA000038113F1F3800388A3F2C071F380500B9
:100ECA006168656164004707003821072E385207B8
:100EDA001F3802006966640700382107353852074F
:100EEA001F380400656C73656E07003821072E38B9
:100EFA005207C33857071F3804007468656E7607AF
:100F0A00003857071F380500626567696E00810758
:100F1A0000385D071F3805007768696C6500880727
:100F2A0000387107C3381F3806007265706561742E
:100F3A0090070038B20785071F380500756E746977
:100F4A006C00990700383C3835382C0760071F3881
:100F5A000500616761696E00A207003821072E3813
:100F6A0060071F380200646FAD07003821079A3AFC
:100F7A005D07533915081F3804006C6F6F70B70787
:100F8A0000382107C83AFC071F3805002B6C6F6F21
:100F9A007000C10700382107B93AFC071F3805005D
:100FAA006C6561766500CA0700382107D33A69077C
:100FBA0015081F3803003F646F00D4070038210763
:100FCA00EB077107BA07C33815081F380038C83E3F
:100FDA00DE3FB038FE383538F307D13EF538FC39F4
:100FEA001F3807FF656E646C6F6F7000DF0700388B
:100FFA0060070908B8383538050885072E38FE070E
:10100A001F3802FF6C3EF60700382808783878380F
:10101A003C38FEFF2808643A1F3802FF3E6C060877
:10102A000038EA3F2808643A2808783880381F3898
:10103A0003FF6C70300012086E3840009F3DA93DD6
:10104A0002FF6C701D084738900106FF63726561E4
:10105A00746525080038FE065E08210751381F38D6
:10106A0006FF6865616465722A080038113FFE3818
:10107A00FE38B038273935384C08B0383C3800FFCC
:10108A001B3AA703F5385E3B2C07F5381F383C3866
:10109A00F0FF853D07FF776C73636F706500350855
:1010AA00FE3D3C009F3DA93D06FF72657665616C79
:1010BA004F080038EF068F3C7838B8383538690859
:1010CA00EF067838C3383A3B1F380500646F6573FA
:1010DA003E00590800382107820821070E9421078B
:1010EA0077081F389A938A93CB0101967F916F9163
:1010FA00BF93AF93DB010C9404380038F538EF0640
:10110A008F3C78385E3BC606723B1F3801FF3A00B7
:10111A006A080038FE069908D8381F3807FF3A6E61
:10112A006F6E616D65008B080038113FB038F606A6
:10113A00803821070038AE081F3801003B009308A9
:10114A00003821071F38B6085E081F3801FF5D0006
:10115A00A2080038E53FB63E80381F3801005B0020
:10116A00AB0800385339B63E80381F3808FF76611D
:10117A00726961626C65B3080038223FCD08EA3FA4
:10118A002B3F1F3808FF636F6E7374616E74BB0860
:10119A000038FE065E08210747382C071F3804FF6F
:1011AA0075736572C7080038FE065E08210757384E
:1011BA002C071F3807007265637572736500D408BF
:1011CA000038F60678382C071F3809FF696D6D65F7
:1011DA00646961746500DF08003893095E3BB038C2
:1011EA00CA3B3C38FF7F123AC338723B1F380600AD
:1011FA005B636861725DEA08003821073C38B6040F
:10120A002C071F38060061626F727422FC080038CE
:10121A00893E21071E091F3805FF61626F7274003B
:10122A00070900384A39853D06FF3F61626F7274CB
:10123A0011090038E03835382409C8031609D13EA7
:10124A001F3809FF6765742D737461636B00190990
:10125A000038B0388F3CC3385E3BB038FE3853395B
:10126A00C338EB07353844099A3AAB3A343AC33EA5
:10127A00CE389C395E3BC3384A39B93A3A09D13E2D
:10128A00F5381F3809FF7365742D737461636B0039
:10129A0026090038CE382039353856093C38FCFF43
:1012AA00853DC83E3A3BC3385339EB0735386309A5
:1012BA009A3A8F3CD93E3A3BC83A5E09D8381F3829
:1012CA0009FF6D61702D737461636B004709003803
:1012DA00B0388F3CC3385E3BC33E983FEB07353886
:1012EA0088099A3AAB3A5E3BC338FE38073929383F
:1012FA00B83835388409F538D838D33A1F38F5382C
:10130A00EA3FB93A7709D83853391F380BFF67656E
:10131A00742D63757272656E7400650900383C3805
:10132A0046005E3B1F3809FF6765742D6F7264655E
:10133A0072008B0900383C384A002D091F3809FF12
:10134A006366672D6F7264657200980947384A00B0
:10135A0007FF636F6D7061726500A409B409BF93DA
:10136A00AF938C0189919991DC01899199919C01A2
:10137A0089919991FC01ED90F190EF1451F40A953D
:10138A0019F02A95C1F701C02A95022B11F4882772
:10139A0002C08FEF00C0982FAF91BF910C94043810
:1013AA0007FF6E66613E6C666100AD090038BA06D9
:1013BA002E3A033A9C391F380BFF7365742D6375F7
:1013CA007272656E7400D50900383C3846003A3BA3
:1013DA001F3808FF776F72646C697374E10900380B
:1013EA001A3F5339CE383A3BB0388F3C73011B3F12
:1013FA001F380EFF666F7274682D776F72646C699E
:10140A007374EE094738480009FF7365742D6F72CB
:10141A0064657200FE0900383C384A004E091F38DC
:10142A000FFF7365742D7265636F676E697A6572F3
:10143A007300090A00383C385C004E091F380FFF58
:10144A006765742D7265636F676E697A657273007A
:10145A00150A00383C385C002D091F3804FF636FF9
:10146A006465240A0038FE065E08113F85012C07D0
:10147A001F3808FF656E642D636F6465330A003890
:10148A0021070C94210704381F3808FF286D617260
:10149A006B6572293E0A6E3868009F3DA93D0800B7
:1014AA00706F7374706F6E654A0A00388005C305E1
:1014BA00CE05B038FE3885018501CA3B2938F53892
:1014CA008501CA3B2C071F380BFF6170706C74755D
:1014DA00726E6B657900540A0038C700963C3E016B
:1014EA00AD3F95030A00466F7274686475696E6F42
:0414FA00C8031F38CC
:10700000BF93AF93DB011196B21469F4FD01EE0F4B
:10701000FF1F659175911196FB01EE0FFF1F059102
:107020001591F80109949A938A938B2D9927BB2483
:107030006FEB7CE3F1CF04FF65786974690A20384F
:10704000AF91BF91E1CF07FF657865637574650007
:107050001B382A38BC0189919991DECF2F38FD0168
:10706000EE0FFF1FA591B591CFCF3638982B8991A0
:107070009991A9F31196C8CF3D389A938A93FD014F
:10708000EE0FFF1F859195911196BECF47389A93C9
:107090008A93FB013196EE0FFF1F85919591B4CF36
:1070A00051389A938A93CB010196AECF57389A9371
:1070B0008A93FB013196EE0FFF1F85919591840D08
:1070C000951DA2CF07FF2876616C756529002338CE
:1070D0000038FE065E0821076E381F380E947708C8
:1070E000B0388501CA3B29381F3801FF400062389B
:1070F0007938FC018191919187CF01FF210075388A
:107100008138FC018991999191838083899199912A
:107110007BCF02FF63217D388D38FC0189919991E5
:1071200080838991999170CF02FF634089389838A4
:10713000FC019927808168CF02FF407594380038A0
:10714000013B9C3978381F3802FF21759C38003884
:10715000013B9C3980381F3803FF64757000A438E8
:10716000B1389A938A9350CF04FF3F647570AC385E
:10717000B938082F092B11F09A938A9345CF04FF51
:1071800073776170B438C4388C01899199911A93DE
:107190000A933ACF04FF6F766572BF38CF389A935F
:1071A0008A938A819B8130CF04FF64726F70CA38E2
:1071B000D9388991999128CF03FF726F7400D43820
:1071C000E1388C0129913991899199913A932A93C7
:1071D0001A930A9319CF03FF6E697000DC38F038F8
:1071E000229612CF02FF723EEB38F6389A938A93BA
:1071F0008F919F9109CF02FF3E72F238FF389F9323
:107200008F938991999100CF02FF7240FB38083922
:107210009A938A938F919F919F938F93F5CE02FFBC
:107220003C3E04390038DE3F19391F3802FF303D3B
:107230000F391A39982BD1F530C002FF303C16397E
:10724000213997FD2AC032C002FF303E1D3928394E
:10725000821593055CF151F120C003FF64303E00BC
:1072600024393239821593058991999182059305C4
:10727000ECF0E1F012C003FF64303C002D394039DE
:10728000229697FD0C944D390C94563904FF747274
:1072900075653B394B399A938A938FEF9FEFB4CE44
:1072A00001FF3000463954399A938A93C101ACCE1C
:1072B00002FF753C50395C39299139918217930747
:1072C000A8F3A1F3EACF02FF753E58390038C3385E
:1072D0005B391F3801FF3C0063396E3929913991C0
:1072E000281739071CF7D9CF01FF3E006A397839D2
:1072F0002991399128173907CCF2C1F2CECF04FF7A
:107300006C6F673274398439FC01992780E18A9562
:1073100022F0EE0FFF1FD8F777CE9A9575CE01FFBA
:107320002D007F39933909911991081B190BC80158
:107330006BCE01FF2B008F399D3909911991800F78
:10734000911F62CE02FF6D2A9939A6398C0189916D
:1073500099919C0131027001209FC0013003F30814
:10736000900DE11CF31C1203F308900DE11CF31CBB
:107370009A938A93C70148CE06FF756D2F6D6F648F
:10738000A239C2397C01299139910991199140E1C1
:107390005527000F111F221F331F551F2E153F05A4
:1073A000520518F003952E193F094A9589F73A932B
:1073B0002A93C80129CE03FF756D2A00BC39E03934
:1073C0008C0189919991809FF00122273327909F0A
:1073D000F00D211D331D819FF00D211D331D919F47
:1073E000200D311DCF019A938A93C9010DCE06FF5E
:1073F000696E76657274DB39FD398095909504CE9F
:1074000002FF322FF739043A95958795FDCD02FF9B
:10741000322A003A0B3A880F991FF6CD03FF616EAE
:107420006400073A133A0991199180239123ECCD16
:1074300002FF6F720E3A1C3A09911991802B912B21
:10744000E3CD03FF786F7200183A263A099119913B
:1074500080279127D9CD02FF312B213A2F3A01966F
:10746000D3CD02FF312D2B3A353A0197CDCD07FF11
:107470003F6E656761746500313A003820393538F0
:10748000423A263E1F3806FF6C7368696674373AC5
:10749000493AFC018991999131971AF0880F991F07
:1074A000FBCFB2CD06FF727368696674433A583AEF
:1074B000FC018991999131971AF096958795FBCFA8
:1074C000A3CD02FF2B21523A653AFC018991999193
:1074D00020813181820F931F8083918389919991BB
:1074E00093CD03FF72704000613A763A9A938A9383
:1074F0008DB79EB789CD03FF72702100713A803A33
:107500002FB7F8948DBF9EBF2FBF899199917CCDE5
:1075100003FF737040007B3A8D3A9A938A93CE01B1
:1075200073CD03FF73702100883A963AEC0189917C
:1075300099916ACD9B3A29913991E0E83E0F821BDF
:10754000930B3F932F939F938F93899199915CCD48
:1075500001FF6900913AAC3A9A938A938F919F9177
:10756000EF91FF91FF93EF939F938F938E0F9F1F48
:107570004BCDBA3AEF91FF91E80FF91F899199919C
:107580001BF0FF93EF936BCD0F911F9111963CCDA4
:10759000C93AEF91FF913196BBF3F3CF06FF756EB9
:1075A0006C6F6F70A83AD43A1F910F911F910F9191
:1075B0002BCD06FF636D6F76653ECE3ADF3ABF9303
:1075C000AF93E991F991A991B991092F082B41F055
:1075D000E80FF91FA80FB91F1E9112930197E1F749
:1075E000AF91BF91899199910FCD02FF3E3CD93A5D
:1075F000F93A092F982F802F07CD03FF75704000AF
:10760000F53A023B9A938A93C201FECC03FF757050
:107610002100FD3A0B3B2C0189919991F5CC03FF98
:10762000316D7300063B143BE0EAFFE03197F1F760
:10763000EBCC03FF323E72000F3B1E3BFC018991F5
:1076400099919F938F93FF93EF9389919991DCCCBC
:1076500003FF32723E00193B2D3B9A938A93EF91C0
:10766000FF918F919F919A938A93CF01CDCC02FF86
:107670002165283B3B3BFC01899199912FB7F894F8
:1076800028D000B5081709F00BD0319622D000B5EC
:10769000091711F0892F04D02FBF89919991B4CC8B
:1076A000F999FECF07B700FDFDCFF2BDE1BD80BD6A
:1076B000FA9AF99A089502FF4065373B5F3B2FB76E
:1076C000F894FC0106D080B5319603D090B52FBF59
:1076D0009BCCF999FECFF2BDE1BDF89A089502FF67
:1076E00021695B3BFE3D66009F3DA93D09FF2821C6
:1076F000692D6E72777729006F3B7E3B1FB71F9312
:10770000F8949C0189919991AF93BF93CF93DF93A4
:1077100009D0DF91CF91BF91AF91899199911F913C
:107720001FBF72CC10D0E094F0948E219F21982B33
:1077300019F0F90102E020D0F90104E01DD0F901AF
:1077400000E11AD00895F901E07CFF7FEF01A0E489
:10775000B0E0FE01EE0FFF1F45915591FE01E217CB
:10776000F30711F00A0102C07A010C01002704D0CE
:107770002196119771F70895F999FECF17B710FD6B
:10778000FDCFEE0FFF1F016007BFE895089502FFD0
:107790004069763BCB3BFC01EE0FFF1F8591959135
:1077A00033CC03FF6E3E7200C73BD63BFC01082F73
:1077B000899199919F938F930A95D1F7EF93FF93B6
:1077C0008991999121CC03FF6E723E00D13BE83B39
:1077D0009A938A93FF91EF910E2F8F919F919A9395
:1077E0008A930A95D1F7CF010FCC03FF64322A00A8
:1077F000E33BFA3B09911991000F111F881F991F54
:107800001A930A9301CC03FF64322F00F53B083C26
:107810000991199195958795179507951A930A934C
:10782000F3CB02FF642B033C153C29913991E9907D
:10783000F99049915991240F351F8E1D9F1D3A9340
:107840002A93E2CB02FF642D113C263C2991399109
:10785000E990F99049915991421B530BE80AF90AB2
:107860005A934A93C701D0CB07FF64696E7665725D
:107870007400223C3B3C09911991809590950095AC
:1078800010951A930A93C0CB04FF2F6D6F64343C9C
:10789000493C9C0109911991412F432717FF04C0CE
:1078A000109500950F5F1F4F37FF04C0309520954E
:1078B0002F5F3F4FEE24FF1851E1001F111F5A9513
:1078C00039F447FF04C0109500950F5F1F4F0BC0A0
:1078D000EE1CFF1CE21AF30A20F4E20EF31E889459
:1078E000ECCF0894EACFFA92EA92C8018DCB03FF5D
:1078F00061627300443C0038B0383D3A1F3804FFE1
:107900007069636B773C00382E3AC33E8C3A9C39E1
:1079100078381F3805FF63656C6C2B007F3C903C0A
:10792000029672CB04FF2B696E748A3C973C789464
:107930006BCB04FF2D696E74923C9E3CF89464CB33
:1079400004FF696E7421993C00383C3800009C3972
:107950003A3B1F3804FF696E7440A03C00383C3845
:1079600000009C395E3B1F3808FF696E742D7472ED
:107970006170AA3CBB3CB82E8991999145CB0038E7
:10798000AE3C2938C43C1F38C53C01D03DCB1895CE
:10799000003895030300206F6B00C8031F3803FFF6
:1079A0002E6F6B00B43CFE3D1C00C73DD33D00383C
:1079B000950302003E20A03FC8031F3806FF2E7229
:1079C00065616479CF3CFE3D2000C73DD33D003862
:1079D00095030400203F3F20C803BC3E7838FE38A2
:1079E000403F4A03E13E78384A03F538BC3E8038D0
:1079F0001F3806FF2E6572726F72DE3CFE3D1E0060
:107A0000C73DD33D04FF71756974F93C0038210806
:107A1000280880389A05953AA7057F3AB608B63EF9
:107A2000783819393538153DE33CAE043538273DF3
:107A30003C38F5056F3DB8383538273DB0383C380F
:107A4000FEFF6D393538253DFE3C2E38073DD33CD1
:107A50002E380F3D05FF706175736500023DFE3DD8
:107A60009201B33DBD3D04FF636F6C642A3D383D18
:107A7000A4B622243324BB2424BEE0E0F1E021920A
:107A8000E030E9F7F930D9F7E4E9F1E02F010FEF41
:107A90000DBF048318E01EBF1583CFEAC683D8E06C
:107AA000D783A9E5BDE3B0CA04FF7761726D333DAA
:107AB000003867023C3859013C382F3DDE3DB6089E
:107AC0005B3F063D07FF68616E646C657200543D64
:107AD00057380A0005FF636174636800623D00382F
:107AE0008C3AFE38683D7838FE38753A683D803803
:107AF0002938F538683D8038F538D83853391F387B
:107B000005FF7468726F77006A3D0038B038193924
:107B100035388C3DD8381F38683D78387F3AF5388D
:107B2000683D8038F538C338FE38953AD838F5388E
:107B30001F3807FF4564656665724000803D003868
:107B4000CA3B5E3B1F3807FF4564656665722100CE
:107B5000993D0038CA3B3A3B1F3807FF52646566BF
:107B600065724000A33D0038CA3B78381F3807FFD4
:107B70005264656665722100AD3D0038CA3B8038AD
:107B80001F3807FF5564656665724000B73D0038D1
:107B9000CA3B013B9C3978381F3807FF556465663E
:107BA00065722100C13D0038CA3B013B9C398038D9
:107BB0001F3806FF646566657221CD3D0038CF3FF2
:107BC000B03885018501CA3B29381F3806FF646536
:107BD00066657240D93D0038CF3FB0388501CA3B59
:107BE00029381F3807FF2864656665722900E63D5D
:107BF0000038FE065E082107FE3D1F380E94770808
:107C0000B0388501CA3B293829381F3802FF752E44
:107C1000F23D0038533952031F3803FF752E7200AE
:107C2000063E00385339C3385B031F3805FF752FF4
:107C30006D6F64000D3E0038FE385339F538C13998
:107C40001F3806FF6E6567617465163E0038FC39A3
:107C50002E3A1F3801FF2F00213E0038483CEF38F4
:107C60001F3803FF6D6F64002A3E0038483CD83847
:107C70001F3803FF6D696E00313E0038C83E77390A
:107C80003538433EC338D8381F3803FF6D6178005C
:107C9000393E0038C83E6D3935384F3EC338D83884
:107CA0001F3806FF77697468696E453E0038CE3824
:107CB0009239FE389239F5385B391F380DFF7368F9
:107CC0006F772D776F72646C69737400513E003862
:107CD0003C386D3EC3389F061F380038BA06C803CB
:107CE000AD3F4A391F3805FF776F726473005E3EFF
:107CF00000383C384C005E3B673E1F3802002E22A5
:107D0000733E0038893E2107C8031F3802007322E2
:107D10007E3E00383C3822005305B63E7838353870
:107D2000923E4D071F3804FF66696C6C863E003832
:107D3000E038E038B8383538A43E983F9A3AB03841
:107D4000AB3A8C38C83A9F3ED8381F3805FF665F7B
:107D500063707500933E00383C3800243C38F400D2
:107D60001F3805FF737461746500A63E4738C00173
:107D700004FF62617365B13E57380C0005FF63650F
:107D80006C6C7300B83E0B3A04FF32647570BE3EF3
:107D90000038CE38CE381F3805FF3264726F70005D
:107DA000C43E0038D838D8381F3804FF7475636B68
:107DB000CC3E0038C338CE381F3803FF3E696E0012
:107DC000D53E5738180003FF70616400DD3E00386F
:107DD000223F3C3828009C391F3804FF656D6974C8
:107DE000E33EFE3D0E00C73DD33D05FF656D697462
:107DF0003F00ED3EFE3D1000C73DD33D03FF6B65E8
:107E00007900F53EFE3D1200C73DD33D04FF6B6592
:107E1000793FFE3EFE3D1400C73DD33D02FF647036
:107E2000063F6E3836009F3DA93D05FF65686572C7
:107E300065000E3F6E383A009F3DA93D04FF68651E
:107E40007265153F6E3838009F3DA93D05FF616C96
:107E50006C6F74001E3F0038223F9C397301233F32
:107E60001F3803FF62696E00263F0038EA3FBC3EC0
:107E700080381F3807FF646563696D616C00313FAE
:107E800000383C380A00BC3E80381F3803FF686564
:107E900078003A3F00383C381000BC3E80381F382C
:107EA00002FF626C463F4738200007FF7475726E10
:107EB0006B657900503FFE3D42009F3DA93D07FFA5
:107EC000746F757070657200553F0038B0383C387B
:107ED00061003C387B00563E3538713F3C38DF004E
:107EE000123A1F3807FF746F6C6F776572005F3F3F
:107EF0000038B0383C3841003C385B00563E3538DD
:107F0000843F3C3820001B3A1F3806FF3F737461E2
:107F1000636B723F0038B20520393538923F3C38E8
:107F2000FCFF853D1F3806FF626F756E6473853FE9
:107F30000038CE389C39C3381F3802FF6372933F34
:107F400000383C380D00F13E3C380A00F13E1F3845
:107F500005FF7370616365009D3F0038533FF13E3C
:107F60001F3806FF737061636573A83F003853398B
:107F7000493EB0383538C03FAD3F343A2E38B93F6E
:107F8000D8381F3803FF733E6400B13F0038B03863
:107F900020391F3805FF3E626F647900C23F2F3AD7
:107FA0000800326C69746572616CCA3F0038C3386E
:107FB000420742071F3801FF3D00D03F0038923989
:107FC00019391F3801FF3100DB3F4738010001FF3D
:107FD0003200E23F4738020002FF2D31E73F4738C9
:027FE000FFFFA1
:00000001FF
