:020000020000FC
:02000400FCD02E
:02000800FAD02C
:02000C00F8D02A
:02001000F6D028
:02001400F4D026
:02001800F2D024
:02001C00F0D022
:02002000EED020
:02002400ECD01E
:02002800EAD01C
:02002C00E8D01A
:02003000E6D018
:02003400E4D016
:02003800E2D014
:02003C00E0D012
:02004000DED010
:02004400DCD00E
:02004800DAD00C
:02004C00D8D00A
:02005000D6D008
:02005400D4D006
:02005800D2D004
:02005C00D0D002
:02006000CED000
:02006400CCD0FE
:02006800CAD0FC
:02006C00C8D0FA
:02007000C6D0F8
:02007400C4D0F6
:02007800C2D0F4
:02007C00C0D0F2
:02008000BED0F0
:02008400BCD0EE
:02008800BAD0EC
:02008C00B8D0EA
:02009000B6D0E8
:02009400B4D0E6
:02009800B2D0E4
:02009C00B0D0E2
:0200A000AED0E0
:0200A400ACD0DE
:1000A800AAD0000A000400702B000A0041546D65B4
:1000B80067613332553407FF3E72782D62756600EA
:1000C80000006600082F10911001E0E0F1E0E10F58
:1000D800F31D008313951F70109310018991999156
:1000E8000C94043806FF6973722D72785F0000382B
:1000F8003C38CE009738B0383C380300DE3F3538FE
:100108008600373D65001F3800383C387B003C3896
:100118003200A43C3C3800013C3816005339973E65
:100128001F3806FF72782D62756676000038B500B4
:1001380035389B003C3811019738B0383C380001FD
:100148009C399738C3382E3A3C380F00123A3C385D
:1001580011018C381F3807FF72783F2D62756600D1
:10016800950000382F3D3C38110197383C38100174
:10017800973812391F3807FF74782D706F6C6C0030
:10018800AF000038D3003538C6003C38CE008C3874
:100198001F3808FF74783F2D706F6C6CBF000038F3
:1001A8002F3D3C38C80097383C382000123A1F3899
:1001B80004FF75627272CD006E38AE009F3DA93D96
:1001C80006FF2B7573617274DC0000383C389800A8
:1001D8003C38C9008C383C3806003C38CA008C389A
:1001E800E000B038F83A3C38CD008C383C38CC00C8
:0601F8008C3888001F385E
:040000000C94383DE7
:1001FE000A920FB60A920F900F900A94B02CFF93AA
:10020E00EF93E2E1F1E00694E00DF31D008003941C
:10021E000082EF91FF9109900FBE0990089502FFA1
:10022E006D2BE4000038C63F143C1F3803FF756485
:10023E002A0016010038B038FE38DF39D838C338F6
:10024E00F538DF39E0389C391F3804FF756D617859
:10025E001D010038C83E5B3935383601C338D838F1
:10026E001F3804FF756D696E2C010038C83E663963
:10027E0035384201C338D8381F3800383C38008032
:10028E00123A193935384D01E53F1F384A391F38B2
:10029E000AFF6E616D653E666C61677338010038EA
:1002AE00CA3B3C3800FF123A1F3803FF76657200D6
:1002BE004F010038C102EA03AD3FBC3E7838CF0291
:1002CE00403FC63F080310033C382E00F9022603B8
:1002DE0031032004BC3E8038AD3FD702EA031F38FD
:1002EE0004FF6E6F6F705C0100381F3806FF756E6D
:1002FE0075736564770100388C3A223F92391F3846
:10030E000200746F7D0100382F04CF3FB63E78385F
:10031E0035389B01430795014E071F380038F538D5
:10032E00B038A701FE38CA3BB038A701A701CA3BB7
:10033E0029381F3807FF692D63656C6C2B00870108
:10034E0000382E3A1F3808FF69636F6D7061726551
:10035E00A1010038FE38CE38F53812393538BB01D8
:10036E00D13ED8384A391F38C33853390D0835387D
:10037E00E0019A3ACE387838E301CE38CA3BE30131
:10038E00B0383C3800015B393538D101C3383C38C0
:10039E00FF00123A12393538D801D13E4A39D33AD4
:1003AE001F382E3AC3388F3CC3383C380200B93A56
:1003BE00C101D13E53391F380038B0383C38FF00E8
:1003CE00123A783FC338F83A3C38FF00123A783F79
:1003DE00F83A1B3A1F3801FF2A00AA010038A53946
:1003EE00D8381F3801FF6A00F2010038753A3C38E0
:1003FE0007009C397838753A3C3809009C397838B2
:10040E009C391F3804FF64616273F9010038B038FB
:10041E002039353813021A021F3807FF646E6567DC
:10042E0061746500090200383A3CE53F5339143CCB
:10043E001F3805FF636D6F76650014022602BF93A9
:10044E00AF93E991F991A991B991092F082B21F058
:10045E001D9111930197E1F7AF91BF9189919991F8
:10046E000C94043805FF3273776170002002003857
:10047E00E038FE38E038F5381F380AFF72656669D5
:10048E006C6C2D7469623902003867023C385A0070
:10049E007F046D0280385339E13E80384A391F3867
:1004AE000AFF736F757263652D74696244020038BA
:1004BE0067026D0278381F3803FF746962005702B5
:1004CE0047383D0104FF2374696263024738970180
:1004DE0006FF65653E72616D6902003853399A3ABE
:1004EE00CE385E3BCE3880388F3CC3388F3CC33815
:1004FE00C83A7702D13E1F3808FF696E69742D72B3
:10050E00616D6F0200383C388C00013B3C38220094
:10051E00033A74021F380BFF656E7669726F6E6D4B
:10052E00656E740083024738660009FF776F726448
:10053E006C6973747300000000383C3808001F3873
:10054E0004FF2F7061649C0200388C3AE73E9239AA
:10055E001F3805FF2F686F6C6400A7020038E73E56
:10056E00223F92391F380AFF666F7274682D6E61D2
:10057E006D65B0020038B7030700616D666F727467
:10058E0068001F3807FF76657273696F6E00BA02D6
:10059E0000383C3841001F3803FF63707500C902F4
:1005AE0000383C38590016041F3808FF6D63752D4E
:1005BE00696E666FD30200383C3855001F3805FF50
:1005CE002F7573657200DC0200383C382C001F3822
:1005DE0003FF686C640092024738990104FF686F4C
:1005EE006C64EF020038F302B0387838343AB03821
:1005FE00FE38C3388038F5388C381F3802FF3C235C
:10060E00F5020038E73EF30280381F3801FF230061
:10061E0005030038BC3E78388D03E0383C380900BD
:10062E00CE386D3935381E033C3807009C393C38BE
:10063E0030009C39F9021F3802FF23730D03003876
:10064E001003C83E1B3A1939353827031F3802FFED
:10065E00233E23030038D13EF3027838E73ECE38EE
:10066E0092391F3804FF7369676E2E0300382039E4
:10067E00353844033C382D00F9021F3803FF642E31
:10068E00720039030038FE38D93E0D0208032603E6
:10069E00E0383D033103F538CE389239B63F2004A9
:1006AE001F3802FF2E7245030038FE38C63FF5385C
:1006BE0049031F3802FF642E58030038533949038B
:1006CE00AD3F1F3801FF2E0061030038C63F6403A3
:1006DE001F3803FF75642E006903003853397D03FC
:1006EE00AD3F1F3804FF75642E7270030038FE385C
:1006FE00080326033103F538CE389239B63F20046D
:10070E001F3806FF75642F6D6F6479030038FE384D
:10071E0053390739C139F538C338FE38C139F53880
:10072E001F3806FF64696769743F88030038653FA8
:10073E00B0383C38390077393C380001123A9C39D0
:10074E00B0383C38400177393C380701123A9239BB
:10075E003C3830009239B038BC3E78385B391F389F
:10076E00003807391604F538CE382E3A033A9C393C
:10077E002E3AFE381F3802FF732C98030038B0381B
:10078E00C9031F3800384E07B038033AD93E0A3A2B
:10079E009239FE3853390D083538DC039A3AB038A1
:1007AE0078384E078F3CC83AD603F5382739353896
:1007BE00E303B03897384E07D8381F3805FF6974F1
:1007CE0079706500C2030038B038033AD93E0A3A50
:1007DE009239FE3853390D083538FE039A3AB0383F
:1007EE00CA3BB0380B0407042E3AC83AF603F53864
:1007FE00273935380504B038CA3B0B04D8381F38B2
:10080E000038F83A0B041F3800383C38FF00123A13
:10081E00F13E1F3806FF69636F756E74E50300388D
:10082E00B0382E3AC338CA3B1F3804FF747970654E
:10083E0011040038983F0D0835382B049A3AAB3A1C
:10084E009738F13EC83A26041F3801FF27001C04D2
:10085E000038A205E505F005B0387D06DE3FC33849
:10086E00CA3B3C387B01DE3F1B3A353841043C38ED
:10087E00F3FF853DD8381F3805FF63736B69700031
:10088E002C040038FE38B03835385704CE38973837
:10089E000739DE3F35385704E53F93052E384A04B5
:1008AE00F538D8381F3805FF637363616E00430453
:1008BE000038FE38CE38B03897380739DE3F193950
:1008CE0035387404C338343AC338CE382039193920
:1008DE00353874042E3A2E386204EF38CE389239F9
:1008EE00F538D8381F3806FF6163636570745A0493
:1008FE000038CE389C39343ACE38023FB038C00476
:10090E0019393538B204B0383C380800DE3F353876
:10091E00A204D838E038C83E7739FE38E038E038DF
:10092E00F5383538A004B804343AFE38CE38F538E8
:10093E0030012E38B004B038533F6D393538A90424
:10094E00D838533FB038F13ECE388C382E3ACE38A8
:10095E003C012E388404D838EF38C3389239A03F82
:10096E001F3800383C380800B038F13EAD3FF13E3C
:10097E001F380038B0383C380D00DE3FC3383C38E5
:10098E000A00DE3F1B3A1F3806FF726566696C6C03
:10099E007A04FE3D1A00C73DD33D04FF63686172C1
:1009AE00CB040038A205D83897381F3806FF6E756D
:1009BE006D626572D4040038BC3E7838FE38260568
:1009CE00FE3839052605F5381B3AFE38B038193988
:1009DE003538F904D13EF538D838F538BC3E803874
:1009EE0053391F381D3B533953392C3B5705B838F3
:1009FE0035381B05E53FDE3F3538120597383C3854
:100A0E002E00DE3F35381305F53835380F051A023E
:100A1E00EA3F2E382105D838D13EF538D838F5388A
:100A2E00BC3E803853391F38D13EF5383538200555
:100A3E00263EE53FF538BC3E80384A391F3800382F
:100A4E00CE3897383C382D00DE3FB038FE3835387A
:100A5E003205E53F9305F5381F3851380A0010006E
:100A6E0002000A000038CE3897383C3823009239FD
:100A7E00B03853393C380400563E35384F053405EE
:100A8E009C39CA3BBC3E8038E53F93052E38500555
:100A9E00D8381F3807FF3E6E756D62657200DD0433
:100AAE000038B03835386F05CE3897389D03193970
:100ABE0035386305D8381F38FE383E02BC3E7838CC
:100ACE002101F53819013E02E53F93052E385805F0
:100ADE001F3805FF70617273650051050038FE38CE
:100AEE008905E13E78389305F5385F04B0382E3A23
:100AFE00E13E643AE53F93051F3806FF736F75724A
:100B0E0063657005FE3D1600C73DD33D07FF2F738D
:100B1E007472696E670084050038E038CE389C39EF
:100B2E00E038E03892391F380AFF70617273652D14
:100B3E006E616D658D050038533FA6051F38003870
:100B4E00FE388905E13E7838930507394804F538B3
:100B5E005F04C83E9C398905D8389239E13E803809
:100B6E001F3803FF737030009B056E380600C73DBB
:100B7E00D33D02FF7370B8055738080003FF72703B
:100B8E003000C0050038CD0578381F3857380400BE
:100B9E0005FF646570746800C5050038BC058C3AA5
:100BAE009239033A343A1F3810FF666F7274682D0B
:100BBE007265636F676E697A6572CF056E38600015
:100BCE009F3DA93D09FF7265636F676E697A650087
:100BDE00DB0500383C38FB05C3388E09193935382A
:100BEE00FA05D13E7D061F380038E038E038C83EA1
:100BFE001D3BE03829382C3BE038B0387D06DE3F0F
:100C0E0035380C06D83853391F38EF38EF384A3993
:100C1E001F3809FF696E7465727072657400E9059C
:100C2E000038A205B03835382806E505F005B63E81
:100C3E00783835382306A701CA3B29388A3F2E3823
:100C4E001806D13E1F3806FF64743A6E756D100695
:100C5E0051387B016407640707FF64743A646E754C
:100C6E006D002A0651387B01D63FD63F07FF7265CD
:100C7E00633A6E756D0033060038E20435384F0660
:100C8E00E53FDE3F35384D062F061F3839061F3833
:100C9E007D061F3808FF7265633A66696E643D060D
:100CAE000038F206B038193935386006D8387D0666
:100CBE001F3867061F3805FF64743A7874005106B2
:100CCE0051386B066F06D63F0038D83829381F3892
:100CDE0000382039353875064E071F3829381F3829
:100CEE0007FF64743A6E756C6C00620651388106AB
:100CFE008106810600383C38F3FF853D0FFF736592
:100D0E00617263682D776F72646C69737400770615
:100D1E000038FE3853393C38A406F538C106B038D1
:100D2E00193935389E06D13ED83853391F38B03868
:100D3E00E806C338560144011F380038FE38D8384B
:100D4E00C83E0739DC06B0013538B206F538D8385A
:100D5E0053394A391F38D13EF53853391F3811FFF0
:100D6E0074726176657273652D776F72646C6973D8
:100D7E007400850600385E3BB0383538D206C83E62
:100D8E001D3BC33829382C3BE0383538D206FD09D7
:100D9E00CA3B2E38C306D13E1F380BFF6E616D6500
:100DAE003E737472696E6700B606003816043C38DE
:100DBE00FF00123A1F3807FF6E66613E63666100E0
:100DCE00D4060038FD092E3A1F3807FF66696E6497
:100DDE002D787400E20600383C38FE063C386C0074
:100DEE008E0919393538FD06D13E53391F38003872
:100DFE00FE38C83EF5388F06B03835380B07FE384A
:100E0E00EF38EF38F5384A391F3806FF6E657765CB
:100E1E007374EC0647389B0106FF6C61746573743E
:100E2E000C0747389F0108FF2863726561746529B6
:100E3E0013070038A2057708B03811078F3C8038A9
:100E4E005C08110780381F3801005C001A07003853
:100E5E008905EF38E13E80381F38010028002B0746
:100E6E0000383C3829007505D13E1F3807FF636FE7
:100E7E006D70696C650034070038F538B038A7011D
:100E8E00FE38CA3B4E071F3801FF2C003D070038C5
:100E9E00113F723B113F2E3A9501123F1F3803004E
:100EAE005B275D004B0700382F0464071F380700CF
:100EBE006C69746572616C005607003843073C38E4
:100ECE004E071F380800736C69746572616C5E079B
:100EDE0000384307B703C5031F380038113F4307D7
:100EEE00FFFF1F3800388A3F113FC338723B1F384F
:100EFE000038113F1F3800388A3F4E071F38050053
:100F0E006168656164006907003843072E3874070D
:100F1E001F380200696686070038430735387407A4
:100F2E001F380400656C73659007003843072E3830
:100F3E007407C33879071F3804007468656E980704
:100F4E00003879071F380500626567696E00A307D0
:100F5E0000387F071F3805007768696C6500AA079F
:100F6E0000389307C3381F380600726570656174C8
:100F7E00B2070038D407A7071F380500756E7469CD
:100F8E006C00BB0700383C3835384E0782071F38D7
:100F9E000500616761696E00C407003843072E388B
:100FAE0082071F380200646FCF07003843079A3A52
:100FBE007F07533937081F3804006C6F6F70D907DD
:100FCE0000384307C83A1E081F3805002B6C6F6F98
:100FDE007000E30700384307B93A1E081F380500B2
:100FEE006C6561766500EC0700384307D33A8B07D2
:100FFE0037081F3803003F646F00F60700384307B9
:10100E000D089307DC07C33837081F380038C83E71
:10101E00DE3FB038FE3835381508D13EF538FC398C
:10102E001F3807FF656E646C6F6F70000108003823
:10103E0082072B08B83835382708A7072E3820081E
:10104E001F3802FF6C3E180800384A087838783886
:10105E003C38FEFF4A08643A1F3802FF3E6C2808EF
:10106E000038EA3F4A08643A4A08783880381F3810
:10107E0003FF6C70300034086E3862009F3DA93D4E
:10108E0002FF6C703F084738A10106FF637265616D
:10109E0074654708003820078008430751381F3809
:1010AE0006FF6865616465724C080038113FFE38B2
:1010BE00FE38B038273935386E08B0383C3800FF66
:1010CE001B3AC903F5385E3B4E07F5381F383C38DE
:1010DE00F0FF853D07FF776C73636F7065005708EF
:1010EE00FE3D5E009F3DA93D06FF72657665616C13
:1010FE007108003811078F3C7838B83835388B08AE
:10110E0011077838C3383A3B1F380500646F657392
:10111E003E007B0800384307A40843070E9443079C
:10112E0099081F389A938A93CB0101967F916F91FC
:10113E00BF93AF93DB010C9404380038F5381107D8
:10114E008F3C78385E3BE806723B1F3801FF3A0051
:10115E008C0800382007BB08D8381F3807FF3A6EB6
:10116E006F6E616D6500AD080038113FB03818071D
:10117E00803843070038D0081F3801003B00B508FF
:10118E00003843071F38D80880081F3801FF5D005C
:10119E00C4080038E53FB63E80381F3801005B00BA
:1011AE00CD0800385339B63E80381F3808FF7661B7
:1011BE00726961626C65D5080038223FEF08EA3F1C
:1011CE002B3F1F3808FF636F6E7374616E74DD08FA
:1011DE00003820078008430747384E071F3804FFA2
:1011EE0075736572E9080038200780084307573881
:1011FE004E071F3807007265637572736500F60837
:10120E000038180778384E071F3809FF696D6D656D
:10121E0064696174650001090038B5095E3BB03838
:10122E00CA3B3C38FF7F123AC338723B1F38060068
:10123E005B636861725D0C09003843073C38D80463
:10124E004E071F38060061626F7274221E09003845
:10125E00893E430740091F3805FF61626F727400B3
:10126E00290900384A39853D06FF3F61626F727465
:10127E0033090038E03835384609EA033809D13EDB
:10128E001F3809FF6765742D737461636B003B092A
:10129E000038B0388F3CC3385E3BB038FE38533917
:1012AE00C3380D08353866099A3AAB3A343AC33E1C
:1012BE00CE389C395E3BC3384A39B93A5C09D13EC7
:1012CE00F5381F3809FF7365742D737461636B00F5
:1012DE0048090038CE382039353878093C38FCFFBB
:1012EE00853DC83E3A3BC33853390D08353885091C
:1012FE009A3A8F3CD93E3A3BC83A8009D8381F38C3
:10130E0009FF6D61702D737461636B00690900389C
:10131E00B0388F3CC3385E3BC33E983F0D0835381E
:10132E00AA099A3AAB3A5E3BC338FE3807392938D8
:10133E00B8383538A609F538D838D33A1F38F538C5
:10134E00EA3FB93A9909D83853391F380BFF676508
:10135E00742D63757272656E7400870900383C389F
:10136E0068005E3B1F3809FF6765742D6F726465F8
:10137E007200AD0900383C386C004F091F3809FF68
:10138E006366672D6F7264657200BA0947386C0028
:10139E0007FF636F6D7061726500C609D609BF9352
:1013AE00AF938C0189919991DC01899199919C015E
:1013BE0089919991FC01ED90F190EF1451F40A95F9
:1013CE0019F02A95C1F701C02A95022B11F488272E
:1013DE0002C08FEF00C0982FAF91BF910C940438CC
:1013EE0007FF6E66613E6C666100CF090038DC0651
:1013FE002E3A033A9C391F380BFF7365742D6375B3
:10140E007272656E7400F70900383C3868003A3B1A
:10141E001F3808FF776F72646C697374030A0038A3
:10142E001A3F5339CE383A3BB0388F3C95011B3FAB
:10143E001F380EFF666F7274682D776F72646C6959
:10144E007374100A47386A0009FF7365742D6F7242
:10145E0064657200200A00383C386C0070091F3831
:10146E000FFF7365742D7265636F676E697A6572AF
:10147E0073002B0A00383C387E0070091F380FFFAE
:10148E006765742D7265636F676E697A6572730036
:10149E00370A00383C387E004F091F3804FF636F4F
:1014AE006465460A003820078008113FA7014E07E1
:1014BE001F3808FF656E642D636F6465550A00382A
:1014CE0043070C94430704381F3808FF286D6172D8
:1014DE006B657229600A6E388A009F3DA93D08002F
:1014EE00706F7374706F6E656C0A0038A205E50537
:1014FE00F005B038FE38A701A701CA3B2938F538E8
:10150E00A701CA3B4E071F380BFF6170706C7475D4
:10151E00726E6B657900760A0038E900963C6001C0
:10152E00AD3FB7030A00466F7274686475696E6FDB
:04153E00EA031F3865
:10700000BF93AF93DB011196B21469F4FD01EE0F4B
:10701000FF1F659175911196FB01EE0FFF1F059102
:107020001591F80109949A938A938B2D9927BB2483
:107030006FEB7CE3F1CF04FF657869748B0A20382D
:10704000AF91BF91E1CF07FF657865637574650007
:107050001B382A38BC0189919991DECF2F38FD0168
:10706000EE0FFF1FA591B591CFCF3638982B8991A0
:107070009991A9F31196C8CF3D389A938A93FD014F
:10708000EE0FFF1F859195911196BECF47389A93C9
:107090008A93FB013196EE0FFF1F85919591B4CF36
:1070A00051389A938A93CB010196AECF57389A9371
:1070B0008A93FB013196EE0FFF1F85919591840D08
:1070C000951DA2CF07FF2876616C756529002338CE
:1070D00000382007800843076E381F380E9499083F
:1070E000B038A701CA3B29381F3801FF4000623879
:1070F0007938FC018191919187CF01FF210075388A
:107100008138FC018991999191838083899199912A
:107110007BCF02FF63217D388D38FC0189919991E5
:1071200080838991999170CF02FF634089389838A4
:10713000FC019927808168CF02FF407594380038A0
:10714000013B9C3978381F3802FF21759C38003884
:10715000013B9C3980381F3803FF64757000A438E8
:10716000B1389A938A9350CF04FF3F647570AC385E
:10717000B938082F092B11F09A938A9345CF04FF51
:1071800073776170B438C4388C01899199911A93DE
:107190000A933ACF04FF6F766572BF38CF389A935F
:1071A0008A938A819B8130CF04FF64726F70CA38E2
:1071B000D9388991999128CF03FF726F7400D43820
:1071C000E1388C0129913991899199913A932A93C7
:1071D0001A930A9319CF03FF6E697000DC38F038F8
:1071E000229612CF02FF723EEB38F6389A938A93BA
:1071F0008F919F9109CF02FF3E72F238FF389F9323
:107200008F938991999100CF02FF7240FB38083922
:107210009A938A938F919F919F938F93F5CE02FFBC
:107220003C3E04390038DE3F19391F3802FF303D3B
:107230000F391A39982BD1F530C002FF303C16397E
:10724000213997FD2AC032C002FF303E1D3928394E
:10725000821593055CF151F120C003FF64303E00BC
:1072600024393239821593058991999182059305C4
:10727000ECF0E1F012C003FF64303C002D394039DE
:10728000229697FD0C944D390C94563904FF747274
:1072900075653B394B399A938A938FEF9FEFB4CE44
:1072A00001FF3000463954399A938A93C101ACCE1C
:1072B00002FF753C50395C39299139918217930747
:1072C000A8F3A1F3EACF02FF753E58390038C3385E
:1072D0005B391F3801FF3C0063396E3929913991C0
:1072E000281739071CF7D9CF01FF3E006A397839D2
:1072F0002991399128173907CCF2C1F2CECF04FF7A
:107300006C6F673274398439FC01992780E18A9562
:1073100022F0EE0FFF1FD8F777CE9A9575CE01FFBA
:107320002D007F39933909911991081B190BC80158
:107330006BCE01FF2B008F399D3909911991800F78
:10734000911F62CE02FF6D2A9939A6398C0189916D
:1073500099919C0131027001209FC0013003F30814
:10736000900DE11CF31C1203F308900DE11CF31CBB
:107370009A938A93C70148CE06FF756D2F6D6F648F
:10738000A239C2397C01299139910991199140E1C1
:107390005527000F111F221F331F551F2E153F05A4
:1073A000520518F003952E193F094A9589F73A932B
:1073B0002A93C80129CE03FF756D2A00BC39E03934
:1073C0008C0189919991809FF00122273327909F0A
:1073D000F00D211D331D819FF00D211D331D919F47
:1073E000200D311DCF019A938A93C9010DCE06FF5E
:1073F000696E76657274DB39FD398095909504CE9F
:1074000002FF322FF739043A95958795FDCD02FF9B
:10741000322A003A0B3A880F991FF6CD03FF616EAE
:107420006400073A133A0991199180239123ECCD16
:1074300002FF6F720E3A1C3A09911991802B912B21
:10744000E3CD03FF786F7200183A263A099119913B
:1074500080279127D9CD02FF312B213A2F3A01966F
:10746000D3CD02FF312D2B3A353A0197CDCD07FF11
:107470003F6E656761746500313A003820393538F0
:10748000423A263E1F3806FF6C7368696674373AC5
:10749000493AFC018991999131971AF0880F991F07
:1074A000FBCFB2CD06FF727368696674433A583AEF
:1074B000FC018991999131971AF096958795FBCFA8
:1074C000A3CD02FF2B21523A653AFC018991999193
:1074D00020813181820F931F8083918389919991BB
:1074E00093CD03FF72704000613A763A9A938A9383
:1074F0008DB79EB789CD03FF72702100713A803A33
:107500002FB7F8948DBF9EBF2FBF899199917CCDE5
:1075100003FF737040007B3A8D3A9A938A93CE01B1
:1075200073CD03FF73702100883A963AEC0189917C
:1075300099916ACD9B3A29913991E0E83E0F821BDF
:10754000930B3F932F939F938F93899199915CCD48
:1075500001FF6900913AAC3A9A938A938F919F9177
:10756000EF91FF91FF93EF939F938F938E0F9F1F48
:107570004BCDBA3AEF91FF91E80FF91F899199919C
:107580001BF0FF93EF936BCD0F911F9111963CCDA4
:10759000C93AEF91FF913196BBF3F3CF06FF756EB9
:1075A0006C6F6F70A83AD43A1F910F911F910F9191
:1075B0002BCD06FF636D6F76653ECE3ADF3ABF9303
:1075C000AF93E991F991A991B991092F082B41F055
:1075D000E80FF91FA80FB91F1E9112930197E1F749
:1075E000AF91BF91899199910FCD02FF3E3CD93A5D
:1075F000F93A092F982F802F07CD03FF75704000AF
:10760000F53A023B9A938A93C201FECC03FF757050
:107610002100FD3A0B3B2C0189919991F5CC03FF98
:10762000316D7300063B143BE0EAFFE03197F1F760
:10763000EBCC03FF323E72000F3B1E3BFC018991F5
:1076400099919F938F93FF93EF9389919991DCCCBC
:1076500003FF32723E00193B2D3B9A938A93EF91C0
:10766000FF918F919F919A938A93CF01CDCC02FF86
:107670002165283B3B3BFC01899199912FB7F894F8
:1076800028D000B5081709F00BD0319622D000B5EC
:10769000091711F0892F04D02FBF89919991B4CC8B
:1076A000F999FECF07B700FDFDCFF2BDE1BD80BD6A
:1076B000FA9AF99A089502FF4065373B5F3B2FB76E
:1076C000F894FC0106D080B5319603D090B52FBF59
:1076D0009BCCF999FECFF2BDE1BDF89A089502FF67
:1076E00021695B3BFE3D88009F3DA93D09FF2821A4
:1076F000692D6E72777729006F3B7E3B1FB71F9312
:10770000F8949C0189919991AF93BF93CF93DF93A4
:1077100009D0DF91CF91BF91AF91899199911F913C
:107720001FBF72CC10D0E094F0948E219F21982B33
:1077300019F0F90102E020D0F90104E01DD0F901AF
:1077400000E11AD00895F901E07CFF7FEF01A0E489
:10775000B0E0FE01EE0FFF1F45915591FE01E217CB
:10776000F30711F00A0102C07A010C01002704D0CE
:107770002196119771F70895F999FECF17B710FD6B
:10778000FDCFEE0FFF1F016007BFE895089502FFD0
:107790004069763BCB3BFC01EE0FFF1F8591959135
:1077A00033CC03FF6E3E7200C73BD63BFC01082F73
:1077B000899199919F938F930A95D1F7EF93FF93B6
:1077C0008991999121CC03FF6E723E00D13BE83B39
:1077D0009A938A93FF91EF910E2F8F919F919A9395
:1077E0008A930A95D1F7CF010FCC03FF64322A00A8
:1077F000E33BFA3B09911991000F111F881F991F54
:107800001A930A9301CC03FF64322F00F53B083C26
:107810000991199195958795179507951A930A934C
:10782000F3CB02FF642B033C153C29913991E9907D
:10783000F99049915991240F351F8E1D9F1D3A9340
:107840002A93E2CB02FF642D113C263C2991399109
:10785000E990F99049915991421B530BE80AF90AB2
:107860005A934A93C701D0CB07FF64696E7665725D
:107870007400223C3B3C09911991809590950095AC
:1078800010951A930A93C0CB04FF2F6D6F64343C9C
:10789000493C9C0109911991412F432717FF04C0CE
:1078A000109500950F5F1F4F37FF04C0309520954E
:1078B0002F5F3F4FEE24FF1851E1001F111F5A9513
:1078C00039F447FF04C0109500950F5F1F4F0BC0A0
:1078D000EE1CFF1CE21AF30A20F4E20EF31E889459
:1078E000ECCF0894EACFFA92EA92C8018DCB03FF5D
:1078F00061627300443C0038B0383D3A1F3804FFE1
:107900007069636B773C00382E3AC33E8C3A9C39E1
:1079100078381F3805FF63656C6C2B007F3C903C0A
:10792000029672CB04FF2B696E748A3C973C789464
:107930006BCB04FF2D696E74923C9E3CF89464CB33
:1079400004FF696E7421993C00383C3800009C3972
:107950003A3B1F3804FF696E7440A03C00383C3845
:1079600000009C395E3B1F3808FF696E742D7472ED
:107970006170AA3CBB3CB82E8991999145CB0038E7
:10798000AE3C2938C43C1F38C53C01D03DCB1895CE
:107990000038B7030300206F6B00EA031F3803FFB2
:1079A0002E6F6B00B43CFE3D1C00C73DD33D00383C
:1079B000B70302003E20A03FEA031F3806FF2E72E5
:1079C00065616479CF3CFE3D2000C73DD33D003862
:1079D000B7030400203F3F20EA03BC3E7838FE385E
:1079E000403F6C03E13E78386C03F538BC3E80388C
:1079F0001F3806FF2E6572726F72DE3CFE3D1E0060
:107A0000C73DD33D04FF71756974F93C00384308E4
:107A10004A088038BC05953AC9057F3AD808B63E71
:107A2000783819393538153DE33CD0043538273DD1
:107A30003C3817066F3DB8383538273DB0383C38EC
:107A4000FEFF6D393538253DFE3C2E38073DD33CD1
:107A50002E380F3D05FF706175736500023DFE3DD8
:107A6000A301B33DBD3D04FF636F6C642A3D383D07
:107A7000A4B622243324BB2424BEE0E0F1E021920A
:107A8000E030E9F7FB30D9F7E5EAF1E02F010FEF3D
:107A90000DBF04831AE01EBF1583CFEAC683DAE068
:107AA000D783A9E5BDE3B0CA04FF7761726D333DAA
:107AB000003889023C387B013C382F3DDE3DD80838
:107AC0005B3F063D07FF68616E646C657200543D64
:107AD00057380A0005FF636174636800623D00382F
:107AE0008C3AFE38683D7838FE38753A683D803803
:107AF0002938F538683D8038F538D83853391F387B
:107B000005FF7468726F77006A3D0038B038193924
:107B100035388C3DD8381F38683D78387F3AF5388D
:107B2000683D8038F538C338FE38953AD838F5388E
:107B30001F3807FF4564656665724000803D003868
:107B4000CA3B5E3B1F3807FF4564656665722100CE
:107B5000993D0038CA3B3A3B1F3807FF52646566BF
:107B600065724000A33D0038CA3B78381F3807FFD4
:107B70005264656665722100AD3D0038CA3B8038AD
:107B80001F3807FF5564656665724000B73D0038D1
:107B9000CA3B013B9C3978381F3807FF556465663E
:107BA00065722100C13D0038CA3B013B9C398038D9
:107BB0001F3806FF646566657221CD3D0038CF3FF2
:107BC000B038A701A701CA3B29381F3806FF6465F2
:107BD00066657240D93D0038CF3FB038A701CA3B37
:107BE00029381F3807FF2864656665722900E63D5D
:107BF0000038200780084307FE3D1F380E9499087F
:107C0000B038A701CA3B293829381F3802FF752E22
:107C1000F23D0038533974031F3803FF752E72008C
:107C2000063E00385339C3387D031F3805FF752FD2
:107C30006D6F64000D3E0038FE385339F538C13998
:107C40001F3806FF6E6567617465163E0038FC39A3
:107C50002E3A1F3801FF2F00213E0038483CEF38F4
:107C60001F3803FF6D6F64002A3E0038483CD83847
:107C70001F3803FF6D696E00313E0038C83E77390A
:107C80003538433EC338D8381F3803FF6D6178005C
:107C9000393E0038C83E6D3935384F3EC338D83884
:107CA0001F3806FF77697468696E453E0038CE3824
:107CB0009239FE389239F5385B391F380DFF7368F9
:107CC0006F772D776F72646C69737400513E003862
:107CD0003C386D3EC338C1061F380038DC06EA0365
:107CE000AD3F4A391F3805FF776F726473005E3EFF
:107CF00000383C386E005E3B673E1F3802002E2283
:107D0000733E0038893E4307EA031F38020073229E
:107D10007E3E00383C3822007505B63E783835384E
:107D2000923E6F071F3804FF66696C6C863E003810
:107D3000E038E038B8383538A43E983F9A3AB03841
:107D4000AB3A8C38C83A9F3ED8381F3805FF665F7B
:107D500063707500933E00383C3800243C38F400D2
:107D60001F3805FF737461746500A63E4738D10162
:107D700004FF62617365B13E57380C0005FF63650F
:107D80006C6C7300B83E0B3A04FF32647570BE3EF3
:107D90000038CE38CE381F3805FF3264726F70005D
:107DA000C43E0038D838D8381F3804FF7475636B68
:107DB000CC3E0038C338CE381F3803FF3E696E0012
:107DC000D53E5738180003FF70616400DD3E00386F
:107DD000223F3C3828009C391F3804FF656D6974C8
:107DE000E33EFE3D0E00C73DD33D05FF656D697462
:107DF0003F00ED3EFE3D1000C73DD33D03FF6B65E8
:107E00007900F53EFE3D1200C73DD33D04FF6B6592
:107E1000793FFE3EFE3D1400C73DD33D02FF647036
:107E2000063F6E3858009F3DA93D05FF65686572A5
:107E300065000E3F6E385C009F3DA93D04FF6865FC
:107E40007265153F6E385A009F3DA93D05FF616C74
:107E50006C6F74001E3F0038223F9C399501233F10
:107E60001F3803FF62696E00263F0038EA3FBC3EC0
:107E700080381F3807FF646563696D616C00313FAE
:107E800000383C380A00BC3E80381F3803FF686564
:107E900078003A3F00383C381000BC3E80381F382C
:107EA00002FF626C463F4738200007FF7475726E10
:107EB0006B657900503FFE3D64009F3DA93D07FF83
:107EC000746F757070657200553F0038B0383C387B
:107ED00061003C387B00563E3538713F3C38DF004E
:107EE000123A1F3807FF746F6C6F776572005F3F3F
:107EF0000038B0383C3841003C385B00563E3538DD
:107F0000843F3C3820001B3A1F3806FF3F737461E2
:107F1000636B723F0038D40520393538923F3C38C6
:107F2000FCFF853D1F3806FF626F756E6473853FE9
:107F30000038CE389C39C3381F3802FF6372933F34
:107F400000383C380D00F13E3C380A00F13E1F3845
:107F500005FF7370616365009D3F0038533FF13E3C
:107F60001F3806FF737061636573A83F003853398B
:107F7000493EB0383538C03FAD3F343A2E38B93F6E
:107F8000D8381F3803FF733E6400B13F0038B03863
:107F900020391F3805FF3E626F647900C23F2F3AD7
:107FA0000800326C69746572616CCA3F0038C3386E
:107FB000640764071F3801FF3D00D03F0038923945
:107FC00019391F3801FF3100DB3F4738010001FF3D
:107FD0003200E23F4738020002FF2D31E73F4738C9
:027FE000FFFFA1
:00000001FF
