:020000020000FC
:0200040039D1F0
:0200080037D1EE
:02000C0035D1EC
:0200100033D1EA
:0200140031D1E8
:020018002FD1E6
:02001C002DD1E4
:020020002BD1E2
:0200240029D1E0
:0200280027D1DE
:02002C0025D1DC
:0200300023D1DA
:0200340021D1D8
:020038001FD1D6
:02003C001DD1D4
:020040001BD1D2
:0200440019D1D0
:0200480017D1CE
:02004C0015D1CC
:0200500013D1CA
:0200540011D1C8
:020058000FD1C6
:02005C000DD1C4
:020060000BD1C2
:0200640009D1C0
:0200680007D1BE
:02006C0005D1BC
:0200700003D1BA
:0200740001D1B8
:02007800FFD0B7
:02007C00FDD0B5
:02008000FBD0B3
:02008400F9D0B1
:10008800F7D000400010FFFF23000B0041546D65BE
:10009800676131323834500007FF3E72782D62753F
:1000A800660000005700082F10911001E0E0F1E011
:1000B800E10FF31D008313951F70109310018991B0
:1000C80099910C9405F006FF6973722D72785000AF
:1000D80001F046F0C600AAF0C3F046F003009AFD0E
:1000E8003FF0770074FA560026F001F046F06C00F5
:1000F80046F02800A2F446F0000146F0160066F12A
:10010800EAF426F006FF72782D627566670001F042
:10011800A6003FF08C0046F01101AAF0C3F046F0AB
:100128000001AFF1AAF0D6F041F246F00F0025F237
:1001380046F011019FF026F007FF72783F2D627597
:100148006600860001F06CFA46F01101AAF046F04C
:100158001001AAF025F126F007FF74782D706F6C56
:100168006C00A00001F0C4003FF0B70046F0C600E4
:100178009FF026F008FF74783F2D706F6C6CB0000C
:1001880001F06CFA46F0C000AAF046F0200025F213
:1001980026F004FF75627272BE0081F09E00CFFBEC
:1001A800D9FB06FF2B7573617274CD0001F046F020
:1001B800980046F0C1009FF046F0060046F0C200E5
:1001C8009FF0D100C3F00BF346F0C5009FF046F056
:1001D800C4009FF0790026F008FF31772E7265730E
:1001E8006574D500F7009A938A93249A2C98E0E8CE
:1001F800F7E03197F1F71FB7F8942C9A2498E0E0CC
:10020800F1E03197F1F783B184FF9FEF1FBF249886
:100218002C98E0E8F6E03197F1F7892F0C9405F077
:1002280007FF31772E736C6F7400F0001B012C9858
:10023800249A1FB7F894E8E1F0E03197F1F7889431
:10024800879510F42C9A2498E4E2F0E03197F1F7BE
:1002580003B104FD8068ECECF0E03197F1F72C9ADB
:100268002498E8E0F0E03197F1F71FBF0C9405F00F
:040000000C9475FAED
:100278000A920FB60A920F900F900A94B02CFF932F
:10028800EF93E2E1F1E00694E00DF31D00800394A2
:100298000082EF91FF9109900FBE0990089502FF27
:1002A8006D2B140101F082FD30F426F003FF756414
:1002B8002A00530101F0C3F011F1F2F1EBF0D6F08E
:1002C80008F1F2F1F3F0AFF126F004FF756D6178F3
:1002D8005A0101F080F56EF13FF07301D6F0EBF0B2
:1002E80026F004FF756D696E690101F080F579F1FA
:1002F8003FF07F01D6F0EBF026F001F046F00080E9
:1003080025F22CF13FF08A01A1FD26F05DF126F0DF
:100318000AFF6E616D653E666C616773750101F079
:10032800E3F346F000FF25F226F006FF6E657765D9
:1003380073748C0154F0350106FF6C617465737435
:10034800990154F0390108FF2863726561746529C1
:10035800A00101F0CFF90403C3F09E0179F593F0F1
:10036800E9029E0193F026F001005C00A70101F06C
:10037800B6F902F199F593F026F001002800B801CA
:1003880001F046F02900A2F989F526F007FF636F0E
:100398006D70696C6500C10101F008F1C3F0C6FB1E
:1003A80011F1E3F3DB0126F001FF2C00CA0101F093
:1003B800C9F585F3C9F541F2B4FBCAF526F0030087
:1003C8005B275D00D80101F025F8F10126F0070050
:1003D8006C69746572616C00E30101F0D00146F04C
:1003E800DB0126F00800736C69746572616CEB01BF
:1003F80001F0D00188F796F726F001F0C9F5D00191
:10040800FFFF26F001F072FBC9F5D6F085F326F060
:1004180001F0C9F526F001F072FBDB0126F00500BA
:10042800616865616400F60101F0D00135F00102F0
:1004380026F002006966130201F0D0013FF00102C4
:1004480026F00400656C73651D0201F0D00135F0DB
:100458000102D6F0060226F004007468656E2502D3
:1004680001F0060226F00500626567696E00300239
:1004780001F00C0226F005007768696C6500370208
:1004880001F02002D6F026F00600726570656174EE
:100498003F0201F06102340226F00500756E7469AE
:1004A8006C00480201F046F03FF0DB010F0226F035
:1004B8000500616761696E00510201F0D00135F0F5
:1004C8000F0226F00200646F5C0201F0D001ADF269
:1004D8000C0266F1C40226F004006C6F6F706602AD
:1004E80001F0D001DBF2AB0226F005002B6C6F6F38
:1004F8007000700201F0D001CCF2AB0226F00500CA
:100508006C6561766500790201F0D001E6F21802A7
:10051800C40226F003003F646F00830201F0D0019B
:100528009A0220026902D6F0C40226F001F080F592
:100538009AFDC3F011F13FF0A20289F508F10FF21C
:1005480026F007FF656E646C6F6F70008E0201F015
:100558000F02B802CBF03FF0B402340235F0AD021E
:1005680026F002FF6C3EA50201F0D7028BF08BF05B
:1005780046F0FEFFD70277F226F002FF3E6CB50286
:1005880001F0A6FDD70277F2D7028BF093F026F0A0
:1005980003FF6C703000C10281F05200CFFBD9FB21
:1005A80002FF6C70CC0254F03B0106FF6372656178
:1005B8007465D40201F0AD010D03D00161F026F09D
:1005C80006FF686561646572D90201F0C9F511F129
:1005D80011F1C3F03AF13FF0FB02C3F046F000FF1F
:1005E8002EF29AF708F171F3DB0108F126F046F0D4
:1005F800F0FF5CF807FF776C73636F706500E402C7
:100608002EFC4E00CFFBD9FB06FF72657665616C48
:10061800FE0201F09E0179F58BF0CBF03FF0180354
:100628009E018BF0D6F04DF326F00500646F6573DC
:100638003E00080301F0D0013103D0010E94D0012F
:10064800260326F09A938A93CB0101967F916F91A6
:10065800BF93AF93DB010C9405F001F008F19E0104
:1006680079F58BF071F399FC85F326F001FF3A00D8
:10067800190301F0AD014803EBF026F007FF3A6ECD
:100688006F6E616D65003A0301F0C9F5C3F0A5010D
:1006980093F0D00101F05D0326F001003B00420316
:1006A80001F0D00126F065030D0326F001FF5D007F
:1006B800510301F0A1FD66F593F026F001005B00FF
:1006C8005A0301F066F166F593F026F008FF7661AB
:1006D800726961626C65620301F0DAF57C03A6FD5C
:1006E800E3F526F008FF636F6E7374616E746A0336
:1006F80001F0AD010D03D00154F0DB0126F004FF39
:1007080075736572760301F0AD010D03D00167F0D2
:10071800DB0126F007007265637572736500830359
:1007280001F0A5018BF0DB0126F009FF696D6D650D
:100738006469617465008E0301F0420471F3C3F0CB
:10074800E3F346F0FF7F25F2D6F085F326F00600A6
:100758005B636861725D990301F0D00146F005F9A9
:10076800DB0126F0060061626F727422AB0301F0B0
:10077800DCF4D001CD0326F005FF61626F727400CE
:10078800B60301F05DF15CF806FF3F61626F7274B9
:10079800C00301F0F3F03FF0D303BBF7C50389F5BD
:1007A80026F009FF6765742D737461636B00C803D5
:1007B80001F0C3F079F5D6F071F3C3F011F166F1E9
:1007C800D6F09A023FF0F303ADF2BEF247F273F5AA
:1007D800E1F0AFF171F3D6F05DF1CCF2E90389F500
:1007E80008F126F009FF7365742D737461636B005B
:1007F800D50301F0E1F033F13FF0050446F0FCFFCA
:100808005CF880F54DF3D6F066F19A023FF01204D9
:10081800ADF279F591F54DF3DBF20D04EBF026F02E
:1008280009FF6D61702D737461636B00F60301F04D
:10083800C3F079F5D6F071F373F579FD9A023FF0BC
:100848003704ADF2BEF271F3D6F011F11AF130F0BF
:10085800CBF03FF0330408F1EBF0E6F226F008F1B4
:10086800A6FDCCF22604EBF066F126F00BFF6765D7
:10087800742D63757272656E7400140401F046F08D
:10088800580071F326F009FF6765742D6F7264656F
:1008980072003A0401F046F05C00DC0326F009FF20
:1008A8006366672D6F7264657200470454F05C00DC
:1008B80007FF636F6D706172650053046304BF9333
:1008C800AF938C0189919991DC01899199919C014F
:1008D80089919991FC01ED90F190EF1451F40A95EA
:1008E80019F02A95C1F701C02A95022B11F488271F
:1008F80002C08FEF00C0982FAF91BF910C9405F004
:1009080007FF6E66613E6C6661005C0401F08DFC59
:1009180041F216F2AFF126F002FF2E73840401F0C3
:10092800BCFA63F4FDF7BCFA66F19A023FF0A20440
:10093800ADF2BEF2CAF463F4DBF29D0426F006FFC2
:100948006321407370699004A90403D099270C941B
:1009580005F08EBD0DB5087F0DBD0DB507FFFACFAB
:100968008EB5089505FF6E4073706900A304BC043A
:100978008C0189919991FC01C8012EBC2DB527FFE6
:10098800FDCF2EB521930197C1F7899199910C94C8
:1009980005F005FF6E2173706900B604D3048C015D
:1009A80089919991FC01C80121912EBD2DB527FF90
:1009B800FDCF2EB50197C1F7899199910C9405F057
:1009C8000BFF6170706C7475726E6B657900CD0485
:1009D80001F0DA0094F47FFBFDF75BF546F0E803DD
:1009E800D4F102F1F8F53DF788F704006B487A2056
:1009F800BBF726F00BFF7365742D63757272656E15
:100A08007400E40401F046F058004DF326F008FFA6
:100A1800776F72646C697374FE0401F0D2F566F145
:100A2800E1F04DF3C3F079F5B4FBD3F526F00EFFF2
:100A3800666F7274682D776F72646C6973740B05D6
:100A480054F05A0009FF7365742D6F726465720063
:100A58001B0501F046F05C00FD0326F00FFF7365EF
:100A6800742D7265636F676E697A65727300260507
:100A780001F046F06E00FD0326F00FFF6765742D48
:100A88007265636F676E697A65727300320501F08B
:100A980046F06E00DC0326F004FF636F64654105D1
:100AA80001F0AD010D03C9F5C6FBDB0126F008FF17
:100AB800656E642D636F6465500501F0D0010C9478
:100AC800D00105F026F008FF286D61726B65722968
:100AD8005B0581F07A00CFFBD9FB0800706F737457
:100AE800706F6E65670501F0CFF9E7FAF2FAC3F0A7
:100AF80011F1C6FBC6FBE3F330F008F1C6FBE3F3E4
:100B0800DB0126F003FF3272400071058B059A93D2
:100B18008A93EF91FF918F919F919F938F93FF936A
:0C0B2800EF939A938A93CF010C9405F090
:020000021000EC
:10E00200BF93AF93DB011196B21499F4FD0155272A
:10E01200EE0FFF1F551F5BBF679177911196FB01B2
:10E022005527EE0FFF1F551F5BBF07911791F80190
:10E0320009949A938A938B2D9927BB246DEB74EFE5
:10E04200EECF04FF65786974860527F0AF91BF9122
:10E05200DBCF07FF657865637574650022F031F0E8
:10E06200BC0189919991DBCF36F0FD015527EE0F66
:10E07200FF1F551F5BBFA791B791C6CF40F0982BEA
:10E082008991999191F31196BFCF47F09A938A9310
:10E09200FD015527EE0FFF1F551F5BBF879197911B
:10E0A2001196B2CF54F09A938A93FB013196552779
:10E0B200EE0FFF1F551F5BBF87919791A5CF61F0B0
:10E0C2009A938A93CB0101969FCF67F09A938A9392
:10E0D200FB0131965527EE0FFF1F551F5BBF87913E
:10E0E2009791840D951D90CF07FF2876616C756519
:10E0F20029002AF001F0AD010D03D00181F026F0D4
:10E102000E942603C3F0C6FBE3F330F026F001FFC2
:10E11200400075F08CF0FC018191919175CF01FF67
:10E12200210088F094F0FC01899199919183808378
:10E132008991999169CF02FF632190F0A0F0FC01CF
:10E14200899199918083899199915ECF02FF634071
:10E152009CF0ABF0FC019927808156CF02FF4075FD
:10E16200A7F001F014F3AFF18BF026F002FF217556
:10E17200AFF001F014F3AFF193F026F003FF6475F2
:10E182007000B7F0C4F09A938A933ECF04FF3F64C5
:10E192007570BFF0CCF0082F092B11F09A938A9377
:10E1A20033CF04FF73776170C7F0D7F08C01899188
:10E1B20099911A930A9328CF04FF6F766572D2F071
:10E1C200E2F09A938A938A819B811ECF04FF647244
:10E1D2006F70DDF0ECF08991999116CF03FF726FA9
:10E1E2007400E7F0F4F08C012991399189919991A9
:10E1F2003A932A931A930A9307CF03FF6E6970002A
:10E20200EFF003F1229600CF02FF723EFEF009F119
:10E212009A938A938F919F91F7CE02FF3E7205F1F6
:10E2220012F19F938F9389919991EECE02FF7240E2
:10E232000EF11BF19A938A938F919F919F938F93E3
:10E24200E3CE02FF3C3E17F101F09AFD2CF126F0DD
:10E2520002FF303D22F12DF1982BD1F530C002FFA3
:10E26200303C29F134F197FD2AC032C002FF303E22
:10E2720030F13BF1821593055CF151F120C003FFAF
:10E2820064303E0037F145F18215930589919991E9
:10E2920082059305ECF0E1F012C003FF64303C000C
:10E2A20040F153F1229697FD0C9460F10C9469F1C0
:10E2B20004FF747275654EF15EF19A938A938FEF43
:10E2C2009FEFA2CE01FF300059F167F19A938A9332
:10E2D200C1019ACE02FF753C63F16FF12991399128
:10E2E20082179307A8F3A1F3EACF02FF753E6BF101
:10E2F20001F0D6F06EF126F001FF3C0076F181F1DB
:10E3020029913991281739071CF7D9CF01FF3E000F
:10E312007DF18BF12991399128173907CCF2C1F29D
:10E32200CECF04FF6C6F673287F197F1FC0199271A
:10E3320080E18A9522F0EE0FFF1FD8F765CE9A95FD
:10E3420063CE01FF2D0092F1A6F109911991081BEC
:10E35200190BC80159CE01FF2B00A2F1B0F10991AE
:10E362001991800F911F50CE02FF6D2AACF1B9F1C5
:10E372008C01899199919C0131027001209FC00109
:10E382003003F308900DE11CF31C1203F308900D07
:10E39200E11CF31C9A938A93C70136CE06FF756D72
:10E3A2002F6D6F64B5F1D5F17C01299139910991F5
:10E3B200199140E15527000F111F221F331F551FCE
:10E3C2002E153F05520518F003952E193F094A955F
:10E3D20089F73A932A93C80117CE03FF756D2A0075
:10E3E200CFF1F3F18C0189919991809FF00122275D
:10E3F2003327909FF00D211D331D819FF00D211DAC
:10E40200331D919F200D311DCF019A938A93C9012B
:10E41200FBCD06FF696E76657274EEF110F280959F
:10E422009095F2CD02FF322F0AF217F29595879559
:10E43200EBCD02FF322A13F21EF2880F991FE4CDB0
:10E4420003FF616E64001AF226F20991199180238A
:10E452009123DACD02FF6F7221F22FF20991199105
:10E46200802B912BD1CD03FF786F72002BF239F202
:10E472000991199180279127C7CD02FF312B34F2E0
:10E4820042F20196C1CD02FF312D3EF248F20197D0
:10E49200BBCD07FF3F6E65676174650044F201F012
:10E4A20033F13FF055F25AF626F006FF6C736869B5
:10E4B20066744AF25CF2FC018991999131971AF0E3
:10E4C200880F991FFBCFA0CD06FF7273686966742F
:10E4D20056F26BF2FC018991999131971AF0969557
:10E4E2008795FBCF91CD02FF2B2165F278F2FC01DB
:10E4F2008991999120813181820F931F8083918329
:10E502008991999181CD03FF7270400074F289F272
:10E512009A938A938DB79EB777CD03FF72702100CD
:10E5220084F293F22FB7F8948DBF9EBF2FBF8991CB
:10E5320099916ACD03FF737040008EF2A0F29A9314
:10E542008A93CE0161CD03FF737021009BF2A9F281
:10E55200EC018991999158CDAEF229913991E0E877
:10E562003E0F821B930B3F932F939F938F9389911F
:10E5720099914ACD01FF6900A4F2BFF29A938A935E
:10E582008F919F91EF91FF91FF93EF939F938F93C1
:10E592008E0F9F1F39CDCDF2EF91FF91E80FF91F3A
:10E5A200899199911BF0FF93EF935FCD0F911F918A
:10E5B20011962ACDDCF2EF91FF913196BBF3F3CFA6
:10E5C20006FF756E6C6F6F70BBF2E7F21F910F91D1
:10E5D2001F910F9119CD06FF636D6F76653EE1F2D3
:10E5E200F2F2BF93AF93E991F991A991B991092FF1
:10E5F200082B41F0E80FF91FA80FB91F1E911293C3
:10E602000197E1F7AF91BF9189919991FDCC02FFFA
:10E612003E3CECF20CF3092F982F802FF5CC03FF30
:10E622007570400008F315F39A938A93C201ECCCFB
:10E6320003FF7570210010F31EF32C01899199914B
:10E64200E3CC03FF316D730019F327F3E0EAFFE037
:10E652003197F1F7D9CC03FF323E720022F331F346
:10E66200FC01899199919F938F93FF93EF938991E5
:10E672009991CACC03FF32723E002CF340F39A9375
:10E682008A93EF91FF918F919F919A938A93CF01F1
:10E69200BBCC02FF21653BF34EF3FC0189919991BA
:10E6A2002FB7F89428D000B5081709F00BD031968F
:10E6B20022D000B5091711F0892F04D02FBF8991FC
:10E6C2009991A2CCF999FECF07B700FDFDCFF2BD1B
:10E6D200E1BD80BDFA9AF99A089502FF40654AF3B6
:10E6E20072F32FB7F894FC0106D080B5319603D0AF
:10E6F20090B52FBF89CCF999FECFF2BDE1BDF89A52
:10E70200089502FF21696EF32EFC7800CFFBD9FB3E
:10E7120009FF2821692D6E727777290082F391F320
:10E722001FB71F93F8949C0189919991AF93BF935E
:10E73200CF93DF9309D0DF91CF91BF91AF918991B0
:10E7420099911F911FBF60CC10D0E094F0948E215C
:10E752009F21982B19F0F90102E023D0F90104E07E
:10E7620020D0F90100E11DD00895F901E078FF7F82
:10E77200EF01A0E8B0E0FE015527EE0FFF1F551F85
:10E782005BBF47915791FE01E217F30711F00A01AF
:10E7920002C07A010C01002704D02196119759F783
:10E7A2000895F999FECF17B710FDFDCF5527EE0F4B
:10E7B200FF1F551F5BBF016007BFE895089502FF69
:10E7C200406989F3E4F3FC015527EE0FFF1F551F43
:10E7D2005BBF8791979118CC03FF6E3E7200E0F306
:10E7E200F2F3FC01082F899199919F938F930A95D7
:10E7F200D1F7EF93FF938991999106CC03FF6E7243
:10E802003E00EDF304F49A938A93FF91EF910E2F59
:10E812008F919F919A938A930A95D1F7CF01F4CB66
:10E8220003FF64322A00FFF316F409911991000FD5
:10E83200111F881F991F1A930A93E6CB03FF6432B4
:10E842002F0011F424F40991199195958795179544
:10E8520007951A930A93D8CB02FF642B1FF431F465
:10E8620029913991E990F99049915991240F351FD5
:10E872008E1D9F1D3A932A93C7CB02FF642D2DF460
:10E8820042F429913991E990F99049915991421BA9
:10E89200530BE80AF90A5A934A93C701B5CB07FF0B
:10E8A20064696E76657274003EF457F409911991A9
:10E8B20080959095009510951A930A93A5CB02FF27
:10E8C200752E50F401F066F145F726F003FF752E20
:10E8D200720060F401F066F1D6F04EF726F00DFFFB
:10E8E20073686F772D776F72646C6973740067F465
:10E8F20001F046F07FF4D6F072FC26F001F08DFCB8
:10E90200BBF7FDF75DF126F005FF776F72647300C8
:10E9120070F401F046F05E0071F379F426F004FF22
:10E922002B696E7485F495F478946ECB04FF2D698F
:10E932006E7490F49CF4F89467CB04FF696E7421B2
:10E9420097F401F046F00000AFF14DF326F004FF1A
:10E95200696E74409EF401F046F00000AFF171F36D
:10E9620026F008FF696E742D74726170A8F4B9F410
:10E97200B82E8991999148CB01F0ACF430F0C2F4F1
:10E9820026F0C3F401D040CB189504FF7069636B85
:10E99200B2F401F041F273F59FF2AFF18BF026F081
:10E9A20002002E22C6F401F0DCF4D001BBF726F0FF
:10E9B20002007322D1F401F046F02200A2F966F5BA
:10E9C2008BF03FF0E5F4FC0126F004FF66696C6C05
:10E9D200D9F401F0F3F0F3F0CBF03FF0F7F479FD66
:10E9E200ADF2C3F0BEF29FF0DBF2F2F4EBF026F0F0
:10E9F2000BFF656E7669726F6E6D656E7400E6F47C
:10EA020054F0560009FF776F72646C697374730077
:10EA1200000001F046F0080026F004FF2F70616448
:10EA220003F501F09FF29FF5A5F126F005FF2F688F
:10EA32006F6C64000EF501F09FF5DAF5A5F126F092
:10EA42000AFF666F7274682D6E616D6517F501F0CD
:10EA520088F70700616D666F7274680026F007FF21
:10EA620076657273696F6E0021F501F046F0410020
:10EA720026F003FF6370750030F501F046F049009F
:10EA8200E7F726F008FF6D63752D696E666F3AF53C
:10EA920001F046F0450026F005FF2F757365720000
:10EAA20043F501F046F02C0026F005FF665F637027
:10EAB2007500F9F401F046F0002446F0F40026F067
:10EAC20005FF73746174650056F554F03D0104FF4F
:10EAD2006261736561F567F00C0005FF63656C6C3C
:10EAE200730068F51EF205FF63656C6C2B006EF512
:10EAF2007AF5029689CA04FF3264757074F501F0E2
:10EB0200E1F0E1F026F005FF3264726F70007CF5EF
:10EB120001F0EBF0EBF026F004FF7475636B84F503
:10EB220001F0D6F0E1F026F003FF3E696E008DF5AC
:10EB320067F0180003FF7061640095F501F0DAF5E3
:10EB420046F02800AFF126F004FF656D69749BF56D
:10EB52002EFC0E00F7FB03FC05FF656D69743F0098
:10EB6200A5F52EFC1000F7FB03FC03FF6B65790093
:10EB7200ADF52EFC1200F7FB03FC04FF6B65793F39
:10EB8200B6F52EFC1400F7FB03FC02FF6470BEF521
:10EB920081F04800CFFBD9FB05FF6568657265000F
:10EBA200C6F581F04C00CFFBD9FB04FF68657265A6
:10EBB200CDF581F04A00CFFBD9FB05FF616C6C6F8C
:10EBC2007400D6F501F0DAF5AFF1B4FBDBF526F00F
:10EBD20003FF62696E00DEF501F0A6FD6CF593F0AD
:10EBE20026F007FF646563696D616C00E9F501F069
:10EBF20046F00A006CF593F026F003FF6865780092
:10EC0200F2F501F046F010006CF593F026F002FFE9
:10EC1200626CFEF554F0200007FF7475726E6B652E
:10EC2200790008F62EFC5400CFFBD9FB04FF2F6DB0
:10EC32006F640DF61CF69C0109911991412F43272F
:10EC420017FF04C0109500950F5F1F4F37FF04C0D8
:10EC5200309520952F5F3F4FEE24FF1851E1001FA2
:10EC6200111F5A9539F447FF04C0109500950F5FA4
:10EC72001F4F0BC0EE1CFF1CE21AF30A20F4E20E37
:10EC8200F31E8894ECCF0894EACFFA92EA92C80174
:10EC9200BBC905FF752F6D6F640017F601F011F106
:10ECA20066F108F1D4F126F006FF6E6567617465BE
:10ECB2004AF601F00FF241F226F001FF2F0055F65D
:10ECC20001F01BF602F126F003FF6D6F64005EF6A1
:10ECD20001F01BF6EBF026F003FF6162730065F6AC
:10ECE20001F0C3F050F226F003FF6D696E006DF67D
:10ECF20001F080F58AF13FF07FF6D6F0EBF026F0D6
:10ED020003FF6D61780075F601F080F580F13FF048
:10ED12008BF6D6F0EBF026F006FF77697468696E21
:10ED220081F601F0E1F0A5F111F1A5F108F16EF122
:10ED320026F007FF746F7570706572008DF601F032
:10ED4200C3F046F0610046F07B0092F63FF0ACF66D
:10ED520046F0DF0025F226F007FF746F6C6F7765CF
:10ED620072009AF601F0C3F046F0410046F05B00F3
:10ED720092F63FF0BFF646F020002EF226F003FF97
:10ED8200686C6400ADF654F03F0104FF686F6C6478
:10ED9200C0F601F0C4F6C3F08BF047F2C3F011F1F4
:10EDA200D6F093F008F19FF026F002FF3C23C6F65E
:10EDB20001F09FF5C4F693F026F001FF2300D6F68A
:10EDC20001F06CF58BF05EF7F3F046F00900E1F02C
:10EDD20080F13FF0EFF646F00700AFF146F0300069
:10EDE200AFF1CAF626F002FF2373DEF601F0E1F678
:10EDF20080F52EF22CF13FF0F8F626F002FF233ECA
:10EE0200F4F601F089F5C4F68BF09FF5E1F0A5F177
:10EE120026F004FF7369676EFFF601F033F13FF0ED
:10EE220015F746F02D00CAF626F003FF642E720095
:10EE32000AF701F011F191F5EFFCD9F6F7F6F3F0CC
:10EE42000EF702F708F1E1F0A5F106F816F826F040
:10EE520002FF2E7216F701F011F182FD08F11AF786
:10EE620026F002FF642E29F701F066F11AF7FDF78A
:10EE720026F001FF2E0032F701F082FD35F726F071
:10EE820003FF75642E003AF701F066F14EF7FDF7C5
:10EE920026F004FF75642E7241F701F011F1D9F6E4
:10EEA200F7F602F708F1E1F0A5F106F816F826F0F8
:10EEB20006FF75642F6D6F644AF701F011F166F178
:10EEC2001AF1D4F108F1D6F011F1D4F108F126F0DB
:10EED20006FF64696769743F59F701F0A0F6C3F051
:10EEE20046F039008AF146F0000125F2AFF1C3F095
:10EEF20046F040018AF146F0070125F2A5F146F0FD
:10EF02003000A5F1C3F06CF58BF06EF126F001F044
:10EF12001AF1E7F708F1E1F041F216F2AFF141F22E
:10EF220011F126F002FF732C69F701F0C3F09AF792
:10EF320026F001F0DB01C3F016F291F51DF2A5F106
:10EF420011F166F19A023FF0ADF7ADF2C3F08BF02A
:10EF5200DB0179F5DBF2A7F708F13AF13FF0B4F7FC
:10EF6200C3F0AAF0DB01EBF026F005FF69747970BB
:10EF7200650093F701F0C3F016F291F51DF2A5F1C9
:10EF820011F166F19A023FF0CFF7ADF2C3F0E3F36D
:10EF9200C3F0DCF7D8F741F2DBF2C7F708F13AF138
:10EFA2003FF0D6F7C3F0E3F3DCF7EBF026F001F025
:10EFB2000BF3DCF726F001F046F0FF0025F2A9F58D
:10EFC20026F006FF69636F756E74B6F701F0C3F041
:10EFD20041F2D6F0E3F326F002FF6372E2F701F0AA
:10EFE20046F00D00A9F546F00A00A9F526F005FF46
:10EFF200737061636500EDF701F00BF6A9F526F079
:10F0020006FF737061636573F8F701F066F185F6C8
:10F01200C3F03FF010F8FDF747F235F009F8EBF0D6
:10F0220026F004FF7479706501F801F079FD9A0207
:10F032003FF021F8ADF2BEF2AAF0A9F5DBF21CF81E
:10F0420026F001FF270012F801F0CFF9E7FAF2FAF1
:10F05200C3F065FB9AFDD6F0E3F346F09AFB9AFD06
:10F062002EF23FF037F846F0F3FF5CF8EBF026F0B3
:10F0720007FF68616E646C65720022F867F00A002F
:10F0820005FF63617463680039F801F09FF211F1C2
:10F092003FF88BF011F188F23FF893F030F008F16D
:10F0A2003FF893F008F1EBF066F126F005FF746883
:10F0B200726F770041F801F0C3F02CF13FF063F872
:10F0C200EBF026F03FF88BF092F208F13FF893F064
:10F0D20008F1D6F011F1A8F2EBF008F126F005FFE5
:10F0E20063736B69700057F801F011F1C3F03FF0E0
:10F0F20084F8E1F0AAF01AF19AFD3FF084F8A1FD3C
:10F10200C0F935F077F808F1EBF026F005FF6373EC
:10F1120063616E0070F801F011F1E1F0C3F0AAF042
:10F122001AF19AFD2CF13FF0A1F8D6F047F2D6F091
:10F13200E1F033F12CF13FF0A1F841F235F08FF814
:10F1420002F1E1F0A5F108F1EBF026F006FF6163B0
:10F152006365707487F801F0E1F0AFF147F2E1F016
:10F16200BAF5C3F0EDF82CF13FF0DFF8C3F046F04A
:10F1720008009AFD3FF0CFF8EBF0F3F080F58AF14A
:10F1820011F1F3F0F3F008F13FF0CDF8E5F847F2B2
:10F1920011F1E1F008F16D0135F0DDF8C3F00BF685
:10F1A20080F13FF0D6F8EBF00BF6C3F0A9F5E1F0F1
:10F1B2009FF041F2E1F0790135F0B1F8EBF002F1A4
:10F1C200D6F0A5F1F0F726F001F046F00800C3F002
:10F1D200A9F5FDF7A9F526F001F0C3F046F00D0000
:10F1E2009AFDD6F046F00A009AFD2EF226F006FFAE
:10F1F200726566696C6CA7F82EFC1A00F7FB03FCBB
:10F2020004FF63686172F8F801F0CFF9EBF0AAF03D
:10F2120026F006FF6E756D62657201F901F06CF5FC
:10F222008BF011F153F911F166F953F908F12EF24D
:10F2320011F1C3F02CF13FF026F989F508F1EBF05A
:10F2420008F16CF593F066F126F030F366F166F1A1
:10F252003FF384F9CBF03FF048F9A1FD9AFD3FF06E
:10F262003FF9AAF046F02E009AFD3FF040F908F16E
:10F272003FF03CF9FCFCA6FD35F04EF9EBF089F5C8
:10F2820008F1EBF008F16CF593F066F126F089F5E0
:10F2920008F13FF04DF95AF6A1FD08F16CF593F033
:10F2A2005DF126F001F0E1F0AAF046F02D009AFDA2
:10F2B200C3F011F13FF05FF9A1FDC0F908F126F0AA
:10F2C20061F00A00100002000A0001F0E1F0AAF069
:10F2D20046F02300A5F1C3F066F146F0040092F671
:10F2E2003FF07CF961F9AFF1E3F36CF593F0A1FD26
:10F2F200C0F935F07DF9EBF026F007FF3E6E756D33
:10F30200626572000AF901F0C3F03FF09CF9E1F086
:10F31200AAF06EF72CF13FF090F9EBF026F011F124
:10F3220020FD6CF58BF05E0108F1560120FDA1FD78
:10F33200C0F935F085F926F005FF7061727365003A
:10F342007EF901F011F1B6F999F58BF0C0F908F1E7
:10F352008CF8C3F041F299F577F2A1FDC0F926F0DD
:10F3620006FF736F757263659DF92EFC1600F7FB3D
:10F3720003FC07FF2F737472696E6700B1F901F025
:10F38200F3F0E1F0AFF1F3F0F3F0A5F126F00AFFAC
:10F3920070617273652D6E616D65BAF901F00BF6DD
:10F3A200D3F926F001F011F1B6F999F58BF0C0F915
:10F3B2001AF175F808F18CF880F5AFF1B6F9EBF0B7
:10F3C200A5F199F593F026F007FF66696E642D7832
:10F3D2007400C8F901F046F0F7F946F05C001B042E
:10F3E2002CF13FF0F6F989F566F126F001F011F102
:10F3F20080F508F140FCC3F03FF004FA11F102F18C
:10F4020002F108F15DF126F001F088F70300206FA8
:10F412006B00BBF726F003FF2E6F6B00E5F92EFCA5
:10F422001C00F7FB03FC01F088F702003E20F0F716
:10F43200BBF726F006FF2E72656164790CFA2EFC8A
:10F442002000F7FB03FC01F088F70400203F3F2077
:10F45200BBF76CF58BF011F1F8F53DF799F58BF0F0
:10F462003DF708F16CF593F026F006FF2E657272F7
:10F472006F721BFA2EFC1E00F7FB03FC04FF717572
:10F48200697436FA01F0D002D70293F0A4FAA8F216
:10F49200B1FA92F2650366F58BF02CF13FF052FA65
:10F4A20020FAFDF83FF064FA46F0CAFA46F8CBF0CB
:10F4B2003FF064FAC3F046F0FEFF80F13FF062FADB
:10F4C2003BFA35F044FA10FA35F04CFA05FF706158
:10F4D200757365003FFA2EFC4101E3FBEDFB04FF6F
:10F4E200636F6C6467FA75FAA4B622243324BB24D2
:10F4F20024BEE0E0F1E02192E030E9F7F134D9F7FF
:10F50200E3E4F1E02F010FEF0DBF048310E41EBF0F
:10F512001583CFEAC683D0E4D783A7E9BAEF0C9468
:10F5220005F004FF7761726D70FA01F06BFD46F031
:10F532009AFB46F06CFA0EFC650313F643FA03FFDE
:10F542007370300092FA81F00600F7FB03FC02FFB1
:10F552007370A0FA67F0080003FF72703000A8FA17
:10F5620001F0B5FA8BF026F067F0040005FF646540
:10F5720070746800ADFA01F0A4FA9FF2A5F116F2D8
:10F5820047F226F009FF696E746572707265740045
:10F59200B7FA01F0CFF9C3F03FF0DBFAE7FAF2FA7B
:10F5A20066F58BF03FF0D6FAC6FBE3F330F072FB60
:10F5B20035F0CBFA89F526F010FF666F7274682D6C
:10F5C2007265636F676E697A6572C3FA81F0500083
:10F5D200CFFBD9FB09FF7265636F676E697A6500BD
:10F5E200DDFA01F046F0FDFAD6F01B042CF13FF0F3
:10F5F200FCFA89F565FB26F001F0F3F0F3F080F5F3
:10F6020030F3F3F030F03FF3F3F0C3F065FB9AFD13
:10F612003FF00EFBEBF066F126F002F102F15DF134
:10F6220026F006FF64743A6E756DEBFA61F09AFB90
:10F63200F101F10107FF64743A646E756D0012FB0B
:10F6420061F09AFB92FD92FD07FF7265633A6E7557
:10F652006D001BFB01F00FF93FF037FBA1FD9AFD96
:10F662003FF035FB17FB26F021FB26F065FB26F069
:10F6720008FF7265633A66696E6425FB01F0EBF977
:10F68200C3F02CF13FF048FBEBF065FB26F04FFB9B
:10F6920026F005FF64743A78740039FB61F053FB7D
:10F6A20057FB92FD01F0EBF030F026F001F033F160
:10F6B2003FF05DFBDB0126F030F026F007FF6474BB
:10F6C2003A6E756C6C004AFB61F069FB69FB69FB81
:10F6D20001F046F0F3FF5CF806FF3F737461636B61
:10F6E2005FFB01F0BCFA33F13FF07AFB46F0FCFF1E
:10F6F2005CF826F003FF766572006DFB01F028F5D9
:10F70200BBF7FDF76CF58BF036F5F8F582FDD9F60F
:10F71200E1F646F02E00CAF6F7F602F716F86CF597
:10F7220093F0FDF73EF5BBF726F004FF6E6F6F70A6
:10F732007BFB01F026F006FF756E7573656496FB20
:10F7420001F09FF2DAF5A5F126F00200746F9CFB3E
:10F7520001F025F88BFD66F58BF03FF0BAFBD00186
:10F76200B4FBDB0126F001F008F1C3F0C6FB11F196
:10F77200E3F3C3F0C6FBC6FBE3F330F026F007FF6A
:10F78200692D63656C6C2B00A6FB01F041F226F03B
:10F7920007FF4564656665724000C0FB01F0E3F354
:10F7A20071F326F007FF4564656665722100C9FBA7
:10F7B20001F0E3F34DF326F007FF526465666572CC
:10F7C2004000D3FB01F0E3F38BF026F007FF526415
:10F7D200656665722100DDFB01F0E3F393F026F02C
:10F7E20007FF5564656665724000E7FB01F0E3F3CD
:10F7F20014F3AFF18BF026F007FF5564656665726E
:10F802002100F1FB01F0E3F314F3AFF193F026F0E2
:10F8120006FF646566657221FDFB01F08BFDC3F096
:10F82200C6FBC6FBE3F330F026F006FF64656665AF
:10F83200724009FC01F08BFDC3F0C6FBE3F330F02C
:10F8420026F007FF286465666572290016FC01F040
:10F85200AD010D03D0012EFC26F00E942603C3F059
:10F86200C6FBE3F330F030F026F00FFF73656172F0
:10F8720063682D776F72646C6973740022FC01F007
:10F8820011F166F146F055FC08F172FCC3F02CF15F
:10F892003FF04FFC89F5EBF066F126F0C3F099FCDE
:10F8A200D6F09301810126F001F011F1EBF080F521
:10F8B2001AF18DFCA3FC3FF063FC08F1EBF066F15A
:10F8C2005DF126F089F508F166F126F011FF7472F8
:10F8D2006176657273652D776F72646C69737400FB
:10F8E20036FC01F071F3C3F03FF083FC80F530F396
:10F8F200D6F030F03FF3F3F03FF083FC8A04E3F3F9
:10F9020035F074FC89F526F00BFF6E616D653E7370
:10F912007472696E670067FC01F0E7F746F0FF005A
:10F9220025F226F007FF6E66613E6366610085FC84
:10F9320001F08A0441F226F008FF69636F6D70617D
:10F94200726593FC01F011F1E1F008F125F13FF04D
:10F95200AEFC89F5EBF05DF126F0D6F066F19A0285
:10F962003FF0D1FCADF2E1F08BF0E1F0E3F3C3F054
:10F9720046F000016EF13FF0C2FCD6F046F0FF0007
:10F9820025F225F13FF0C9FC89F55DF1E6F226F09A
:10F9920041F2D6F079F5D6F046F00200CCF2B4FC92
:10F9A20089F566F126F001FF2A009DFC01F0B8F10D
:10F9B200EBF026F001FF6A00D4FC01F088F246F079
:10F9C2000700AFF18BF088F246F00900AFF18BF03F
:10F9D200AFF126F004FF64616273DBFC01F0C3F057
:10F9E20033F13FF0F5FCFCFC26F007FF646E65671F
:10F9F20061746500EBFC01F056F4A1FD66F130F490
:10FA020026F005FF636D6F766500F6FC08FDBF9377
:10FA1200AF93E991F991A991B991092F082B21F09E
:10FA22001D9111930197E1F7AF91BF91899199913E
:10FA32000C9405F005FF32737761700002FD01F04E
:10FA4200F3F011F1F3F008F126F00AFF726566692E
:10FA52006C6C2D7469621BFD01F049FD46F05A0081
:10FA6200ACF84FFD93F066F199F593F05DF126F055
:10FA72000AFF736F757263652D74696226FD01F06A
:10FA820049FD4FFD8BF026F003FF7469620039FDDA
:10FA920054F06F0104FF2374696245FD54F0C901FB
:10FAA20006FF65653E72616D4BFD01F066F1ADF2D8
:10FAB200E1F071F3E1F093F079F5D6F079F5D6F053
:10FAC200DBF259FD89F526F008FF696E69742D7223
:10FAD200616D51FD01F046F07C0014F346F0220006
:10FAE20016F256FD26F006FF626F756E647365FDB1
:10FAF20001F0E1F0AFF1D6F026F003FF733E6400AF
:10FB020074FD01F0C3F033F126F005FF3E626F642D
:10FB120079007EFD42F20800326C69746572616C94
:10FB220086FD01F0D6F0F101F10126F001FF3D0062
:10FB32008CFD01F0A5F12CF126F001FF310097FDBB
:10FB420054F0010001FF32009EFD54F0020002FF5A
:08FB52002D31A3FD54F0FFFF6B
:00000001FF
