:020000020000FC
:020004001BD10E
:0200080019D10C
:02000C0017D10A
:0200100015D108
:0200140013D106
:0200180011D104
:02001C000FD102
:020020000DD100
:020024000BD1FE
:0200280009D1FC
:02002C0007D1FA
:0200300005D1F8
:0200340003D1F6
:0200380001D1F4
:02003C00FFD0F3
:02004000FDD0F1
:02004400FBD0EF
:02004800F9D0ED
:02004C00F7D0EB
:10005000F5D00004000200381500080041546D6519
:100060006761313607FF3E72782D627566000000C9
:100070003900082F10917000E0E6F0E0E10FF31D69
:10008000008313951F7010937000899199910C94BF
:10009000051C06FF6973722D72783200011C3D1C2D
:1000A0002C00981CB11C3D1C0300E01F361C59009D
:1000B000E00A3800201C011C3D1C4E003D1C1600AF
:1000C00013023D1C60003D1C1600541D5D02201CE7
:1000D00006FF72782D6275664900011C8800361C87
:1000E0006E003D1C7100981CB11C3D1C60009D1DE4
:1000F000981CC41C2F1E3D1C0F00131E3D1C7100BC
:100100008D1C201C07FF72783F2D62756600680009
:10011000011CD80A3D1C7100981C3D1C7000981CE5
:10012000131D201C07FF74782D706F6C6C0082000B
:10013000011CA600361C99003D1C2C008D1C201CA7
:1001400008FF74783F2D706F6C6C9200011CD80A08
:100150003D1C2B00981C3D1C2000131E201C04FF7E
:1001600075627272A0006F1C82003B0C450C06FF8A
:100170002B7573617274AF00011C3D1C98003D1C0F
:100180002A008D1C3D1C06003D1CC0008D1CB300C8
:10019000B11CF91E3D1C40008D1C3D1C29008D1C0E
:1001A0005B00201C08FF31772E7265736574B70001
:1001B000D9009A938A93BC9AC498E0ECF3E0319703
:1001C000F1F71FB7F894C49ABC98E0E8F0E03197D3
:1001D000F1F786B384FF9FEF1FBFBC98C498E0E49B
:1001E000F3E03197F1F7892F0C94051C07FF317765
:1001F0002E736C6F7400D200FD00C498BC9A1FB7B8
:10020000F894ECE0F0E03197F1F78894879510F4DA
:10021000C49ABC98E2E1F0E03197F1F706B304FD2F
:100220008068E6E6F0E03197F1F7C49ABC98E4E024
:0C023000F0E03197F1F71FBF0C94051CA3
:040000000C94E10A71
:10023C000A920FB60A920F900F900A94B02CFF936B
:10024C00EF93E2E7F0E00694E00DF31D00800394D9
:10025C000082EF91FF9109900FBE0990089502FF63
:10026C006D2BF600011CEE0D9C01201C03FF756428
:10027C002A003501011CB11CFF1CE01DD91CC41C3B
:10028C00F61CE01DE11C9D1D201C04FF756D6178A2
:10029C003C01011CEB055C1D361C5501C41CD91C12
:1002AC00201C04FF756D696E4B01011CEB05671D6D
:1002BC00361C6101C41CD91C201C011C3D1C008077
:1002CC00131E1A1D361C6C01E71F201C4B1D201C15
:1002DC000AFF6E616D653E666C6167735701011CA8
:1002EC00CB1F3D1C00FF131E201C03FF64322A0091
:1002FC006E01800109911991000F111F881F991F20
:10030C001A930A930C94051C03FF64322F007B0193
:10031C008F010991199195958795179507951A93C2
:10032C000A930C94051C02FF642B8A019D012991F0
:10033C003991E990F99049915991240F351F8E1DEF
:10034C009F1D3A932A930C94051C02FF642D99016E
:10035C00AF0129913991E990F99049915991421B3A
:10036C00530BE80AF90A5A934A93C7010C94051CDB
:10037C0007FF64696E7665727400AB01C501099163
:10038C00199180959095009510951A930A930C9459
:10039C00051C02FF752EBE01011C541DB107201C4B
:1003AC0003FF752E7200CF01011C541DC41CBA072B
:1003BC00201C0DFF73686F772D776F72646C6973F7
:1003CC007400D601011C3D1CEE01C41CDE0C201C6B
:1003DC00011CF90C270869084B1D201C05FF776FC1
:1003EC0072647300DF01011C3D1C42005F1FE801B9
:1003FC00201C04FF2B696E74F401040278940C9495
:10040C00051C04FF2D696E74FF010C02F8940C940A
:10041C00051C04FF696E74210702011C3D1C0000C1
:10042C009D1D3B1F201C04FF696E74400F02011CB4
:10043C003D1C00009D1D5F1F201C08FF696E742D64
:10044C007472617019022A02B82E899199910C94D8
:10045C00051C011C1D022A1C3402201C350202D072
:10046C000C94051C189504FF7069636B2302011C26
:10047C002F1EDD058D1E9D1D791C201C02002E22B9
:10048C003902011C4F02A3022708201C0200732210
:10049C004402011C3D1C22000E0AD005791C361C9E
:1004AC005802CF02201C04FF66696C6C4C02011CC4
:1004BC00E11CE11CB91C361C6A02E50D9B1EB11C2B
:1004CC00AC1E8D1CC91E6502D91C201C06FF6E6556
:1004DC00776573745902481C870006FF6C6174655C
:1004EC0073746C02481C8B0008FF2863726561747E
:1004FC0065297302011C3B0AD703B11C7102E30589
:10050C00811CBC037102811C201C01005C007A025E
:10051C00011C220AF01C0406811C201C010028006E
:10052C008B02011C3D1C29000E0AF405201C07FF40
:10053C00636F6D70696C65009402011CF61CB11C34
:10054C00320CFF1CCB1FAE02201C01FF2C009D02A5
:10055C00011C3406731F34062F1E200C3506201C7C
:10056C0003005B275D00AB02011C9108C402201C38
:10057C0007006C69746572616C00B602011CA30201
:10058C003D1CAE02201C0800736C69746572616CB2
:10059C00BE02011CA302F4070208201C011C340635
:1005AC00A302FFFF201C011CDE0B3406C41C731FAE
:1005BC00201C011C3406201C011CDE0BAE02201C6E
:1005CC000500616865616400C902011CA3022F1C4F
:1005DC00D402201C02006966E602011CA302361C30
:1005EC00D402201C0400656C7365F002011CA3028C
:1005FC002F1CD402C41CD902201C04007468656E24
:10060C00F802011CD902201C0500626567696E00A6
:10061C000303011CDF02201C05007768696C650070
:10062C000A03011CF302C41C201C060072657065D1
:10063C0061741203011C34030703201C0500756E42
:10064C0074696C001B03011C3D1C361CAE02E202DB
:10065C00201C0500616761696E002403011CA30264
:10066C002F1CE202201C0200646F2F03011CA3024A
:10067C009B1EDF02541D9703201C04006C6F6F70CF
:10068C003903011CA302C91E7E03201C05002B6C20
:10069C006F6F70004303011CA302BA1E7E03201C63
:1006AC0005006C65617665004C03011CA302D41E29
:1006BC00EB029703201C03003F646F005603011CE0
:1006CC00A3026D03F3023C03C41C9703201C011C02
:1006DC00EB05E01FB11CFF1C361C7503F405F61C62
:1006EC00FD1D201C07FF656E646C6F6F700061034D
:1006FC00011CE2028B03B91C361C870307032F1C59
:10070C008003201C02FF6C3E7803011CAA03791C99
:10071C00791C3D1CFEFFAA03651E201C02FF3E6CCB
:10072C008803011CEC1FAA03651EAA03791C811CFB
:10073C00201C03FF6C70300094036F1C36003B0CC4
:10074C00450C02FF6C709F03481C8D0006FF637202
:10075C0065617465A703011C8002E003A302521CAF
:10076C00201C06FF686561646572AC03011C3406CD
:10077C00FF1CFF1CB11C281D361CCE03B11C3D1CDC
:10078C0000FF1C1E0608F61C5F1FAE02F61C201C88
:10079C003D1CF0FFC80807FF776C73636F70650032
:1007AC00B7039A0C32003B0C450C06FF726576655C
:1007BC00616CD103011C7102E305791CB91C361C58
:1007CC00EB037102791CC41C3B1F201C0500646FD9
:1007DC0065733E00DB03011CA3020404A3020E9408
:1007EC00A302F903201C9A938A93CB0101967F9163
:1007FC006F91BF93AF93DB010C94051C011CF61C8D
:10080C007102E305791C5F1F050D731F201C01FF8E
:10081C003A00EC03011C80021B04D91C201C07FFAE
:10082C003A6E6F6E616D65000D04011C3406B11CCF
:10083C007802811CA302011C3004201C01003B0027
:10084C001504011CA302201C3804E003201C01FF2A
:10085C005D002404011CE71FD005811C201C010035
:10086C005B002D04011C541DD005811C201C08FFAD
:10087C007661726961626C653504011C45064F0432
:10088C00EC1F4E06201C08FF636F6E7374616E7450
:10089C003D04011C8002E003A302481CAE02201C94
:1008AC0004FF757365724904011C8002E003A30206
:1008BC00581CAE02201C07007265637572736500CC
:1008CC005604011C7802791CAE02201C09FF696DCC
:1008DC006D656469617465006104011C15055F1F19
:1008EC00B11CCB1F3D1CFF7F131EC41C731F201C8F
:1008FC0006005B636861725D6C04011CA3023D1C05
:10090C007109AE02201C060061626F7274227E04B3
:10091C00011C4F02A302A004201C05FF61626F7230
:10092C0074008904011C4B1DC80806FF3F61626FEF
:10093C0072749304011CE11C361CA604270898044D
:10094C00F405201C09FF6765742D737461636B00DB
:10095C009B04011CB11CE305C41C5F1FB11CFF1CD4
:10096C00541DC41C6D03361CC6049B1EAC1E351EC8
:10097C00DD05CF1C9D1D5F1FC41C4B1DBA1EBC0486
:10098C00F405F61C201C09FF7365742D73746163E8
:10099C006B00A804011CCF1C211D361CD8043D1C67
:1009AC00FCFFC808EB053B1FC41C541D6D03361C13
:1009BC00E5049B1EE305FC053B1FC91EE004D91C86
:1009CC00201C09FF6D61702D737461636B00C90489
:1009DC00011CB11CE305C41C5F1FDD05E50D6D0397
:1009EC00361C0A059B1EAC1E5F1FC41CFF1C081D79
:1009FC002A1CB91C361C0605F61CD91CD41E201C3E
:100A0C00F61CEC1FBA1EF904D91C541D201C0BFF3C
:100A1C006765742D63757272656E7400E704011C52
:100A2C003D1C3C005F1F201C09FF6765742D6F7215
:100A3C00646572000D05011C3D1C4000AF04201CB8
:100A4C0009FF6366672D6F72646572001A05481C96
:100A5C00400007FF636F6D706172650026053605F7
:100A6C00BF93AF938C0189919991DC0189919991F4
:100A7C009C0189919991FC01ED90F190EF1451F446
:100A8C000A9519F02A95C1F701C02A95022B11F489
:100A9C00882702C08FEF00C0982FAF91BF910C94A4
:100AAC00051C07FF6E66613E6C6661002F05011C1C
:100ABC00F90C2F1E041E9D1D201C0BFF656E766904
:100ACC00726F6E6D656E74005705481C3A0009FF15
:100ADC00776F72646C69737473000000011C3D1CA9
:100AEC000800201C04FF2F7061646D05011C8D1E15
:100AFC000A06931D201C05FF2F686F6C6400780597
:100B0C00011C0A064506931D201C0AFF666F7274B1
:100B1C00682D6E616D658105011CF4070700616D20
:100B2C00666F72746800201C07FF76657273696FBC
:100B3C006E008B05011C3D1C4100201C03FF6370E3
:100B4C0075009A05011C3D1C2D005308201C08FF44
:100B5C006D63752D696E666FA405011C3D1C290023
:100B6C00201C05FF2F7573657200AD05011C3D1C23
:100B7C002C00201C05FF665F637075006305011C6B
:100B8C003D1C00123D1C7A00201C05FF737461741F
:100B9C006500C005481C8F0004FF62617365CB05BE
:100BAC00581C0C0005FF63656C6C7300D2050C1EA1
:100BBC0005FF63656C6C2B00D805E40502960C945C
:100BCC00051C04FF32647570DE05011CCF1CCF1CA4
:100BDC00201C05FF3264726F7000E705011CD91CE4
:100BEC00D91C201C04FF7475636BEF05011CC41C1D
:100BFC00CF1C201C03FF3E696E00F805581C180022
:100C0C0003FF706164000006011C45063D1C2800B2
:100C1C009D1D201C04FF656D697406069A0C0E0060
:100C2C00630C6F0C05FF656D69743F0010069A0C20
:100C3C001000630C6F0C03FF6B65790018069A0C9F
:100C4C001200630C6F0C04FF6B65793F21069A0C44
:100C5C001400630C6F0C02FF647029066F1C2C00CF
:100C6C003B0C450C05FF65686572650031066F1C11
:100C7C0030003B0C450C04FF6865726538066F1C30
:100C8C002E003B0C450C05FF616C6C6F740041062B
:100C9C00011C45069D1D200C4606201C03FF6269A5
:100CAC006E004906011CEC1FD605811C201C07FF99
:100CBC00646563696D616C005406011C3D1C0A007F
:100CCC00D605811C201C03FF686578005D06011C9D
:100CDC003D1C1000D605811C201C02FF626C6906AD
:100CEC00481C200007FF7475726E6B6579007306E3
:100CFC009A0C38003B0C450C04FF2F6D6F64780682
:100D0C0087069C0109911991412F432717FF04C0B5
:100D1C00109500950F5F1F4F37FF04C0309520953D
:100D2C002F5F3F4FEE24FF1851E1001F111F5A9502
:100D3C0039F447FF04C0109500950F5F1F4F0BC08F
:100D4C00EE1CFF1CE21AF30A20F4E20EF31E889448
:100D5C00ECCF0894EACFFA92EA92C8010C94051CE5
:100D6C0005FF752F6D6F64008206011CFF1C541D5E
:100D7C00F61CC21D201C06FF6E6567617465B60605
:100D8C00011CFD1D2F1E201C01FF2F00C106011C84
:100D9C008606F01C201C03FF6D6F6400CA06011C44
:100DAC008606D91C201C03FF61627300D106011C4E
:100DBC00B11C3E1E201C03FF6D696E00D906011C80
:100DCC00EB05781D361CEB06C41CD91C201C03FF3C
:100DDC006D617800E106011CEB056E1D361CF706F3
:100DEC00C41CD91C201C06FF77697468696EED065B
:100DFC00011CCF1C931DFF1C931DF61C5C1D201C9D
:100E0C0007FF746F757070657200F906011CB11CD8
:100E1C003D1C61003D1C7B00FE06361C18073D1C6A
:100E2C00DF00131E201C07FF746F6C6F7765720058
:100E3C000607011CB11C3D1C41003D1C5B00FE065D
:100E4C00361C2B073D1C20001C1E201C03FF686C4D
:100E5C0064001907481C910004FF686F6C642C0730
:100E6C00011C3007B11C791C351EB11CFF1CC41CA5
:100E7C00811CF61C8D1C201C02FF3C233207011C1C
:100E8C000A063007811C201C01FF23004207011CAD
:100E9C00D605791CCA07E11C3D1C0900CF1C6E1D30
:100EAC00361C5B073D1C07009D1D3D1C30009D1D25
:100EBC003607201C02FF23734A07011C4D07EB0564
:100ECC001C1E1A1D361C6407201C02FF233E6007E3
:100EDC00011CF4053007791C0A06CF1C931D201C3D
:100EEC0004FF7369676E6B07011C211D361C81079B
:100EFC003D1C2D003607201C03FF642E7200760764
:100F0C00011CFF1CFC055B0D45076307E11C7A0700
:100F1C006E07F61CCF1C931D72088208201C02FF62
:100F2C002E728207011CFF1CEE0DF61C8607201C7E
:100F3C0002FF642E9507011C541D86076908201CAE
:100F4C0001FF2E009E07011CEE0DA107201C03FFC4
:100F5C0075642E00A607011C541DBA076908201CD5
:100F6C0004FF75642E72AD07011CFF1C4507630757
:100F7C006E07F61CCF1C931D72088208201C06FFFE
:100F8C0075642F6D6F64B607011CFF1C541D081D82
:100F9C00C21DF61CC41CFF1CC21DF61C201C06FF27
:100FAC0064696769743FC507011C0C07B11C3D1CC3
:100FBC003900781D3D1C0001131E9D1DB11C3D1CEC
:100FCC004001781D3D1C0701131E931D3D1C300074
:100FDC00931DB11CD605791C5C1D201C011C081D21
:100FEC005308F61CCF1C2F1E041E9D1D2F1EFF1C0C
:100FFC00201C02FF732CD507011CB11C0608201CF9
:10100C00011CAE02B11C041EFC050B1E931DFF1C23
:10101C00541D6D03361C19089B1EB11C791CAE02A5
:10102C00E305C91E1308F61C281D361C2008B11C2C
:10103C00981CAE02D91C201C05FF697479706500E0
:10104C00FF07011CB11C041EFC050B1E931DFF1C8D
:10105C00541D6D03361C3B089B1EB11CCB1FB11CD1
:10106C00480844082F1EC91E3308F61C281D361CC0
:10107C004208B11CCB1F4808D91C201C011CF91EAE
:10108C004808201C011C3D1CFF00131E1406201CCC
:10109C0006FF69636F756E742208011CB11C2F1E4C
:1010AC00C41CCB1F201C02FF63724E08011C3D1C8C
:1010BC000D0014063D1C0A001406201C05FF73705D
:1010CC00616365005908011C76061406201C06FF96
:1010DC007370616365736408011C541DF106B11CC7
:1010EC00361C7C086908351E2F1C7508D91C201C61
:1010FC0004FF747970656D08011CE50D6D03361CD9
:10110C008D089B1EAC1E981C1406C91E8808201C3A
:10111C0001FF27007E08011C3B0A600B360BB11C3B
:10112C00D10BE01FC41CCB1F3D1C060CE01F1C1E6A
:10113C00361CA3083D1CF3FFC808D91C201C07FF54
:10114C0068616E646C6572008E08581C0A0005FF9D
:10115C00636174636800A508011C8D1EFF1CAB083D
:10116C00791CFF1C761EAB08811C2A1CF61CAB08D4
:10117C00811CF61CD91C541D201C05FF7468726F51
:10118C007700AD08011CB11C1A1D361CCF08D91CE8
:10119C00201CAB08791C801EF61CAB08811CF61CAD
:1011AC00C41CFF1C961ED91CF61C201C05FF637367
:1011BC006B697000C308011CFF1CB11C361CF008C5
:1011CC00CF1C981C081DE01F361CF008E71F2C0ACA
:1011DC002F1CE308F61CD91C201C05FF63736361EC
:1011EC006E00DC08011CFF1CCF1CB11C981C081DD8
:1011FC00E01F1A1D361C0D09C41C351EC41CCF1C47
:10120C00211D1A1D361C0D092F1E2F1CFB08F01C4E
:10121C00CF1C931DF61CD91C201C06FF6163636553
:10122C007074F308011CCF1C9D1D351ECF1C2506A8
:10123C00B11C59091A1D361C4B09B11C3D1C080068
:10124C00E01F361C3B09D91CE11CEB05781DFF1C6B
:10125C00E11CE11CF61C361C39095109351EFF1C1A
:10126C00CF1CF61C4F012F1C4909B11C76066E1DB4
:10127C00361C4209D91C7606B11C1406CF1C8D1CD9
:10128C002F1ECF1C5B012F1C1D09D91CF01CC41C6C
:10129C00931D5C08201C011C3D1C0800B11C14068D
:1012AC0069081406201C011CB11C3D1C0D00E01F1C
:1012BC00C41C3D1C0A00E01F1C1E201C06FF72658E
:1012CC0066696C6C13099A0C1A00630C6F0C04FFA2
:1012DC00636861726409011C3B0AD91C981C201CB0
:1012EC0006FF6E756D6265726D09011CD605791C61
:1012FC00FF1CBF09FF1CD209BF09F61C1C1EFF1CDA
:10130C00B11C1A1D361C9209F405F61CD91CF61CCE
:10131C00D605811C541D201C1E1F541D541D2D1F31
:10132C00F009B91C361CB409E71FE01F361CAB09C9
:10133C00981C3D1C2E00E01F361CAC09F61C361CFC
:10134C00A809680DEC1F2F1CBA09D91CF405F61C52
:10135C00D91CF61CD605811C541D201CF405F61C4A
:10136C00361CB909C606E71FF61CD605811C4B1D99
:10137C00201C011CCF1C981C3D1C2D00E01FB11C17
:10138C00FF1C361CCB09E71F2C0AF61C201C521C18
:10139C000A00100002000A00011CCF1C981C3D1C06
:1013AC002300931DB11C541D3D1C0400FE06361C6D
:1013BC00E809CD099D1DCB1FD605811CE71F2C0A02
:1013CC002F1CE909D91C201C07FF3E6E756D626548
:1013DC0072007609011CB11C361C080ACF1C981C23
:1013EC00DA071A1D361CFC09D91C201CFF1C8C0D9D
:1013FC00D605791C4001F61C38018C0DE71F2C0A10
:10140C002F1CF109201C05FF706172736500EA093D
:10141C00011CFF1C220A0406791C2C0AF61CF80875
:10142C00B11C2F1E0406651EE71F2C0A201C06FF8C
:10143C00736F75726365090A9A0C1600630C6F0C56
:10144C0007FF2F737472696E67001D0A011CE11C83
:10145C00CF1C9D1DE11CE11C931D201C0AFF70611B
:10146C007273652D6E616D65260A011C76063F0A46
:10147C00201C011CFF1C220A0406791C2C0A081DC6
:10148C00E108F61CF808EB059D1D220AD91C931DDA
:10149C000406811C201C07FF66696E642D7874009D
:1014AC00340A011C3D1C630A3D1C4000EE041A1D4D
:1014BC00361C620AF405541D201C011CFF1CEB0594
:1014CC00F61CAC0CB11C361C700AFF1CF01CF01C7A
:1014DC00F61C4B1D201C04FF71756974510A011C0C
:1014EC00A303AA03811C100B961E1D0B801E38042F
:1014FC00D005791C1A1D361C840AB40A6909361CDD
:10150C00960A3D1C6B0BB208B91C361C960AB11C12
:10151C003D1CFEFF6E1D361C940ACF0A2F1C760A4A
:10152C00A40A2F1C7E0A011CF4070300206F6B0019
:10153C002708201C03FF2E6F6B00710A9A0C1C00ED
:10154C00630C6F0C011CF40702003E205C0827089A
:10155C00201C06FF2E7265616479A00A9A0C20008B
:10156C00630C6F0C011CF4070400203F3F2027087C
:10157C00D605791CFF1C6306A9070406791CA9076C
:10158C00F61CD605811C201C06FF2E6572726F722C
:10159C00AF0A9A0C1E00630C6F0C05FF706175731B
:1015AC006500CA0A9A0C93004F0C590C04FF636F28
:1015BC006C64D30AE10AA4B622243324BB2424BECF
:1015CC00E0E6F0E02192E036E9F7F430D9F7E5E90E
:1015DC00F0E02F010FE50DBF048314E01EBF15834F
:1015EC00CFE0C683D4E0D783A3E0BBE00C94051C0A
:1015FC0004FF7761726DDC0A011CD70D3D1C060CD3
:10160C003D1CD80A7A0C38047E06750A03FF7370E9
:10161C003000FE0A6F1C0600630C6F0C02FF737027
:10162C000C0B581C080003FF72703000140B011CCB
:10163C00210B791C201C581C040005FF6465707478
:10164C006800190B011C100B8D1E931D041E351EFA
:10165C00201C09FF7265636F676E697A6500230B46
:10166C00011C3D1C410BC41CEE041A1D361C400B06
:10167C00F405D10B201C011CE11CE11CEB051E1F09
:10168C00E11C2A1C2D1FE11CB11CD10BE01F361CC8
:10169C00520BD91C541D201CF01CF01C4B1D201C83
:1016AC0010FF666F7274682D7265636F676E697A6E
:1016BC0065722F0B6F1C34003B0C450C09FF696ED7
:1016CC007465727072657400560B011C3B0AB11C78
:1016DC00361C7C0B600B360BD005791C361C770B3B
:1016EC00320CCB1F2A1CDE0B2F1C6C0BF405201CA0
:1016FC0006FF64743A6E756D640B521C060CC402C2
:10170C00C40207FF64743A646E756D007E0B521C44
:10171C00060CD81FD81F07FF7265633A6E756D00F3
:10172C00870B011C7B09361CA30BE71FE01F361C23
:10173C00A10B830B201C8D0B201CD10B201C08FF34
:10174C007265633A66696E64910B011C570AB11C91
:10175C001A1D361CB40BD91CD10B201CBB0B201C26
:10176C0005FF64743A787400A50B521CBF0BC30BB5
:10177C00D81F011CD91C2A1C201C011C211D361C25
:10178C00C90BAE02201C2A1C201C07FF64743A6E85
:10179C00756C6C00B60B521CD50BD50BD50B011C04
:1017AC003D1CF3FFC80806FF3F737461636BCB0BE2
:1017BC00011C280B211D361CE60B3D1CFCFFC80828
:1017CC00201C03FF76657200D90B011C92052708BB
:1017DC006908D605791CA0056306EE0D45074D0773
:1017EC003D1C2E00360763076E078208D605811C48
:1017FC006908A8052708201C04FF6E6F6F70E70BA3
:10180C00011C201C06FF756E75736564020C011CAF
:10181C008D1E4506931D201C0200746F080C011CC4
:10182C009108F70DD005791C361C260CA302200C50
:10183C00AE02201C011CF61CB11C320CFF1CCB1F71
:10184C00B11C320C320CCB1F2A1C201C07FF692D3B
:10185C0063656C6C2B00120C011C2F1E201C07FFE7
:10186C0045646566657240002C0C011CCB1F5F1F24
:10187C00201C07FF4564656665722100350C011C50
:10188C00CB1F3B1F201C07FF52646566657240002E
:10189C003F0C011CCB1F791C201C07FF5264656692
:1018AC0065722100490C011CCB1F811C201C07FFF9
:1018BC005564656665724000530C011CCB1F021FFA
:1018CC009D1D791C201C07FF5564656665722100FF
:1018DC005D0C011CCB1F021F9D1D811C201C06FFD3
:1018EC00646566657221690C011CF70DB11C320C24
:1018FC00320CCB1F2A1C201C06FF646566657240E7
:10190C00750C011CF70DB11C320CCB1F2A1C201CB2
:10191C0007FF2864656665722900820C011C800231
:10192C00E003A3029A0C201C0E94F903B11C320C98
:10193C00CB1F2A1C2A1C201C0FFF73656172636865
:10194C002D776F72646C697374008E0C011CFF1C14
:10195C00541D3D1CC10CF61CDE0CB11C1A1D361C92
:10196C00BB0CF405D91C541D201CB11C050DC41C4A
:10197C0075016301201C011CFF1CD91CEB05081D03
:10198C00F90C0F0D361CCF0CF61CD91C541D4B1D1D
:10199C00201CF405F61C541D201C11FF747261767A
:1019AC00657273652D776F72646C69737400A20C29
:1019BC00011C5F1FB11C361CEF0CEB051E1FC41C59
:1019CC002A1C2D1FE11C361CEF0C5D05CB1F2F1C98
:1019DC00E00CF405201C0BFF6E616D653E73747298
:1019EC00696E6700D30C011C53083D1CFF00131ECD
:1019FC00201C07FF6E66613E63666100F10C011CE2
:101A0C005D052F1E201C08FF69636F6D7061726588
:101A1C00FF0C011CFF1CCF1CF61C131D361C1A0DD1
:101A2C00F405D91C4B1D201CC41C541D6D03361C05
:101A3C003D0D9B1ECF1C791CCF1CCB1FB11C3D1C1C
:101A4C0000015C1D361C2E0DC41C3D1CFF00131E1A
:101A5C00131D361C350DF4054B1DD41E201C2F1EDA
:101A6C00C41CE305C41C3D1C0200BA1E200DF40569
:101A7C00541D201C01FF2A00090D011CA61DD91C98
:101A8C00201C01FF6A00400D011C761E3D1C070046
:101A9C009D1D791C761E3D1C09009D1D791C9D1DEC
:101AAC00201C04FF64616273470D011CB11C211DD5
:101ABC00361C610D680D201C07FF646E6567617430
:101ACC006500570D011CC401E71F541D9C01201C0F
:101ADC0005FF636D6F766500620D740DBF93AF9358
:101AEC00E991F991A991B991092F082B21F01D9138
:101AFC0011930197E1F7AF91BF91899199910C9452
:101B0C00051C05FF3273776170006E0D011CE11C22
:101B1C00FF1CE11CF61C201C0AFF726566696C6CCC
:101B2C002D746962870D011CB50D3D1C5A001809F6
:101B3C00BB0D811C541D0406811C4B1D201C0AFF6F
:101B4C00736F757263652D746962920D011CB50D0E
:101B5C00BB0D791C201C03FF74696200A50D481C89
:101B6C00C10004FF23746962B10D481C1B0106FF00
:101B7C0065653E72616DB70D011C541D9B1ECF1C1B
:101B8C005F1FCF1C811CE305C41CE305C41CC91ECC
:101B9C00C50DF405201C08FF696E69742D72616D0A
:101BAC00BD0D011C3D1C6000021F3D1C2200041ECB
:101BBC00C20D201C06FF626F756E6473D10D011C83
:101BCC00CF1C9D1DC41C201C03FF733E6400E00D44
:101BDC00011CB11C211D201C05FF3E626F647900A5
:101BEC00EA0D301E02FF2E73F20D011C280BD201E0
:101BFC006908280B541D6D03361C0A0E9B1EAC1E67
:101C0C003D02D201C91E050E201C06FF6321407344
:101C1C007069F80D110E03D099270C94051C8FB91F
:101C2C000EB1087F0EB90EB107FFFACF8FB1089530
:101C3C0005FF6E40737069000B0E240E8C018991A8
:101C4C009991FC01C8012FB82EB127FFFDCF2FB100
:101C5C0021930197C1F7899199910C94051C05FF6B
:101C6C006E21737069001E0E3B0E8C018991999147
:101C7C00FC01C80121912FB92EB127FFFDCF2FB147
:101C8C000197C1F7899199910C94051C0BFF617018
:101C9C00706C7475726E6B657900350E011CBC002E
:101CAC000302EB0B6908C5053D1CE803C21DF01CC3
:101CBC006306A907F40704006B487A202708201C48
:101CCC000BFF7365742D63757272656E74004C0E28
:101CDC00011C3D1C3C003B1F201C08FF776F7264ED
:101CEC006C697374660E011C3D06541DCF1C3B1FA2
:101CFC00B11CE305200C3E06201C0EFF666F7274AF
:101D0C00682D776F72646C697374730E481C3E0097
:101D1C0009FF7365742D6F7264657200830E011C6C
:101D2C003D1C4000D004201C0FFF7365742D7265A0
:101D3C00636F676E697A657273008E0E011C3D1CB1
:101D4C005200D004201C0FFF6765742D7265636F01
:101D5C00676E697A657273009A0E011C3D1C520005
:101D6C00AF04201C04FF636F6465A90E011C800284
:101D7C00E0033406320CAE02201C08FF656E642DA5
:101D8C00636F6465B80E011CA3020C94A302051CBE
:101D9C00201C08FF286D61726B657229C30E6F1CC5
:101DAC005E003B0C450C0800706F7374706F6E65B1
:101DBC00CF0E011C3B0A600B360BB11CFF1C320C06
:101DCC00320CCB1F2A1CF61C320CCB1FAE02201C73
:101DDC0003FF32724000D90EF30E9A938A93EF915F
:101DEC00FF918F919F919F938F93FF93EF939A9372
:081DFC008A93CF010C94051C31
:10380200BF93AF93DB011196B21469F4FD01EE0F81
:10381200FF1F659175911196FB01EE0FFF1F059138
:103822001591F80109949A938A938B2D9927BB24B9
:103832006FE272E0F1CF04FF65786974EE0E211C2D
:10384200AF91BF91E1CF07FF65786563757465003D
:103852001C1C2B1CBC0189919991DECF301CFD01EF
:10386200EE0FFF1FA591B591CFCF371C982B8991F1
:103872009991A9F31196C8CF3E1C9A938A93FD01A0
:10388200EE0FFF1F859195911196BECF481C9A931A
:103892008A93FB013196EE0FFF1F85919591B4CF6C
:1038A200521C9A938A93CB010196AECF581C9A93DD
:1038B2008A93FB013196EE0FFF1F85919591840D3E
:1038C200951DA2CF07FF2876616C75652900241C1F
:1038D200011C8002E003A3026F1C201C0E94F9035A
:1038E200B11C320CCB1F2A1C201C01FF4000631CA0
:1038F2007A1CFC018191919187CF01FF2100761CF6
:10390200821CFC018991999191838083899199917B
:103912007BCF02FF63217E1C8E1CFC018991999151
:1039220080838991999170CF02FF63408A1C991C10
:10393200FC019927808168CF02FF4075951C011C0C
:10394200021F9D1D791C201C02FF21759D1C011C5C
:10395200021F9D1D811C201C03FF64757000A51CA5
:10396200B21C9A938A9350CF04FF3F647570AD1CCA
:10397200BA1C082F092B11F09A938A9345CF04FFA2
:1039820073776170B51CC51C8C01899199911A934A
:103992000A933ACF04FF6F766572C01CD01C9A93CB
:1039A2008A938A819B8130CF04FF64726F70CB1C33
:1039B200DA1C8991999128CF03FF726F7400D51C8C
:1039C200E21C8C0129913991899199913A932A9318
:1039D2001A930A9319CF03FF6E697000DD1CF11C64
:1039E200229612CF02FF723EEC1CF71C9A938A9326
:1039F2008F919F9109CF02FF3E72F31C001D9F938E
:103A02008F938991999100CF02FF7240FC1C091D8E
:103A12009A938A938F919F919F938F93F5CE02FFF2
:103A22003C3E051D011CE01F1A1D201C02FF303DFB
:103A3200101D1B1D982BD1F530C002FF303C171D05
:103A4200221D97FD2AC032C002FF303E1E1D291DD5
:103A5200821593055CF151F120C003FF64303E00F2
:103A6200251D331D82159305899199918205930530
:103A7200ECF0E1F012C003FF64303C002E1D411D4A
:103A8200229697FD0C944E1D0C94571D04FF7472E0
:103A920075653C1D4C1D9A938A938FEF9FEFB4CEB0
:103AA20001FF3000471D551D9A938A93C101ACCE88
:103AB20002FF753C511D5D1D2991399182179307B3
:103AC200A8F3A1F3EACF02FF753E591D011CC41CE5
:103AD2005C1D201C01FF3C00641D6F1D2991399162
:103AE200281739071CF7D9CF01FF3E006B1D791D3E
:103AF2002991399128173907CCF2C1F2CECF04FFB0
:103B02006C6F6732751D851DFC01992780E18A95CE
:103B120022F0EE0FFF1FD8F777CE9A9575CE01FFF0
:103B22002D00801D941D09911991081B190BC801C4
:103B32006BCE01FF2B00901D9E1D09911991800FE4
:103B4200911F62CE02FF6D2A9A1DA71D8C018991D9
:103B520099919C0131027001209FC0013003F3084A
:103B6200900DE11CF31C1203F308900DE11CF31CF1
:103B72009A938A93C70148CE06FF756D2F6D6F64C5
:103B8200A31DC31D7C01299139910991199140E12D
:103B92005527000F111F221F331F551F2E153F05DA
:103BA200520518F003952E193F094A9589F73A9361
:103BB2002A93C80129CE03FF756D2A00BD1DE11DA0
:103BC2008C0189919991809FF00122273327909F40
:103BD200F00D211D331D819FF00D211D331D919F7D
:103BE200200D311DCF019A938A93C9010DCE06FF94
:103BF200696E76657274DC1DFE1D8095909504CE0B
:103C020002FF322FF81D051E95958795FDCD02FF07
:103C1200322A011E0C1E880F991FF6CD03FF616E1A
:103C22006400081E141E0991199180239123ECCD82
:103C320002FF6F720F1E1D1E09911991802B912B8D
:103C4200E3CD03FF786F7200191E271E09911991A7
:103C520080279127D9CD02FF312B221E301E0196DB
:103C6200D3CD02FF312D2C1E361E0197CDCD07FF7D
:103C72003F6E656761746500321E011C211D361C92
:103C8200431EC606201C06FF6C7368696674381EE4
:103C92004A1EFC018991999131971AF0880F991F58
:103CA200FBCFB2CD06FF727368696674441E591E5B
:103CB200FC018991999131971AF096958795FBCFDE
:103CC200A3CD02FF2B21531E661EFC0189919991FF
:103CD20020813181820F931F8083918389919991F1
:103CE20093CD03FF72704000621E771E9A938A93EF
:103CF2008DB79EB789CD03FF72702100721E811E9F
:103D02002FB7F8948DBF9EBF2FBF899199917CCD1B
:103D120003FF737040007C1E8E1E9A938A93CE011D
:103D220073CD03FF73702100891E971EEC018991E8
:103D320099916ACD9C1E29913991E0E83E0F821B30
:103D4200930B3F932F939F938F93899199915CCD7E
:103D520001FF6900921EAD1E9A938A938F919F91E3
:103D6200EF91FF91FF93EF939F938F938E0F9F1F7E
:103D72004BCDBB1EEF91FF91E80FF91F89919991ED
:103D82001BF0FF93EF936BCD0F911F9111963CCDDA
:103D9200CA1EEF91FF913196BBF3F3CF06FF756E0A
:103DA2006C6F6F70A91ED51E1F910F911F910F91FD
:103DB2002BCD06FF636D6F76653ECF1EE01EBF936F
:103DC200AF93E991F991A991B991092F082B41F08B
:103DD200E80FF91FA80FB91F1E9112930197E1F77F
:103DE200AF91BF91899199910FCD02FF3E3CDA1EAE
:103DF200FA1E092F982F802F07CD03FF7570400000
:103E0200F61E031F9A938A93C201FECC03FF7570BC
:103E12002100FE1E0C1F2C0189919991F5CC03FF04
:103E2200316D7300071F151FE0EDF7E03197F1F7D1
:103E3200EBCC03FF323E7200101F1F1FFC01899161
:103E420099919F938F93FF93EF9389919991DCCCF2
:103E520003FF32723E001A1F2E1F9A938A93EF912C
:103E6200FF918F919F919A938A93CF01CDCC02FFBC
:103E72002165291F3C1FFC01899199912FB7F89464
:103E820028D00DB3081709F00BD0319622D00DB30C
:103E9200091711F0892F04D02FBF89919991B4CCC1
:103EA200E199FECF07B700FDFDCFFFBBEEBB8DBB97
:103EB200E29AE19A089502FF4065381F601F2FB70A
:103EC200F894FC0106D08DB3319603D09DB32FBF79
:103ED2009BCCE199FECFFFBBEEBBE09A089502FFB7
:103EE20021695C1F9A0C5C003B0C450C09FF2821E0
:103EF200692D6E7277772900701F7F1F1FB71F937E
:103F0200F8949C0189919991AF93BF93CF93DF93DA
:103F120009D0DF91CF91BF91AF91899199911F9172
:103F22001FBF72CC10D0E094F0948E219F21982B69
:103F320019F0F90102E020D0F90104E01DD0F901E5
:103F420000E11AD00895F901E07CFF7FEF01A0E4BF
:103F5200B0E0FE01EE0FFF1F45915591FE01E21701
:103F6200F30711F00A0102C07A010C01002704D004
:103F72002196119771F70895E199FECF17B710FDB9
:103F8200FDCFEE0FFF1F016007BFE895089502FF06
:103F92004069771FCC1FFC01EE0FFF1F85919591A1
:103FA20033CC0800326C69746572616CC81F011CE5
:103FB200C41CC402C402201C01FF3D00D21F011C0C
:103FC200931D1A1D201C01FF3100DD1F481C01003A
:103FD20001FF3200E41F481C020002FF2D31E91FDD
:043FE200481CFFFF79
:00000001FF
