:020000020000FC
:020004001BD10E
:0200080019D10C
:02000C0017D10A
:0200100015D108
:0200140013D106
:0200180011D104
:02001C000FD102
:020020000DD100
:020024000BD1FE
:0200280009D1FC
:02002C0007D1FA
:0200300005D1F8
:0200340003D1F6
:0200380001D1F4
:02003C00FFD0F3
:02004000FDD0F1
:02004400FBD0EF
:02004800F9D0ED
:02004C00F7D0EB
:10005000F5D00008000400701500080041546D65DB
:100060006761333207FF3E72782D627566000000CB
:100070003900082F10917000E0E6F0E0E10FF31D69
:10008000008313951F7010937000899199910C94BF
:10009000053806FF6973722D7278320001383D38D9
:1000A0002C009838B1383D380300DF3F363859000E
:1000B000383D3800203801383D384E003D381A00B0
:1000C000A53C3D3860003D3816005439983E203834
:1000D00006FF72782D62756649000138880036384F
:1000E0006E003D3871009838B1383D3860009D3958
:1000F0009838C4382F3A3D380F00133A3D38710014
:100100008D38203807FF72783F2D627566006800D1
:100110000138303D3D38710098383D3870009838CE
:100120001339203807FF74782D706F6C6C008200D3
:100130000138A600363899003D382C008D3820381B
:1001400008FF74783F2D706F6C6C92000138303D61
:100150003D382B0098383D382000133A203804FFF2
:1001600075627272A0006F388200A03DAA3D06FF42
:100170002B7573617274AF0001383D3898003D38BB
:100180002A008D383D3806003D38C0008D38B30058
:10019000B138F93A3D3840008D383D3829008D3866
:1001A0005B00203808FF31772E7265736574B700E5
:1001B000D9009A938A93BC9AC498E0ECF3E0319703
:1001C000F1F71FB7F894C49ABC98E0E8F0E03197D3
:1001D000F1F786B384FF9FEF1FBFBC98C498E0E49B
:1001E000F3E03197F1F7892F0C94053807FF317749
:1001F0002E736C6F7400D200FD00C498BC9A1FB7B8
:10020000F894ECE0F0E03197F1F78894879510F4DA
:10021000C49ABC98E2E1F0E03197F1F706B304FD2F
:100220008068E6E6F0E03197F1F7C49ABC98E4E024
:0C023000F0E03197F1F71FBF0C94053887
:040000000C94393DE6
:10023C000A920FB60A920F900F900A94B02CFF936B
:10024C00EF93E2E7F0E00694E00DF31D00800394D9
:10025C000082EF91FF9109900FBE0990089502FF63
:10026C006D2BF6000138C73F153C203803FF756431
:10027C002A0035010138B138FF38E039D938C43893
:10028C00F638E039E1389D39203804FF756D617816
:10029C003C010138C93E5C3936385501C438D9386F
:1002AC00203804FF756D696E4B010138C93E673902
:1002BC0036386101C438D938203801383D380080CF
:1002CC00133A1A3936386C01E63F20384B3920384E
:1002DC000AFF6E616D653E666C616773570101388C
:1002EC00CB3B3D3800FF133A203803FF7665720094
:1002FC006E010138CF02F803AE3FBD3E7938DD0206
:10030C00413FC73F16031E033D382E00070334033D
:10031C003F032E04BD3E8138AE3FE502F803203882
:10032C0004FF6E6F6F707B010138203806FF756E0D
:10033C0075736564960101388D3A233F93392038E3
:10034C000200746F9C0101383D04D03FB73E7938F0
:10035C003638BA015107B4015C0720380138F63839
:10036C00B138C601FF38CB3BB138C601C601CB3B17
:10037C002A38203807FF692D63656C6C2B00A601A9
:10038C0001382F3A203808FF69636F6D7061726510
:10039C00C0010138FF38CF38F63813393638DA0156
:1003AC00D23ED9384B392038C43854391B0836382A
:1003BC00FD019B3ACF387938CF38CB3BB1383D383B
:1003CC0000015C393638EE01C4383D38FF00133A71
:1003DC0013393638F501D23E4B39D43A20382F3AFE
:1003EC00C438903CC4383D380200BA3AE001D23EE1
:1003FC005439203801FF2A00C9010138A639D938EF
:10040C00203801FF6A0000020138763A3D380700B7
:10041C009D397938763A3D3809009D3979389D39BE
:10042C00203804FF6461627307020138B138213946
:10043C00363821022802203807FF646E6567617424
:10044C006500170201383B3CE63F5439153C203817
:10045C0005FF636D6F76650022023402BF93AF9384
:10046C00E991F991A991B991092F082B21F01D91CE
:10047C0011930197E1F7AF91BF91899199910C94E8
:10048C00053805FF3273776170002E020138E138B0
:10049C00FF38E138F63820380AFF726566696C6CF3
:1004AC002D7469624702013875023D385A008D047B
:1004BC007B0281385439E23E81384B3920380AFFAF
:1004CC00736F757263652D7469625202013875021F
:1004DC007B027938203803FF746962006502483862
:1004EC00870004FF2374696271024838E10006FF3B
:1004FC0065653E72616D7702013854399B3ACF388D
:10050C005F3BCF388138903CC438903CC438C93AF2
:10051C008502D23E203808FF696E69742D72616DB8
:10052C007D0201383D386000023B3D382200043A20
:10053C00820220380BFF656E7669726F6E6D656E88
:10054C007400910248383A0009FF776F72646C6945
:10055C0073747300000001383D380800203804FF24
:10056C002F706164AA0201388D3AE83E9339203825
:10057C0005FF2F686F6C6400B5020138E83E233F1D
:10058C00933920380AFF666F7274682D6E616D6541
:10059C00BE020138C5030700616D666F7274680096
:1005AC00203807FF76657273696F6E00C8020138D8
:1005BC003D384100203803FF63707500D7020138C5
:1005CC003D382D002404203808FF6D63752D696EAD
:1005DC00666FE10201383D382900203805FF2F7580
:1005EC0073657200EA0201383D382C00203803FF95
:1005FC00686C6400A0024838E30004FF686F6C6408
:10060C00FD0201380103B1387938353AB138FF3879
:10061C00C4388138F6388D38203802FF3C23030368
:10062C000138E83E01038138203801FF2300130311
:10063C000138BD3E79389B03E1383D380900CF388D
:10064C006E3936382C033D3807009D393D38300063
:10065C009D390703203802FF23731B0301381E0347
:10066C00C93E1C3A1A3936383503203802FF233E6E
:10067C0031030138D23E01037938E83ECF38933943
:10068C00203804FF7369676E3C0301382139363812
:10069C0052033D382D000703203803FF642E7200EF
:1006AC0047030138FF38DA3E1B0216033403E138E6
:1006BC004B033F03F638CF389339B73F2E0420381D
:1006CC0002FF2E7253030138FF38C73FF638570329
:1006DC00203802FF642E6603013854395703AE3FAD
:1006EC00203801FF2E006F030138C73F72032038FA
:1006FC0003FF75642E007703013854398B03AE3F2A
:10070C00203804FF75642E727E030138FF381603FF
:10071C0034033F03F638CF389339B73F2E042038D3
:10072C0006FF75642F6D6F6487030138FF385439E9
:10073C000839C239F638C438FF38C239F63820388F
:10074C0006FF64696769743F96030138663FB138E8
:10075C003D38390078393D380001133A9D39B138AC
:10076C003D38400178393D380701133A93393D380B
:10077C0030009339B138BD3E79385C3920380138B6
:10078C0008392404F638CF382F3A043A9D392F3AD9
:10079C00FF38203802FF732CA6030138B138D70379
:1007AC00203801385C07B138043ADA3E0B3A9339F9
:1007BC00FF3854391B083638EA039B3AB13879387C
:1007CC005C07903CC93AE403F63828393638F10313
:1007DC00B13898385C07D938203805FF69747970BE
:1007EC006500D0030138B138043ADA3E0B3A93393C
:1007FC00FF3854391B0836380C049B3AB138CB3BC4
:10080C00B138190415042F3AC93A0404F6382839BA
:10081C0036381304B138CB3B1904D9382038013899
:10082C00F93A1904203801383D38FF00133AF23EEA
:10083C00203806FF69636F756E74F3030138B138A5
:10084C002F3AC438CB3B203804FF747970651F04F1
:10085C000138993F1B08363839049B3AAC3A983822
:10086C00F23EC93A3404203801FF27002A0401382B
:10087C00B005F305FE05B1388B06DF3FC438CB3B22
:10088C003D389A01DF3F1C3A36384F043D38F3FFB0
:10089C00863DD938203805FF63736B6970003A04C4
:1008AC000138FF38B13836386504CF3898380839F4
:1008BC00DF3F36386504E63FA1052F385804F6387B
:1008CC00D938203805FF637363616E005104013819
:1008DC00FF38CF38B13898380839DF3F1A393638F5
:1008EC008204C438353AC438CF3821391A393638ED
:1008FC0082042F3A2F387004F038CF389339F638F9
:10090C00D938203806FF6163636570746804013858
:10091C00CF389D39353ACF38033FB138CE041A3928
:10092C003638C004B1383D380800DF3F3638B004E3
:10093C00D938E138C93E7839FF38E138E138F63832
:10094C003638AE04C604353AFF38CF38F6384F0186
:10095C002F38BE04B138543F6E393638B704D93805
:10096C00543FB138F23ECF388D382F3ACF385B0137
:10097C002F389204D938F038C4389339A13F203835
:10098C0001383D380800B138F23EAE3FF23E203817
:10099C000138B1383D380D00DF3FC4383D380A000E
:1009AC00DF3F1C3A203806FF726566696C6C880460
:1009BC00FF3D1A00C83DD43D04FF63686172D90441
:1009CC000138B005D9389838203806FF6E756D623D
:1009DC006572E2040138BD3E7938FF383405FF38C2
:1009EC0047053405F6381C3AFF38B1381A39363811
:1009FC000705D23EF638D938F638BD3E8138543921
:100A0C0020381E3B543954392D3B6505B9383638DE
:100A1C002905E63FDF3F3638200598383D382E0053
:100A2C00DF3F36382105F63836381D052802EB3FF6
:100A3C002F382F05D938D23EF638D938F638BD3E86
:100A4C00813854392038D23EF63836382E05273EB8
:100A5C00E63FF638BD3E81384B3920380138CF3867
:100A6C0098383D382D00DF3FB138FF383638400517
:100A7C00E63FA105F638203852380A001000020073
:100A8C000A000138CF3898383D3823009339B138F3
:100A9C0054393D380400573E36385D0542059D39C2
:100AAC00CB3BBD3E8138E63FA1052F385E05D938DA
:100ABC00203807FF3E6E756D62657200EB040138DD
:100ACC00B13836387D05CF389838AB031A393638FB
:100ADC007105D9382038FF384C02BD3E79384001B9
:100AEC00F63838014C02E63FA1052F386605203850
:100AFC0005FF7061727365005F050138FF3897055B
:100B0C00E23E7938A105F6386D04B1382F3AE23E51
:100B1C00653AE63FA105203806FF736F7572636571
:100B2C007E05FF3D1600C83DD43D07FF2F73747240
:100B3C00696E670092050138E138CF389D39E1388C
:100B4C00E138933920380AFF70617273652D6E613C
:100B5C006D659B050138543FB40520380138FF38CA
:100B6C009705E23E7938A10508395604F6386D042C
:100B7C00C93E9D399705D9389339E23E81382038E2
:100B8C0003FF73703000A9056F380600C83DD43DD3
:100B9C0002FF7370C6055838080003FF72703000EE
:100BAC00CE050138DB05793820385838040005FFAC
:100BBC00646570746800D3050138CA058D3A9339A1
:100BCC00043A353A203810FF666F7274682D7265DE
:100BDC00636F676E697A6572DD056F383400A03D0E
:100BEC00AA3D09FF7265636F676E697A6500E90556
:100BFC0001383D380906C4389C091A3936380806BC
:100C0C00D23E8B0620380138E138E138C93E1E3B14
:100C1C00E1382A382D3BE138B1388B06DF3F3638C6
:100C2C001A06D93854392038F038F0384B39203876
:100C3C0009FF696E7465727072657400F70501388E
:100C4C00B005B13836383606F305FE05B73E7938AF
:100C5C0036383106C601CB3B2A388B3F2F38260657
:100C6C00D23E203806FF64743A6E756D1E065238FB
:100C7C009A017207720707FF64743A646E756D000F
:100C8C00380652389A01D73FD73F07FF7265633A4F
:100C9C006E756D0041060138F00436385D06E63F8E
:100CAC00DF3F36385B063D062038470620388B067A
:100CBC00203808FF7265633A66696E644B0601382A
:100CCC000007B1381A3936386E06D9388B062038F9
:100CDC007506203805FF64743A7874005F06523844
:100CEC0079067D06D73F0138D9382A3820380138A3
:100CFC002139363883065C0720382A38203807FF1C
:100D0C0064743A6E756C6C00700652388F068F06E0
:100D1C008F0601383D38F3FF863D0FFF7365617216
:100D2C0063682D776F72646C697374008506013883
:100D3C00FF3854393D38B206F638CF06B1381A3977
:100D4C003638AC06D23ED93854392038B138F6068C
:100D5C00C4387501630120380138FF38D938C93ED1
:100D6C000839EA06CF013638C006F638D938543976
:100D7C004B392038D23EF6385439203811FF747272
:100D8C006176657273652D776F72646C697374002C
:100D9C00930601385F3BB1383638E006C93E1E3B3E
:100DAC00C4382A382D3BE1383638E0060B0ACB3BE9
:100DBC002F38D106D23E20380BFF6E616D653E7325
:100DCC007472696E6700C406013824043D38FF0054
:100DDC00133A203807FF6E66613E63666100E206D7
:100DEC0001380B0A2F3A203807FF66696E642D789C
:100DFC007400F00601383D380C073D3840009C0962
:100E0C001A3936380B07D23E543920380138FF389E
:100E1C00C93EF6389D06B13836381907FF38F03818
:100E2C00F038F6384B39203806FF6E6577657374E9
:100E3C00FA064838E50006FF6C61746573741A078E
:100E4C004838E90008FF2863726561746529210739
:100E5C000138B0058508B1381F07903C81386A0805
:100E6C001F078138203801005C00280701389705DE
:100E7C00F038E23E8138203801002800390701386B
:100E8C003D3829008305D23E203807FF636F6D7013
:100E9C00696C650042070138F638B138C601FF3875
:100EAC00CB3B5C07203801FF2C004B070138123F6D
:100EBC00733B123F2F3AB401133F203803005B27DA
:100ECC005D00590701383D047207203807006C6932
:100EDC00746572616C006407013851073D385C071A
:100EEC0020380800736C69746572616C6C0701388A
:100EFC005107C503D30320380138123F5107FFFFB8
:100F0C00203801388B3F123FC438733B20380138EE
:100F1C00123F203801388B3F5C0720380500616890
:100F2C00656164007707013851072F388207203834
:100F3C000200696694070138510736388207203859
:100F4C000400656C73659E07013851072F388207C2
:100F5C00C4388707203804007468656EA60701380A
:100F6C00870720380500626567696E00B107013894
:100F7C008D07203805007768696C6500B807013863
:100F8C00A107C43820380600726570656174C0070B
:100F9C000138E207B50720380500756E74696C00DE
:100FAC00C90701383D3836385C07900720380500F2
:100FBC00616761696E00D207013851072F389007BD
:100FCC0020380200646FDD07013851079B3A8D070A
:100FDC0054394508203804006C6F6F70E7070138EE
:100FEC005107C93A2C08203805002B6C6F6F700024
:100FFC00F10701385107BA3A2C08203805006C6506
:10100C0061766500FA0701385107D43A990745080B
:10101C00203803003F646F000408013851071B0897
:10102C00A107EA07C438450820380138C93EDF3F1C
:10103C00B138FF3836382308D23EF638FD3920381F
:10104C0007FF656E646C6F6F70000F0801389007B6
:10105C003908B93836383508B5072F382E082038F6
:10106C0002FF6C3E260801385808793879383D382B
:10107C00FEFF5808653A203802FF3E6C36080138EE
:10108C00EB3F5808653A580879388138203803FF07
:10109C006C70300042086F383600A03DAA3D02FF4C
:1010AC006C704D084838EB0006FF6372656174651F
:1010BC00550801382E078E0851075238203806FF84
:1010CC006865616465725A080138123FFF38FF3851
:1010DC00B138283936387C08B1383D3800FF1C3A15
:1010EC00D703F6385F3B5C07F63820383D38F0FF05
:1010FC00863D07FF776C73636F7065006508FF3D75
:10110C003200A03DAA3D06FF72657665616C7F08D2
:10111C0001381F07903C7938B938363899081F07C1
:10112C007938C4383B3B20380500646F65733E004A
:10113C00890801385107B20851070E945107A708C6
:10114C0020389A938A93CB0101967F916F91BF932C
:10115C00AF93DB010C9405380138F6381F07903C2F
:10116C0079385F3BF606733B203801FF3A009A084A
:10117C0001382E07C908D938203807FF3A6E6F6E30
:10118C00616D6500BB080138123FB1382607813804
:10119C0051070138DE08203801003B00C308013834
:1011AC0051072038E6088E08203801FF5D00D20870
:1011BC000138E63FB73E8138203801005B00DB0880
:1011CC0001385439B73E8138203808FF766172698E
:1011DC0061626C65E3080138233FFD08EB3F2C3F4F
:1011EC00203808FF636F6E7374616E74EB080138FE
:1011FC002E078E08510748385C07203804FF75739A
:10120C006572F70801382E078E08510758385C07AD
:10121C002038070072656375727365000409013824
:10122C00260779385C07203809FF696D6D6564699C
:10123C00617465000F090138C3095F3BB138CB3BC2
:10124C003D38FF7F133AC438733B203806005B638C
:10125C006861725D1A09013851073D38E6045C0774
:10126C002038060061626F7274222C0901388A3EA4
:10127C0051074E09203805FF61626F7274003709FF
:10128C0001384B39863D06FF3F61626F727441092C
:10129C000138E13836385409F8034609D23E203873
:1012AC0009FF6765742D737461636B00490901381C
:1012BC00B138903CC4385F3BB138FF385439C4382E
:1012CC001B08363874099B3AAC3A353AC43ECF38D1
:1012DC009D395F3BC4384B39BA3A6A09D23EF6386D
:1012EC00203809FF7365742D737461636B005609A4
:1012FC000138CF382139363886093D38FCFF863D18
:10130C00C93E3B3BC43854391B08363893099B3AC9
:10131C00903CDA3E3B3BC93A8E09D938203809FF5C
:10132C006D61702D737461636B0077090138B1388E
:10133C00903CC4385F3BC43E993F1B083638B80913
:10134C009B3AAC3A5F3BC438FF3808392A38B93875
:10135C003638B409F638D938D43A2038F638EB3F59
:10136C00BA3AA709D938543920380BFF6765742D60
:10137C0063757272656E7400950901383D383C00D6
:10138C005F3B203809FF6765742D6F7264657200CE
:10139C00BB0901383D3840005D09203809FF636600
:1013AC00672D6F7264657200C8094838400007FFEA
:1013BC00636F6D7061726500D409E409BF93AF93DC
:1013CC008C0189919991DC01899199919C01899168
:1013DC009991FC01ED90F190EF1451F40A9519F0EC
:1013EC002A95C1F701C02A95022B11F4882702C057
:1013FC008FEF00C0982FAF91BF910C94053807FF69
:10140C006E66613E6C666100DD090138EA062F3AB2
:10141C00043A9D39203802FF2E73050A0138E20583
:10142C000A3EAE3FE20554391B083638230A9B3A74
:10143C00AC3A843C0A3EC93A1E0A203806FF6321A6
:10144C0040737069110A2A0A03D099270C94053845
:10145C008FB90EB1087F0EB90EB107FFFACF8FB15D
:10146C00089505FF6E4073706900240A3D0A8C01D3
:10147C0089919991FC01C8012FB82EB127FFFDCF9E
:10148C002FB121930197C1F7899199910C9405384B
:10149C0005FF6E2173706900370A540A8C0189911B
:1014AC009991FC01C80121912FB92EB127FFFDCFD5
:1014BC002FB10197C1F7899199910C9405380BFFC5
:1014CC006170706C7475726E6B6579004E0A0138C0
:1014DC00BC00973C7F01AE3FAC3E3D38E803C239BF
:1014EC00F038413F7A03C50304006B487A20F803B7
:1014FC0020380BFF7365742D63757272656E740002
:10150C00650A01383D383C003B3B203808FF776FBB
:10151C0072646C6973747F0A01381B3F5439CF387D
:10152C003B3BB138903CB4011C3F20380EFF666F3A
:10153C007274682D776F72646C6973748C0A483896
:10154C003E0009FF7365742D6F72646572009C0A0E
:10155C0001383D3840007E0920380FFF7365742D2B
:10156C007265636F676E697A65727300A70A0138DA
:10157C003D3852007E0920380FFF6765742D726567
:10158C00636F676E697A65727300B30A01383D3810
:10159C0052005D09203804FF636F6465C20A01388C
:1015AC002E078E08123FC6015C07203808FF656EB7
:1015BC00642D636F6465D10A013851070C9451078F
:1015CC000538203808FF286D61726B657229DC0ABA
:1015DC006F385E00A03DAA3D0800706F7374706F89
:1015EC006E65E80A0138B005F305FE05B138FF3821
:1015FC00C601C601CB3B2A38F638C601CB3B5C078B
:10160C00203803FF32724000F20A0C0B9A938A9333
:10161C00EF91FF918F919F919F938F93FF93EF93F6
:0A162C009A938A93CF010C940538BD
:10700200BF93AF93DB011196B21469F4FD01EE0F49
:10701200FF1F659175911196FB01EE0FFF1F059100
:107022001591F80109949A938A938B2D9927BB2481
:1070320060EC7CE3F1CF04FF65786974070B2138BB
:10704200AF91BF91E1CF07FF657865637574650005
:107052001C382B38BC0189919991DECF3038FD0163
:10706200EE0FFF1FA591B591CFCF3738982B89919D
:107072009991A9F31196C8CF3E389A938A93FD014C
:10708200EE0FFF1F859195911196BECF48389A93C6
:107092008A93FB013196EE0FFF1F85919591B4CF34
:1070A20052389A938A93CB010196AECF58389A936D
:1070B2008A93FB013196EE0FFF1F85919591840D06
:1070C200951DA2CF07FF2876616C756529002438CB
:1070D20001382E078E0851076F3820380E94A70802
:1070E200B138C601CB3B2A38203801FF4000633853
:1070F2007A38FC018191919187CF01FF2100763886
:107102008238FC0189919991918380838991999127
:107112007BCF02FF63217E388E38FC0189919991E1
:1071220080838991999170CF02FF63408A389938A0
:10713200FC019927808168CF02FF4075953801389C
:10714200023B9D397938203802FF21759D3801387C
:10715200023B9D398138203803FF64757000A538E1
:10716200B2389A938A9350CF04FF3F647570AD385A
:10717200BA38082F092B11F09A938A9345CF04FF4E
:1071820073776170B538C5388C01899199911A93DA
:107192000A933ACF04FF6F766572C038D0389A935B
:1071A2008A938A819B8130CF04FF64726F70CB38DF
:1071B200DA388991999128CF03FF726F7400D5381C
:1071C200E2388C0129913991899199913A932A93C4
:1071D2001A930A9319CF03FF6E697000DD38F138F4
:1071E200229612CF02FF723EEC38F7389A938A93B6
:1071F2008F919F9109CF02FF3E72F33800399F931E
:107202008F938991999100CF02FF7240FC3809391E
:107212009A938A938F919F919F938F93F5CE02FFBA
:107222003C3E05390138DF3F1A39203802FF303D34
:1072320010391B39982BD1F530C002FF303C173979
:10724200223997FD2AC032C002FF303E1E39293949
:10725200821593055CF151F120C003FF64303E00BA
:1072620025393339821593058991999182059305C0
:10727200ECF0E1F012C003FF64303C002E394139DA
:10728200229697FD0C944E390C94573904FF747270
:1072920075653C394C399A938A938FEF9FEFB4CE40
:1072A20001FF3000473955399A938A93C101ACCE18
:1072B20002FF753C51395D39299139918217930743
:1072C200A8F3A1F3EACF02FF753E59390138C43859
:1072D2005C39203801FF3C0064396F3929913991BA
:1072E200281739071CF7D9CF01FF3E006B397939CE
:1072F2002991399128173907CCF2C1F2CECF04FF78
:107302006C6F673275398539FC01992780E18A955E
:1073120022F0EE0FFF1FD8F777CE9A9575CE01FFB8
:107322002D008039943909911991081B190BC80154
:107332006BCE01FF2B0090399E3909911991800F74
:10734200911F62CE02FF6D2A9A39A7398C01899169
:1073520099919C0131027001209FC0013003F30812
:10736200900DE11CF31C1203F308900DE11CF31CB9
:107372009A938A93C70148CE06FF756D2F6D6F648D
:10738200A339C3397C01299139910991199140E1BD
:107392005527000F111F221F331F551F2E153F05A2
:1073A200520518F003952E193F094A9589F73A9329
:1073B2002A93C80129CE03FF756D2A00BD39E13930
:1073C2008C0189919991809FF00122273327909F08
:1073D200F00D211D331D819FF00D211D331D919F45
:1073E200200D311DCF019A938A93C9010DCE06FF5C
:1073F200696E76657274DC39FE398095909504CE9B
:1074020002FF322FF839053A95958795FDCD02FF97
:10741200322A013A0C3A880F991FF6CD03FF616EAA
:107422006400083A143A0991199180239123ECCD12
:1074320002FF6F720F3A1D3A09911991802B912B1D
:10744200E3CD03FF786F7200193A273A0991199137
:1074520080279127D9CD02FF312B223A303A01966B
:10746200D3CD02FF312D2C3A363A0197CDCD07FF0D
:107472003F6E656761746500323A013821393638EA
:10748200433A273E203806FF6C7368696674383ABF
:107492004A3AFC018991999131971AF0880F991F04
:1074A200FBCFB2CD06FF727368696674443A593AEB
:1074B200FC018991999131971AF096958795FBCFA6
:1074C200A3CD02FF2B21533A663AFC01899199918F
:1074D20020813181820F931F8083918389919991B9
:1074E20093CD03FF72704000623A773A9A938A937F
:1074F2008DB79EB789CD03FF72702100723A813A2F
:107502002FB7F8948DBF9EBF2FBF899199917CCDE3
:1075120003FF737040007C3A8E3A9A938A93CE01AD
:1075220073CD03FF73702100893A973AEC01899178
:1075320099916ACD9C3A29913991E0E83E0F821BDC
:10754200930B3F932F939F938F93899199915CCD46
:1075520001FF6900923AAD3A9A938A938F919F9173
:10756200EF91FF91FF93EF939F938F938E0F9F1F46
:107572004BCDBB3AEF91FF91E80FF91F8991999199
:107582001BF0FF93EF936BCD0F911F9111963CCDA2
:10759200CA3AEF91FF913196BBF3F3CF06FF756EB6
:1075A2006C6F6F70A93AD53A1F910F911F910F918D
:1075B2002BCD06FF636D6F76653ECF3AE03ABF93FF
:1075C200AF93E991F991A991B991092F082B41F053
:1075D200E80FF91FA80FB91F1E9112930197E1F747
:1075E200AF91BF91899199910FCD02FF3E3CDA3A5A
:1075F200FA3A092F982F802F07CD03FF75704000AC
:10760200F63A033B9A938A93C201FECC03FF75704C
:107612002100FE3A0C3B2C0189919991F5CC03FF94
:10762200316D7300073B153BE0EDF7E03197F1F761
:10763200EBCC03FF323E7200103B1F3BFC018991F1
:1076420099919F938F93FF93EF9389919991DCCCBA
:1076520003FF32723E001A3B2E3B9A938A93EF91BC
:10766200FF918F919F919A938A93CF01CDCC02FF84
:107672002165293B3C3BFC01899199912FB7F894F4
:1076820028D00DB3081709F00BD0319622D00DB3D4
:10769200091711F0892F04D02FBF89919991B4CC89
:1076A200E199FECF07B700FDFDCFFFBBEEBB8DBB5F
:1076B200E29AE19A089502FF4065383B603B2FB79A
:1076C200F894FC0106D08DB3319603D09DB32FBF41
:1076D2009BCCE199FECFFFBBEEBBE09A089502FF7F
:1076E20021695C3BFF3D5C00A03DAA3D09FF2821CA
:1076F200692D6E7277772900703B7F3B1FB71F930E
:10770200F8949C0189919991AF93BF93CF93DF93A2
:1077120009D0DF91CF91BF91AF91899199911F913A
:107722001FBF72CC10D0E094F0948E219F21982B31
:1077320019F0F90102E020D0F90104E01DD0F901AD
:1077420000E11AD00895F901E07CFF7FEF01A0E487
:10775200B0E0FE01EE0FFF1F45915591FE01E217C9
:10776200F30711F00A0102C07A010C01002704D0CC
:107772002196119771F70895E199FECF17B710FD81
:10778200FDCFEE0FFF1F016007BFE895089502FFCE
:107792004069773BCC3BFC01EE0FFF1F8591959131
:1077A20033CC03FF6E3E7200C83BD73BFC01082F6F
:1077B200899199919F938F930A95D1F7EF93FF93B4
:1077C2008991999121CC03FF6E723E00D23BE93B35
:1077D2009A938A93FF91EF910E2F8F919F919A9393
:1077E2008A930A95D1F7CF010FCC03FF64322A00A6
:1077F200E43BFB3B09911991000F111F881F991F50
:107802001A930A9301CC03FF64322F00F63B093C22
:107812000991199195958795179507951A930A934A
:10782200F3CB02FF642B043C163C29913991E99079
:10783200F99049915991240F351F8E1D9F1D3A933E
:107842002A93E2CB02FF642D123C273C2991399105
:10785200E990F99049915991421B530BE80AF90AB0
:107862005A934A93C701D0CB07FF64696E7665725B
:107872007400233C3C3C09911991809590950095A8
:1078820010951A930A93C0CB04FF2F6D6F64353C99
:107892004A3C9C0109911991412F432717FF04C0CB
:1078A200109500950F5F1F4F37FF04C0309520954C
:1078B2002F5F3F4FEE24FF1851E1001F111F5A9511
:1078C20039F447FF04C0109500950F5F1F4F0BC09E
:1078D200EE1CFF1CE21AF30A20F4E20EF31E889457
:1078E200ECCF0894EACFFA92EA92C8018DCB03FF5B
:1078F20061627300453C0138B1383E3A203804FFDA
:107902007069636B783C01382F3AC43E8D3A9D39D9
:107912007938203805FF63656C6C2B00803C913C04
:10792200029672CB04FF2B696E748B3C983C789460
:107932006BCB04FF2D696E74933C9F3CF89464CB2F
:1079420004FF696E74219A3C01383D3800009D396C
:107952003B3B203804FF696E7440A13C01383D383E
:1079620000009D395F3B203808FF696E742D7472E8
:107972006170AB3CBC3CB82E8991999145CB0138E2
:10798200AF3C2A38C53C2038C63C01D03DCB1895C7
:107992000138C5030300206F6B00F803203803FF92
:1079A2002E6F6B00B53CFF3D1C00C83DD43D013835
:1079B200C50302003E20A13FF803203806FF2E72C5
:1079C20065616479D03CFF3D2000C83DD43D01385B
:1079D200C5030400203F3F20F803BD3E7938FF383D
:1079E200413F7A03E23E79387A03F638BD3E813868
:1079F200203806FF2E6572726F72DF3CFF3D1E005B
:107A0200C83DD43D04FF71756974FA3C01385108D0
:107A120058088138CA05963AD705803AE608B73E33
:107A220079381A393638163DE43CDE043638283DBA
:107A32003D382506703DB9383638283DB1383D38D5
:107A4200FEFF6E393638263DFF3C2F38083DD43CC8
:107A52002F38103D05FF706175736500033DFF3DD2
:107A6200ED00B43DBE3D04FF636F6C642B3D393DB8
:107A7200A4B622243324BB2424BEE0E6F0E0219203
:107A8200E036E9F7F830D9F7EFEEF0E02F010FE535
:107A92000DBF048318E01EBF1583CFE0C683D8E074
:107AA200D783AAE5BDE3B0CA04FF7761726D343DA6
:107AB200013897023D389A013D38303DDF3DE608F6
:107AC2005C3F073D07FF68616E646C657200553D5F
:107AD20058380A0005FF636174636800633D01382A
:107AE2008D3AFF38693D7938FF38763A693D8138F9
:107AF2002A38F638693D8138F638D9385439203871
:107B020005FF7468726F77006B3D0138B1381A391E
:107B120036388D3DD9382038693D7938803AF63883
:107B2200693D8138F638C438FF38963AD938F63884
:107B3200203807FF4564656665724000813D013863
:107B4200CB3B5F3B203807FF4564656665722100C9
:107B52009A3D0138CB3B3B3B203807FF52646566B8
:107B620065724000A43D0138CB3B7938203807FFCD
:107B72005264656665722100AE3D0138CB3B8138A7
:107B8200203807FF5564656665724000B83D0138CC
:107B9200CB3B023B9D397938203807FF5564656637
:107BA20065722100C23D0138CB3B023B9D398138D1
:107BB200203806FF646566657221CE3D0138D03FEC
:107BC200B138C601C601CB3B2A38203806FF6465AE
:107BD20066657240DA3D0138D03FB138C601CB3B11
:107BE2002A38203807FF2864656665722900E73D58
:107BF20001382E078E085107FF3D20380E94A70842
:107C0200B138C601CB3B2A382A38203802FF752EFC
:107C1200F33D013854398203203803FF752E720078
:107C2200073E01385439C4388B03203805FF752FBD
:107C32006D6F64000E3E0138FF385439F638C23990
:107C4200203806FF6E6567617465173E0138FD399D
:107C52002F3A203801FF2F00223E0138493CF038EC
:107C6200203803FF6D6F64002B3E0138493CD93840
:107C7200203803FF6D696E00323E0138C93E783903
:107C82003638443EC438D938203803FF6D61780055
:107C92003A3E0138C93E6E393638503EC438D9387A
:107CA200203806FF77697468696E463E0138CF381E
:107CB2009339FF389339F6385C3920380DFF7368F1
:107CC2006F772D776F72646C69737400523E01385E
:107CD2003D386E3EC438CF0620380138EA06F80334
:107CE200AE3F4B39203805FF776F726473005F3EF9
:107CF20001383D3842005F3B683E203802002E22A8
:107D0200743E01388A3E5107F8032038020073227C
:107D12007F3E01383D3822008305B73E7938363838
:107D2200933E7D07203804FF66696C6C873E0138FC
:107D3200E138E138B9383638A53E993F9B3AB13837
:107D4200AC3A8D38C93AA03ED938203805FF665F73
:107D520063707500943E01383D3800123D387A0058
:107D6200203805FF737461746500A73E48381B0113
:107D720004FF62617365B23E58380C0005FF63650B
:107D82006C6C7300B93E0C3A04FF32647570BF3EEE
:107D92000138CF38CF38203805FF3264726F700057
:107DA200C53E0138D938D938203804FF7475636B61
:107DB200CD3E0138C438CF38203803FF3E696E000B
:107DC200D63E5838180003FF70616400DE3E013869
:107DD200233F3D3828009D39203804FF656D6974C2
:107DE200E43EFF3D0E00C83DD43D05FF656D69745C
:107DF2003F00EE3EFF3D1000C83DD43D03FF6B65E2
:107E02007900F63EFF3D1200C83DD43D04FF6B658C
:107E1200793FFF3EFF3D1400C83DD43D02FF647030
:107E2200073F6F382C00A03DAA3D05FF65686572CB
:107E320065000F3F6F383000A03DAA3D04FF686522
:107E42007265163F6F382E00A03DAA3D05FF616C9A
:107E52006C6F74001F3F0138233F9D39B401243FEA
:107E6200203803FF62696E00273F0138EB3FBD3EB9
:107E72008138203807FF646563696D616C00323FA9
:107E820001383D380A00BD3E8138203803FF68655D
:107E920078003B3F01383D381000BD3E8138203824
:107EA20002FF626C473F4838200007FF7475726E0C
:107EB2006B657900513FFF3D3800A03DAA3D07FFA9
:107EC200746F757070657200563F0138B1383D3875
:107ED20061003D387B00573E3638723F3D38DF0047
:107EE200133A203807FF746F6C6F77657200603F3A
:107EF2000138B1383D3841003D385B00573E3638D5
:107F0200853F3D3820001C3A203806FF3F737461DC
:107F1200636B733F0138E20521393638933F3D38B0
:107F2200FCFF863D203806FF626F756E6473863FE4
:107F32000138CF389D39C438203802FF6372943F2C
:107F420001383D380D00F23E3D380A00F23E20383D
:107F520005FF7370616365009E3F0138543FF23E36
:107F6200203806FF737061636573A93F0138543985
:107F72004A3EB1383638C13FAE3F353A2F38BA3F64
:107F8200D938203803FF733E6400B23F0138B1385C
:107F92002139203805FF3E626F647900C33F303AD1
:107FA2000800326C69746572616CCB3F0138C43869
:107FB20072077207203801FF3D00D13F0138933923
:107FC2001A39203801FF3100DC3F4838010001FF37
:107FD2003200E33F4838020002FF2D31E83F4838C3
:027FE200FFFF9F
:00000001FF
