:020000020000FC
:0200040026D103
:0200080024D101
:02000C0022D1FF
:0200100020D1FD
:020014001ED1FB
:020018001CD1F9
:02001C001AD1F7
:0200200018D1F5
:0200240016D1F3
:0200280014D1F1
:02002C0012D1EF
:0200300010D1ED
:020034000ED1EB
:020038000CD1E9
:02003C000AD1E7
:0200400008D1E5
:0200440006D1E3
:0200480004D1E1
:02004C0002D1DF
:0200500000D1DD
:02005400FED0DC
:02005800FCD0DA
:02005C00FAD0D8
:02006000F8D0D6
:10006400F6D00008000400701A000A0041546D65BF
:1000740067613332385007FF3E72782D627566002F
:1000840000004400082F10911001E0E0F1E0E10FBE
:10009400F31D008313951F7010931001899199919A
:1000A4000C94053806FF6973722D72783D0001388F
:1000B4003D38C6009838B1383D380300DF3F363844
:1000C4006400383D4300203801383D3859003D383C
:1000D4002400A53C3D3800013D3816005439983EB3
:1000E400203806FF72782D6275665400013893003B
:1000F400363879003D3811019838B1383D3800015F
:100104009D399838C4382F3A3D380F00133A3D389A
:1001140011018D38203807FF72783F2D6275660013
:1001240073000138303D3D38110198383D381001D5
:1001340098381339203807FF74782D706F6C6C0071
:100144008D000138B1003638A4003D38C6008D3822
:10015400203808FF74783F2D706F6C6C9D00013857
:10016400303D3D38C00098383D382000133A2038DF
:1001740004FF75627272AB006F388C00A03DAA3D1B
:1001840006FF2B7573617274BA0001383D3898000C
:100194003D38C1008D383D3806003D38C2008D38E9
:1001A400BE00B138F93A3D38C5008D383D38C40039
:1001B4008D386600203808FF31772E7265736574B8
:1001C400C200E4009A938A93249A2C98E0E8F7E01A
:1001D4003197F1F71FB7F8942C9A2498E0E0F1E0F6
:1001E4003197F1F783B184FF9FEF1FBF24982C98B8
:1001F400E0E8F6E03197F1F7892F0C94053807FF12
:1002040031772E736C6F7400DD0008012C98249AEA
:100214001FB7F894E8E1F0E03197F1F788948795F7
:1002240010F42C9A2498E4E2F0E03197F1F703B14A
:1002340004FD8068ECECF0E03197F1F72C9A2498F7
:0E024400E8E0F0E03197F1F71FBF0C940538A9
:040000000C94393DE6
:100252000A920FB60A920F900F900A94B02CFF9355
:10026200EF93E2E1F1E00694E00DF31D00800394C8
:100272000082EF91FF9109900FBE0990089502FF4D
:100282006D2B01010138C73F153C203803FF75640F
:100292002A0040010138B138FF38E039D938C43872
:1002A200F638E039E1389D39203804FF756D617800
:1002B20047010138C93E5C3936386001C438D93843
:1002C200203804FF756D696E56010138C93E6739E1
:1002D20036386C01C438D938203801383D380080AE
:1002E200133A1A3936387701E63F20384B3920382D
:1002F2000AFF6E616D653E666C616773620101386B
:10030200CB3B3D3800FF133A203803FF766572007D
:1003120079010138DA020304AE3FBD3E7938E802C2
:10032200413FC73F210329033D382E0012033F03FB
:100332004A033904BD3E8138AE3FF002030420383F
:1003420004FF6E6F6F7086010138203806FF756EEC
:1003520075736564A10101388D3A233F93392038C2
:100362000200746FA70101384804D03FB73E7938C4
:100372003638C5015C07BF01670720380138F638F7
:10038200B138D101FF38CB3BB138D101D101CB3BE0
:100392002A38203807FF692D63656C6C2B00B10188
:1003A20001382F3A203808FF69636F6D70617265FA
:1003B200CB010138FF38CF38F63813393638E5012A
:1003C200D23ED9384B392038C43854392608363809
:1003D20008029B3ACF387938CF38CB3BB1383D3819
:1003E20000015C393638F901C4383D38FF00133A50
:1003F200133936380002D23E4B39D43A20382F3ADC
:10040200C438903CC4383D380200BA3AEB01D23EBF
:100412005439203801FF2A00D4010138A639D938CD
:10042200203801FF6A000B020138763A3D38070096
:100432009D397938763A3D3809009D3979389D39A8
:10044200203804FF6461627312020138B138213925
:1004520036382C023302203807FF646E65676174F8
:100462006500220201383B3CE63F5439153C2038F6
:1004720005FF636D6F7665002D023F02BF93AF9358
:10048200E991F991A991B991092F082B21F01D91B8
:1004920011930197E1F7AF91BF91899199910C94D2
:1004A200053805FF32737761700039020138E1388F
:1004B200FF38E138F63820380AFF726566696C6CDD
:1004C2002D7469625202013880023D385A00980444
:1004D200860281385439E23E81384B3920380AFF8E
:1004E200736F757263652D7469625D0201388002F3
:1004F20086027938203803FF746962007002483836
:100502002C0104FF237469627C024838860106FFCD
:1005120065653E72616D8202013854399B3ACF386B
:100522005F3BCF388138903CC438903CC438C93ADC
:100532009002D23E203808FF696E69742D72616D97
:10054200880201383D386A00023B3D382200043AF5
:100552008D0220380BFF656E7669726F6E6D656E67
:1005620074009C024838440009FF776F72646C691A
:1005720073747300000001383D380800203804FF0E
:100582002F706164B50201388D3AE83E9339203804
:1005920005FF2F686F6C6400C0020138E83E233FFC
:1005A200933920380AFF666F7274682D6E616D652B
:1005B200C9020138D0030700616D666F727468006A
:1005C200203807FF76657273696F6E00D3020138B7
:1005D2003D384100203803FF63707500E2020138A4
:1005E2003D3837002F04203808FF6D63752D696E82
:1005F200666FEC0201383D383300203805FF2F7555
:1006020073657200F50201383D382C00203803FF73
:10061200686C6400AB024838880104FF686F6C6440
:10062200080301380C03B1387938353AB138FF384C
:10063200C4388138F6388D38203802FF3C230E0347
:100642000138E83E0C038138203801FF23001E03E5
:100652000138BD3E7938A603E1383D380900CF386C
:100662006E39363837033D3807009D393D38300042
:100672009D391203203802FF237326030138290310
:10068200C93E1C3A1A3936384003203802FF233E4D
:100692003C030138D23E0C037938E83ECF38933917
:1006A200203804FF7369676E4703013821393638F1
:1006B2005D033D382D001203203803FF642E7200C3
:1006C20052030138FF38DA3E260221033F03E138A4
:1006D20056034A03F638CF389339B73F39042038E6
:1006E20002FF2E725E030138FF38C73FF6386203FD
:1006F200203802FF642E7103013854396203AE3F81
:10070200203801FF2E007A030138C73F7D032038CD
:1007120003FF75642E008203013854399603AE3FFD
:10072200203804FF75642E7289030138FF382103D3
:100732003F034A03F638CF389339B73F390420389C
:1007420006FF75642F6D6F6492030138FF385439C8
:100752000839C239F638C438FF38C239F638203879
:1007620006FF64696769743FA1030138663FB138C7
:100772003D38390078393D380001133A9D39B13896
:100782003D38400178393D380701133A93393D38F5
:1007920030009339B138BD3E79385C3920380138A0
:1007A20008392F04F638CF382F3A043A9D392F3AB8
:1007B200FF38203802FF732CB1030138B138E2034D
:1007C200203801386707B138043ADA3E0B3A9339D8
:1007D200FF38543926083638F5039B3AB138793850
:1007E2006707903CC93AEF03F63828393638FC03DC
:1007F200B13898386707D938203805FF697479709D
:100802006500DB030138B138043ADA3E0B3A93391A
:10081200FF3854392608363817049B3AB138CB3B97
:10082200B138240420042F3AC93A0F04F638283983
:1008320036381E04B138CB3B2404D938203801386D
:10084200F93A2404203801383D38FF00133AF23EC9
:10085200203806FF69636F756E74FE030138B13884
:100862002F3AC438CB3B203804FF747970652A04D0
:100872000138993F2608363844049B3AAC3A9838F6
:10088200F23EC93A3F04203801FF270035040138FF
:10089200BB05FE050906B1389606DF3FC438CB3BDF
:1008A2003D38A501DF3F1C3A36385A043D38F3FF84
:1008B200863DD938203805FF63736B6970004504A3
:1008C2000138FF38B13836387004CF3898380839D3
:1008D200DF3F36387004E63FAC052F386304F63844
:1008E200D938203805FF637363616E005C040138F8
:1008F200FF38CF38B13898380839DF3F1A393638DF
:100902008D04C438353AC438CF3821391A393638CB
:100912008D042F3A2F387B04F038CF389339F638CC
:10092200D938203806FF6163636570747304013837
:10093200CF389D39353ACF38033FB138D9041A3907
:100942003638CB04B1383D380800DF3F3638BB04B7
:10095200D938E138C93E7839FF38E138E138F6381C
:100962003638B904D104353AFF38CF38F6385A014F
:100972002F38C904B138543F6E393638C204D938D9
:10098200543FB138F23ECF388D382F3ACF38660116
:100992002F389D04D938F038C4389339A13F203814
:1009A20001383D380800B138F23EAE3FF23E203801
:1009B2000138B1383D380D00DF3FC4383D380A00F8
:1009C200DF3F1C3A203806FF726566696C6C93043F
:1009D200FF3D1A00C83DD43D04FF63686172E40420
:1009E2000138BB05D9389838203806FF6E756D621C
:1009F2006572ED040138BD3E7938FF383F05FF3896
:100A020052053F05F6381C3AFF38B1381A393638E4
:100A12001205D23EF638D938F638BD3E81385439FF
:100A220020381E3B543954392D3B7005B9383638BD
:100A32003405E63FDF3F36382B0598383D382E0027
:100A4200DF3F36382C05F638363828053302EB3FBF
:100A52002F383A05D938D23EF638D938F638BD3E65
:100A6200813854392038D23EF63836383905273E97
:100A7200E63FF638BD3E81384B3920380138CF3851
:100A820098383D382D00DF3FB138FF3836384B05F6
:100A9200E63FAC05F638203852380A001000020052
:100AA2000A000138CF3898383D3823009339B138DD
:100AB20054393D380400573E363868054D059D3996
:100AC200CB3BBD3E8138E63FAC052F386905D938AE
:100AD200203807FF3E6E756D62657200F6040138BC
:100AE200B13836388805CF389838B6031A393638CF
:100AF2007C05D9382038FF385702BD3E79384B0182
:100B0200F63843015702E63FAC052F38710520380D
:100B120005FF7061727365006A050138FF38A2052E
:100B2200E23E7938AC05F6387804B1382F3AE23E25
:100B3200653AE63FAC05203806FF736F7572636550
:100B42008905FF3D1600C83DD43D07FF2F7374721F
:100B5200696E67009D050138E138CF389D39E1386B
:100B6200E138933920380AFF70617273652D6E6126
:100B72006D65A6050138543FBF0520380138FF389E
:100B8200A205E23E7938AC0508396104F6387804EA
:100B9200C93E9D39A205D9389339E23E81382038C1
:100BA20003FF73703000B4056F380600C83DD43DB2
:100BB20002FF7370D1055838080003FF72703000CD
:100BC200D9050138E605793820385838040005FF80
:100BD200646570746800DE050138D5058D3A933975
:100BE200043A353A203810FF666F7274682D7265C8
:100BF200636F676E697A6572E8056F383E00A03DE3
:100C0200AA3D09FF7265636F676E697A6500F40534
:100C120001383D381406C438A7091A393638130684
:100C2200D23E960620380138E138E138C93E1E3BF3
:100C3200E1382A382D3BE138B1389606DF3F3638A5
:100C42002506D93854392038F038F0384B39203855
:100C520009FF696E7465727072657400020601386C
:100C6200BB05B13836384106FE050906B73E79386C
:100C720036383C06D101CB3B2A388B3F2F38310620
:100C8200D23E203806FF64743A6E756D29065238DA
:100C9200A5017D077D0707FF64743A646E756D00D8
:100CA20043065238A501D73FD73F07FF7265633A23
:100CB2006E756D004C060138FB0436386806E63F57
:100CC200DF3F363866064806203852062038960638
:100CD200203808FF7265633A66696E645606013809
:100CE2000B07B1381A3936387906D93896062038C2
:100CF2008006203805FF64743A7874006A06523818
:100D020084068806D73F0138D9382A382038013876
:100D1200213936388E06670720382A38203807FFEF
:100D220064743A6E756C6C007B0652389A069A06A9
:100D32009A0601383D38F3FF863D0FFF73656172F5
:100D420063682D776F72646C697374009006013862
:100D5200FF3854393D38BD06F638DA06B1381A394B
:100D62003638B706D23ED93854392038B13801075F
:100D7200C43880016E0120380138FF38D938C93EA5
:100D82000839F506DA013638CB06F638D93854393F
:100D92004B392038D23EF6385439203811FF74725C
:100DA2006176657273652D776F72646C6973740016
:100DB2009E0601385F3BB1383638EB06C93E1E3B12
:100DC200C4382A382D3BE1383638EB06160ACB3BBD
:100DD2002F38DC06D23E20380BFF6E616D653E7304
:100DE2007472696E6700CF0601382F043D38FF0028
:100DF200133A203807FF6E66613E63666100ED06B6
:100E02000138160A2F3A203807FF66696E642D787A
:100E12007400FB0601383D3817073D384A00A70920
:100E22001A3936381607D23E543920380138FF387D
:100E3200C93EF638A806B13836382407FF38F038EC
:100E4200F038F6384B39203806FF6E6577657374D3
:100E5200050748388A0106FF6C61746573742507BB
:100E620048388E0108FF28637265617465292C0772
:100E72000138BB059008B1382A07903C81387508C3
:100E82002A078138203801005C0033070138A205A7
:100E9200F038E23E8138203801002800440701384A
:100EA2003D3829008E05D23E203807FF636F6D70F2
:100EB200696C65004D070138F638B138D101FF3849
:100EC200CB3B6707203801FF2C0056070138123F41
:100ED200733B123F2F3ABF01133F203803005B27B9
:100EE2005D006407013848047D07203807006C69FB
:100EF200746572616C006F0701385C073D386707E3
:100F020020380800736C69746572616C7707013868
:100F12005C07D003DE0320380138123F5C07FFFF75
:100F2200203801388B3F123FC438733B20380138D8
:100F3200123F203801388B3F67072038050061686F
:100F420065616400820701385C072F388D072038FD
:100F5200020069669F0701385C0736388D07203822
:100F62000400656C7365A90701385C072F388D078B
:100F7200C4389207203804007468656EB1070138DE
:100F8200920720380500626567696E00BC07013868
:100F92009807203805007768696C6500C307013837
:100FA200AC07C43820380600726570656174CB07DF
:100FB2000138ED07C00720380500756E74696C00B2
:100FC200D40701383D38363867079B0720380500BB
:100FD200616761696E00DD0701385C072F389B0786
:100FE20020380200646FE80701385C079B3A9807D3
:100FF20054395008203804006C6F6F70F2070138C2
:101002005C07C93A3708203805002B6C6F6F7000F7
:10101200FC0701385C07BA3A3708203805006C65CE
:1010220061766500050801385C07D43AA4075008C8
:10103200203803003F646F000F0801385C07260860
:10104200AC07F507C438500820380138C93EDF3FE5
:10105200B138FF3836382E08D23EF638FD392038FE
:1010620007FF656E646C6F6F70001A0801389B078A
:101072004408B93836384008C0072F3839082038B4
:1010820002FF6C3E310801386308793879383D38FF
:10109200FEFF6308653A203802FF3E6C41080138C2
:1010A200EB3F6308653A630879388138203803FFDB
:1010B2006C7030004D086F384000A03DAA3D02FF21
:1010C2006C7058084838900106FF63726561746558
:1010D20060080138390799085C075238203806FF42
:1010E20068656164657265080138123FFF38FF3830
:1010F200B138283936388708B1383D3800FF1C3AF4
:10110200E203F6385F3B6707F63820383D38F0FFD8
:10111200863D07FF776C73636F7065007008FF3D53
:101122003C00A03DAA3D06FF72657665616C8A08A7
:1011320001382A07903C7938B9383638A4082A078A
:101142007938C4383B3B20380500646F65733E0034
:10115200940801385C07BD085C070E945C07B2086E
:1011620020389A938A93CB0101967F916F91BF9316
:10117200AF93DB010C9405380138F6382A07903C0E
:1011820079385F3B0107733B203801FF3A00A5081D
:1011920001383907D408D938203807FF3A6E6F6E04
:1011A200616D6500C6080138123FB13831078138D8
:1011B2005C070138E908203801003B00CE080138FD
:1011C2005C072038F1089908203801FF5D00DD082E
:1011D2000138E63FB73E8138203801005B00E6085F
:1011E20001385439B73E8138203808FF7661726978
:1011F20061626C65EE080138233F0809EB3F2C3F22
:10120200203808FF636F6E7374616E74F6080138DC
:10121200390799085C0748386707203804FF757357
:10122200657202090138390799085C07583867075F
:101232002038070072656375727365000F09013803
:10124200310779386707203809FF696D6D65646970
:10125200617465001A090138CE095F3BB138CB3B96
:101262003D38FF7F133AC438733B203806005B6376
:101272006861725D250901385C073D38F104670732
:101282002038060061626F727422370901388A3E83
:101292005C075909203805FF61626F7274004209C8
:1012A20001384B39863D06FF3F61626F72744C090B
:1012B2000138E13836385F0903045109D23E20383B
:1012C20009FF6765742D737461636B0054090138FB
:1012D200B138903CC4385F3BB138FF385439C43818
:1012E200260836387F099B3AAC3A353AC43ECF38A5
:1012F2009D395F3BC4384B39BA3A7509D23EF6384C
:10130200203809FF7365742D737461636B00610982
:101312000138CF382139363891093D38FCFF863DF6
:10132200C93E3B3BC4385439260836389E099B3A9D
:10133200903CDA3E3B3BC93A9909D938203809FF3B
:101342006D61702D737461636B0082090138B1386D
:10135200903CC4385F3BC43E993F26083638C309E7
:101362009B3AAC3A5F3BC438FF3808392A38B9385F
:101372003638BF09F638D938D43A2038F638EB3F38
:10138200BA3AB209D938543920380BFF6765742D3F
:1013920063757272656E7400A00901383D384600AB
:1013A2005F3B203809FF6765742D6F7264657200B8
:1013B200C60901383D384A006809203809FF6366CA
:1013C200672D6F7264657200D30948384A0007FFBF
:1013D200636F6D7061726500DF09EF09BF93AF93B0
:1013E2008C0189919991DC01899199919C01899152
:1013F2009991FC01ED90F190EF1451F40A9519F0D6
:101402002A95C1F701C02A95022B11F4882702C040
:101412008FEF00C0982FAF91BF910C94053807FF52
:101422006E66613E6C666100E8090138F5062F3A86
:10143200043A9D39203802FF2E73100A0138ED0557
:101442000A3EAE3FED055439260836382E0A9B3A3D
:10145200AC3A843C0A3EC93A290A203806FF632185
:10146200407370691C0A350A03D099270C94053819
:101472008EBD0DB5087F0DBD0DB507FFFACF8EB538
:10148200089505FF6E40737069002F0A480A8C01A7
:1014920089919991FC01C8012EBC2DB527FFFDCF82
:1014A2002EB521930197C1F7899199910C94053832
:1014B20005FF6E2173706900420A5F0A8C018991EF
:1014C2009991FC01C80121912EBD2DB527FFFDCFB9
:1014D2002EB50197C1F7899199910C9405380BFFAC
:1014E2006170706C7475726E6B657900590A01389F
:1014F200C700973C8A01AE3FAC3E3D38E803C23993
:10150200F038413F8503D00304006B487A2003047E
:1015120020380BFF7365742D63757272656E7400EB
:10152200700A01383D3846003B3B203808FF776F90
:1015320072646C6973748A0A01381B3F5439CF385C
:101542003B3BB138903CBF011C3F20380EFF666F19
:101552007274682D776F72646C697374970A483875
:10156200480009FF7365742D6F7264657200A70AE3
:1015720001383D384A00890920380FFF7365742D00
:101582007265636F676E697A65727300B20A0138B9
:101592003D385C00890920380FFF6765742D72653C
:1015A200636F676E697A65727300BE0A01383D38EF
:1015B2005C006809203804FF636F6465CD0A013856
:1015C20039079908123FD1016707203808FF656E75
:1015D200642D636F6465DC0A01385C070C945C0758
:1015E2000538203808FF286D61726B657229E70A99
:1015F2006F386800A03DAA3D0800706F7374706F69
:101602006E65F30A0138BB05FE050906B138FF38DD
:10161200D101D101CB3B2A38F638D101CB3B670748
:10162200203803FF32724000FD0A170B9A938A9307
:10163200EF91FF918F919F919F938F93FF93EF93E0
:0A1642009A938A93CF010C940538A7
:10700200BF93AF93DB011196B21469F4FD01EE0F49
:10701200FF1F659175911196FB01EE0FFF1F059100
:107022001591F80109949A938A938B2D9927BB2481
:1070320060EC7CE3F1CF04FF65786974120B2138B0
:10704200AF91BF91E1CF07FF657865637574650005
:107052001C382B38BC0189919991DECF3038FD0163
:10706200EE0FFF1FA591B591CFCF3738982B89919D
:107072009991A9F31196C8CF3E389A938A93FD014C
:10708200EE0FFF1F859195911196BECF48389A93C6
:107092008A93FB013196EE0FFF1F85919591B4CF34
:1070A20052389A938A93CB010196AECF58389A936D
:1070B2008A93FB013196EE0FFF1F85919591840D06
:1070C200951DA2CF07FF2876616C756529002438CB
:1070D2000138390799085C076F3820380E94B208D6
:1070E200B138D101CB3B2A38203801FF4000633848
:1070F2007A38FC018191919187CF01FF2100763886
:107102008238FC0189919991918380838991999127
:107112007BCF02FF63217E388E38FC0189919991E1
:1071220080838991999170CF02FF63408A389938A0
:10713200FC019927808168CF02FF4075953801389C
:10714200023B9D397938203802FF21759D3801387C
:10715200023B9D398138203803FF64757000A538E1
:10716200B2389A938A9350CF04FF3F647570AD385A
:10717200BA38082F092B11F09A938A9345CF04FF4E
:1071820073776170B538C5388C01899199911A93DA
:107192000A933ACF04FF6F766572C038D0389A935B
:1071A2008A938A819B8130CF04FF64726F70CB38DF
:1071B200DA388991999128CF03FF726F7400D5381C
:1071C200E2388C0129913991899199913A932A93C4
:1071D2001A930A9319CF03FF6E697000DD38F138F4
:1071E200229612CF02FF723EEC38F7389A938A93B6
:1071F2008F919F9109CF02FF3E72F33800399F931E
:107202008F938991999100CF02FF7240FC3809391E
:107212009A938A938F919F919F938F93F5CE02FFBA
:107222003C3E05390138DF3F1A39203802FF303D34
:1072320010391B39982BD1F530C002FF303C173979
:10724200223997FD2AC032C002FF303E1E39293949
:10725200821593055CF151F120C003FF64303E00BA
:1072620025393339821593058991999182059305C0
:10727200ECF0E1F012C003FF64303C002E394139DA
:10728200229697FD0C944E390C94573904FF747270
:1072920075653C394C399A938A938FEF9FEFB4CE40
:1072A20001FF3000473955399A938A93C101ACCE18
:1072B20002FF753C51395D39299139918217930743
:1072C200A8F3A1F3EACF02FF753E59390138C43859
:1072D2005C39203801FF3C0064396F3929913991BA
:1072E200281739071CF7D9CF01FF3E006B397939CE
:1072F2002991399128173907CCF2C1F2CECF04FF78
:107302006C6F673275398539FC01992780E18A955E
:1073120022F0EE0FFF1FD8F777CE9A9575CE01FFB8
:107322002D008039943909911991081B190BC80154
:107332006BCE01FF2B0090399E3909911991800F74
:10734200911F62CE02FF6D2A9A39A7398C01899169
:1073520099919C0131027001209FC0013003F30812
:10736200900DE11CF31C1203F308900DE11CF31CB9
:107372009A938A93C70148CE06FF756D2F6D6F648D
:10738200A339C3397C01299139910991199140E1BD
:107392005527000F111F221F331F551F2E153F05A2
:1073A200520518F003952E193F094A9589F73A9329
:1073B2002A93C80129CE03FF756D2A00BD39E13930
:1073C2008C0189919991809FF00122273327909F08
:1073D200F00D211D331D819FF00D211D331D919F45
:1073E200200D311DCF019A938A93C9010DCE06FF5C
:1073F200696E76657274DC39FE398095909504CE9B
:1074020002FF322FF839053A95958795FDCD02FF97
:10741200322A013A0C3A880F991FF6CD03FF616EAA
:107422006400083A143A0991199180239123ECCD12
:1074320002FF6F720F3A1D3A09911991802B912B1D
:10744200E3CD03FF786F7200193A273A0991199137
:1074520080279127D9CD02FF312B223A303A01966B
:10746200D3CD02FF312D2C3A363A0197CDCD07FF0D
:107472003F6E656761746500323A013821393638EA
:10748200433A273E203806FF6C7368696674383ABF
:107492004A3AFC018991999131971AF0880F991F04
:1074A200FBCFB2CD06FF727368696674443A593AEB
:1074B200FC018991999131971AF096958795FBCFA6
:1074C200A3CD02FF2B21533A663AFC01899199918F
:1074D20020813181820F931F8083918389919991B9
:1074E20093CD03FF72704000623A773A9A938A937F
:1074F2008DB79EB789CD03FF72702100723A813A2F
:107502002FB7F8948DBF9EBF2FBF899199917CCDE3
:1075120003FF737040007C3A8E3A9A938A93CE01AD
:1075220073CD03FF73702100893A973AEC01899178
:1075320099916ACD9C3A29913991E0E83E0F821BDC
:10754200930B3F932F939F938F93899199915CCD46
:1075520001FF6900923AAD3A9A938A938F919F9173
:10756200EF91FF91FF93EF939F938F938E0F9F1F46
:107572004BCDBB3AEF91FF91E80FF91F8991999199
:107582001BF0FF93EF936BCD0F911F9111963CCDA2
:10759200CA3AEF91FF913196BBF3F3CF06FF756EB6
:1075A2006C6F6F70A93AD53A1F910F911F910F918D
:1075B2002BCD06FF636D6F76653ECF3AE03ABF93FF
:1075C200AF93E991F991A991B991092F082B41F053
:1075D200E80FF91FA80FB91F1E9112930197E1F747
:1075E200AF91BF91899199910FCD02FF3E3CDA3A5A
:1075F200FA3A092F982F802F07CD03FF75704000AC
:10760200F63A033B9A938A93C201FECC03FF75704C
:107612002100FE3A0C3B2C0189919991F5CC03FF94
:10762200316D7300073B153BE0EAFFE03197F1F75C
:10763200EBCC03FF323E7200103B1F3BFC018991F1
:1076420099919F938F93FF93EF9389919991DCCCBA
:1076520003FF32723E001A3B2E3B9A938A93EF91BC
:10766200FF918F919F919A938A93CF01CDCC02FF84
:107672002165293B3C3BFC01899199912FB7F894F4
:1076820028D000B5081709F00BD0319622D000B5EA
:10769200091711F0892F04D02FBF89919991B4CC89
:1076A200F999FECF07B700FDFDCFF2BDE1BD80BD68
:1076B200FA9AF99A089502FF4065383B603B2FB76A
:1076C200F894FC0106D080B5319603D090B52FBF57
:1076D2009BCCF999FECFF2BDE1BDF89A089502FF65
:1076E20021695C3BFF3D6600A03DAA3D09FF2821C0
:1076F200692D6E7277772900703B7F3B1FB71F930E
:10770200F8949C0189919991AF93BF93CF93DF93A2
:1077120009D0DF91CF91BF91AF91899199911F913A
:107722001FBF72CC10D0E094F0948E219F21982B31
:1077320019F0F90102E020D0F90104E01DD0F901AD
:1077420000E11AD00895F901E07CFF7FEF01A0E487
:10775200B0E0FE01EE0FFF1F45915591FE01E217C9
:10776200F30711F00A0102C07A010C01002704D0CC
:107772002196119771F70895F999FECF17B710FD69
:10778200FDCFEE0FFF1F016007BFE895089502FFCE
:107792004069773BCC3BFC01EE0FFF1F8591959131
:1077A20033CC03FF6E3E7200C83BD73BFC01082F6F
:1077B200899199919F938F930A95D1F7EF93FF93B4
:1077C2008991999121CC03FF6E723E00D23BE93B35
:1077D2009A938A93FF91EF910E2F8F919F919A9393
:1077E2008A930A95D1F7CF010FCC03FF64322A00A6
:1077F200E43BFB3B09911991000F111F881F991F50
:107802001A930A9301CC03FF64322F00F63B093C22
:107812000991199195958795179507951A930A934A
:10782200F3CB02FF642B043C163C29913991E99079
:10783200F99049915991240F351F8E1D9F1D3A933E
:107842002A93E2CB02FF642D123C273C2991399105
:10785200E990F99049915991421B530BE80AF90AB0
:107862005A934A93C701D0CB07FF64696E7665725B
:107872007400233C3C3C09911991809590950095A8
:1078820010951A930A93C0CB04FF2F6D6F64353C99
:107892004A3C9C0109911991412F432717FF04C0CB
:1078A200109500950F5F1F4F37FF04C0309520954C
:1078B2002F5F3F4FEE24FF1851E1001F111F5A9511
:1078C20039F447FF04C0109500950F5F1F4F0BC09E
:1078D200EE1CFF1CE21AF30A20F4E20EF31E889457
:1078E200ECCF0894EACFFA92EA92C8018DCB03FF5B
:1078F20061627300453C0138B1383E3A203804FFDA
:107902007069636B783C01382F3AC43E8D3A9D39D9
:107912007938203805FF63656C6C2B00803C913C04
:10792200029672CB04FF2B696E748B3C983C789460
:107932006BCB04FF2D696E74933C9F3CF89464CB2F
:1079420004FF696E74219A3C01383D3800009D396C
:107952003B3B203804FF696E7440A13C01383D383E
:1079620000009D395F3B203808FF696E742D7472E8
:107972006170AB3CBC3CB82E8991999145CB0138E2
:10798200AF3C2A38C53C2038C63C01D03DCB1895C7
:107992000138D0030300206F6B000304203803FF7B
:1079A2002E6F6B00B53CFF3D1C00C83DD43D013835
:1079B200D00302003E20A13F0304203806FF2E72AE
:1079C20065616479D03CFF3D2000C83DD43D01385B
:1079D200D0030400203F3F200304BD3E7938FF3826
:1079E200413F8503E23E79388503F638BD3E813852
:1079F200203806FF2E6572726F72DF3CFF3D1E005B
:107A0200C83DD43D04FF71756974FA3C01385C08C5
:107A120063088138D505963AE205803AF108B73E07
:107A220079381A393638163DE43CE9043638283DAF
:107A32003D383006703DB9383638283DB1383D38CA
:107A4200FEFF6E393638263DFF3C2F38083DD43CC8
:107A52002F38103D05FF706175736500033DFF3DD2
:107A62009201B43DBE3D04FF636F6C642B3D393D12
:107A7200A4B622243324BB2424BEE0E0F1E0219208
:107A8200E030E9F7F930D9F7E4E9F1E02F010FEF3F
:107A92000DBF048318E01EBF1583CFEAC683D8E06A
:107AA200D783AAE5BDE3B0CA04FF7761726D343DA6
:107AB2000138A2023D38A5013D38303DDF3DF108D5
:107AC2005C3F073D07FF68616E646C657200553D5F
:107AD20058380A0005FF636174636800633D01382A
:107AE2008D3AFF38693D7938FF38763A693D8138F9
:107AF2002A38F638693D8138F638D9385439203871
:107B020005FF7468726F77006B3D0138B1381A391E
:107B120036388D3DD9382038693D7938803AF63883
:107B2200693D8138F638C438FF38963AD938F63884
:107B3200203807FF4564656665724000813D013863
:107B4200CB3B5F3B203807FF4564656665722100C9
:107B52009A3D0138CB3B3B3B203807FF52646566B8
:107B620065724000A43D0138CB3B7938203807FFCD
:107B72005264656665722100AE3D0138CB3B8138A7
:107B8200203807FF5564656665724000B83D0138CC
:107B9200CB3B023B9D397938203807FF5564656637
:107BA20065722100C23D0138CB3B023B9D398138D1
:107BB200203806FF646566657221CE3D0138D03FEC
:107BC200B138D101D101CB3B2A38203806FF646598
:107BD20066657240DA3D0138D03FB138D101CB3B06
:107BE2002A38203807FF2864656665722900E73D58
:107BF2000138390799085C07FF3D20380E94B20816
:107C0200B138D101CB3B2A382A38203802FF752EF1
:107C1200F33D013854398D03203803FF752E72006D
:107C2200073E01385439C4389603203805FF752FB2
:107C32006D6F64000E3E0138FF385439F638C23990
:107C4200203806FF6E6567617465173E0138FD399D
:107C52002F3A203801FF2F00223E0138493CF038EC
:107C6200203803FF6D6F64002B3E0138493CD93840
:107C7200203803FF6D696E00323E0138C93E783903
:107C82003638443EC438D938203803FF6D61780055
:107C92003A3E0138C93E6E393638503EC438D9387A
:107CA200203806FF77697468696E463E0138CF381E
:107CB2009339FF389339F6385C3920380DFF7368F1
:107CC2006F772D776F72646C69737400523E01385E
:107CD2003D386E3EC438DA0620380138F506030412
:107CE200AE3F4B39203805FF776F726473005F3EF9
:107CF20001383D384C005F3B683E203802002E229E
:107D0200743E01388A3E5C07030420380200732265
:107D12007F3E01383D3822008E05B73E793836382D
:107D2200933E8807203804FF66696C6C873E0138F1
:107D3200E138E138B9383638A53E993F9B3AB13837
:107D4200AC3A8D38C93AA03ED938203805FF665F73
:107D520063707500943E01383D3800243D38F400CC
:107D6200203805FF737461746500A73E4838C0016E
:107D720004FF62617365B23E58380C0005FF63650B
:107D82006C6C7300B93E0C3A04FF32647570BF3EEE
:107D92000138CF38CF38203805FF3264726F700057
:107DA200C53E0138D938D938203804FF7475636B61
:107DB200CD3E0138C438CF38203803FF3E696E000B
:107DC200D63E5838180003FF70616400DE3E013869
:107DD200233F3D3828009D39203804FF656D6974C2
:107DE200E43EFF3D0E00C83DD43D05FF656D69745C
:107DF2003F00EE3EFF3D1000C83DD43D03FF6B65E2
:107E02007900F63EFF3D1200C83DD43D04FF6B658C
:107E1200793FFF3EFF3D1400C83DD43D02FF647030
:107E2200073F6F383600A03DAA3D05FF65686572C1
:107E320065000F3F6F383A00A03DAA3D04FF686518
:107E42007265163F6F383800A03DAA3D05FF616C90
:107E52006C6F74001F3F0138233F9D39BF01243FDF
:107E6200203803FF62696E00273F0138EB3FBD3EB9
:107E72008138203807FF646563696D616C00323FA9
:107E820001383D380A00BD3E8138203803FF68655D
:107E920078003B3F01383D381000BD3E8138203824
:107EA20002FF626C473F4838200007FF7475726E0C
:107EB2006B657900513FFF3D4200A03DAA3D07FF9F
:107EC200746F757070657200563F0138B1383D3875
:107ED20061003D387B00573E3638723F3D38DF0047
:107EE200133A203807FF746F6C6F77657200603F3A
:107EF2000138B1383D3841003D385B00573E3638D5
:107F0200853F3D3820001C3A203806FF3F737461DC
:107F1200636B733F0138ED0521393638933F3D38A5
:107F2200FCFF863D203806FF626F756E6473863FE4
:107F32000138CF389D39C438203802FF6372943F2C
:107F420001383D380D00F23E3D380A00F23E20383D
:107F520005FF7370616365009E3F0138543FF23E36
:107F6200203806FF737061636573A93F0138543985
:107F72004A3EB1383638C13FAE3F353A2F38BA3F64
:107F8200D938203803FF733E6400B23F0138B1385C
:107F92002139203805FF3E626F647900C33F303AD1
:107FA2000800326C69746572616CCB3F0138C43869
:107FB2007D077D07203801FF3D00D13F013893390D
:107FC2001A39203801FF3100DC3F4838010001FF37
:107FD2003200E33F4838020002FF2D31E83F4838C3
:027FE200FFFF9F
:00000001FF
