:020000020000FC
:020004002AD1FF
:0200080028D1FD
:02000C0026D1FB
:0200100024D1F9
:0200140022D1F7
:0200180020D1F5
:02001C001ED1F3
:020020001CD1F1
:020024001AD1EF
:0200280018D1ED
:02002C0016D1EB
:0200300014D1E9
:0200340012D1E7
:0200380010D1E5
:02003C000ED1E3
:020040000CD1E1
:020044000AD1DF
:0200480008D1DD
:02004C0006D1DB
:0200500004D1D9
:0200540002D1D7
:0200580000D1D5
:02005C00FED0D4
:02006000FCD0D2
:02006400FAD0D0
:02006800F8D0CE
:10006C00F6D00010000800E01C00090041546D653A
:10007C0067613634340007FF3E72782D6275660076
:10008C0000004800082F10911001E0E0F1E0E10FB2
:10009C00F31D008313951F70109310018991999192
:1000AC000C94057006FF6973722D72784100017013
:1000BC003D70C6009870B1703D7003007F7D367046
:1000CC006800597A4700207001703D705D003D70EA
:1000DC00280087743D7000013D7016005471CF7478
:1000EC00207006FF72782D627566580001709700BB
:1000FC0036707D003D7011019870B1703D7000013B
:10010C009D719870C4702F723D700F0013723D700A
:10011C0011018D70207007FF72783F2D627566009B
:10012C0077000170517A3D70110198703D7010018B
:10013C0098701371207007FF74782D706F6C6C00C1
:10014C0091000170B5003670A8003D70C6008D702E
:10015C00207008FF74783F2D706F6C6CA1000170DB
:10016C00517A3D70C00098703D7020001372207061
:10017C0004FF75627272AF006F709000B47BBE7B2F
:10018C0006FF2B7573617274BE0001703D70980090
:10019C003D70C1008D703D7006003D70C2008D70C9
:1001AC00C200B170F9723D70C5008D703D70C40015
:1001BC008D706A00207008FF31772E72657365743C
:1001CC00C600E8009A938A93249A2C98E0E8F7E00A
:1001DC003197F1F71FB7F8942C9A2498E0E0F1E0EE
:1001EC003197F1F783B184FF9FEF1FBF24982C98B0
:1001FC00E0E8F6E03197F1F7892F0C94057007FFD2
:10020C0031772E736C6F7400E1000C012C98249ADA
:10021C001FB7F894E8E1F0E03197F1F788948795EF
:10022C0010F42C9A2498E4E2F0E03197F1F703B142
:10023C0004FD8068ECECF0E03197F1F72C9A2498EF
:0E024C00E8E0F0E03197F1F71FBF0C94057069
:040000000C945A7A88
:10025A000A920FB60A920F900F900A94B02CFF934D
:10026A00EF93E2E1F1E00694E00DF31D00800394C0
:10027A000082EF91FF9109900FBE0990089502FF45
:10028A006D2B05010170677D1574207003FF75647D
:10029A002A0044010170B170FF70E071D970C47016
:1002AA00F670E071E1709D71207004FF756D6178E0
:1002BA004B01017065755C7136706401C470D97048
:1002CA00207004FF756D696E5A010170657567715A
:1002DA0036707001C470D970207001703D70008052
:1002EA0013721A7136707B01867D20704B712070F3
:1002FA000AFF6E616D653E666C6167736601017027
:10030A00CB733D7000FF1372207006FF6E65776530
:10031A0073747D0148702E0106FF6C6174657374F5
:10032A008A014870320108FF286372656174652981
:10033A0091010170B479F502B1708F015E75817017
:10034A00DA028F018170207001005C00980101704F
:10035A009B79F0707E758170207001002800A901D8
:10036A0001703D70290087796E75207007FF636FF1
:10037A006D70696C6500B2010170F670B170AB7B8B
:10038A00FF70CB73CC01207001FF2C00BB01017000
:10039A00AE757373AE752F72997BAF7520700300BB
:1003AA005B275D00C90101700A78E201207007002D
:1003BA006C69746572616C00D4010170C1013D7091
:1003CA00CC0120700800736C69746572616CDC0181
:1003DA000170C1016D777B7720700170AE75C10124
:1003EA00FFFF20700170577BAE75C4707373207065
:1003FA000170AE7520700170577BCC01207005002A
:10040A00616865616400E7010170C1012F70F20142
:10041A0020700200696604020170C1013670F2019F
:10042A0020700400656C73650E020170C1012F70A3
:10043A00F201C470F701207004007468656E160238
:10044A000170F70120700500626567696E0021027C
:10045A000170FD01207005007768696C650028024B
:10046A0001701102C47020700600726570656174B3
:10047A00300201705202250220700500756E7469FF
:10048A006C00390201703D703670CC010002207098
:10049A000500616761696E0042020170C1012F7037
:1004AA00000220700200646F4D020170C1019B724C
:1004BA00FD015471B502207004006C6F6F70570211
:1004CA000170C101C9729C02207005002B6C6F6F0C
:1004DA00700061020170C101BA729C0220700500AD
:1004EA006C65617665006A020170C101D472090205
:1004FA00B502207003003F646F0074020170C101ED
:10050A008B0211025A02C470B5022070017065751F
:10051A007F7DB170FF70367093026E75F670FD7153
:10052A00207007FF656E646C6F6F70007F02017048
:10053A000002A902B9703670A50225022F709E0228
:10054A00207002FF6C3E96020170C80279707970C1
:10055A003D70FEFFC8026572207002FF3E6CA60263
:10056A0001708B7DC8026572C80279708170207033
:10057A0003FF6C703000B2026F704400B47BBE7B24
:10058A0002FF6C70BD024870340106FF6372656138
:10059A007465C50201709E01FE02C101527020708D
:1005AA0006FF686561646572CA020170AE75FF7004
:1005BA00FF70B17028713670EC02B1703D7000FFA7
:1005CA001C727F77F6705F73CC01F67020703D70F5
:1005DA00F0FF417807FF776C73636F706500D5028F
:1005EA00137C4000B47BBE7B06FF72657665616C46
:1005FA00EF0201708F015E757970B9703670090368
:10060A008F017970C4703B7320700500646F657345
:10061A003E00F9020170C1012203C1010E94C10119
:10062A00170320709A938A93CB0101967F916F9159
:10063A00BF93AF93DB010C9405700170F6708F01C4
:10064A005E7579705F737E7C7373207001FF3A0068
:10065A000A0301709E013903D970207007FF3A6EB0
:10066A006F6E616D65002B030170AE75B1709601F6
:10067A008170C10101704E03207001003B003303F9
:10068A000170C10120705603FE02207001FF5D0057
:10069A0042030170867D4B758170207001005B00FA
:1006AA004B03017054714B758170207008FF76619D
:1006BA00726961626C6553030170BF756D038B7D4E
:1006CA00C875207008FF636F6E7374616E745B0384
:1006DA0001709E01FE02C1014870CC01207004FF26
:1006EA0075736572670301709E01FE02C10158703D
:1006FA00CC0120700700726563757273650074031C
:10070A00017096017970CC01207009FF696D6D65E1
:10071A006469617465007F03017033045F73B170AB
:10072A00CB733D70FF7F1372C47073732070060021
:10073A005B636861725D8A030170C1013D70EA788A
:10074A00CC012070060061626F7274229C030170F2
:10075A00C174C101BE03207005FF61626F7274002B
:10076A00A70301704B71417806FF3F61626F727493
:10077A00B1030170E1703670C403A077B6036E75D9
:10078A00207009FF6765742D737461636B00B90388
:10079A000170B1705E75C4705F73B170FF7054718F
:1007AA00C4708B023670E4039B72AC723572587552
:1007BA00CF709D715F73C4704B71BA72DA036E7534
:1007CA00F670207009FF7365742D737461636B0092
:1007DA00C6030170CF7021713670F6033D70FCFFBD
:1007EA00417865753B73C47054718B02367003048B
:1007FA009B725E7576753B73C972FE03D970207061
:10080A0009FF6D61702D737461636B00E7030170FA
:10081A00B1705E75C4705F7358755E7D8B023670F9
:10082A0028049B72AC725F73C470FF7008712A70DF
:10083A00B97036702404F670D970D4722070F670CC
:10084A008B7DBA721704D970547120700BFF6765DB
:10085A00742D63757272656E7400050401703D70C3
:10086A004A005F73207009FF6765742D6F726465B3
:10087A0072002B0401703D704E00CD03207009FFF9
:10088A006366672D6F7264657200380448704E00A3
:10089A0007FF636F6D706172650044045404BF936F
:1008AA00AF938C0189919991DC01899199919C016D
:1008BA0089919991FC01ED90F190EF1451F40A9508
:1008CA0019F02A95C1F701C02A95022B11F488273D
:1008DA0002C08FEF00C0982FAF91BF910C940570A2
:1008EA0007FF6E66613E6C6661004D040170727CA2
:1008FA002F7204729D71207002FF2E7375040170AD
:10090A00A17A4874E277A17A54718B023670930403
:10091A009B72AC72AF744874C9728E04207006FF61
:10092A0063214073706981049A0403D099270C9457
:10093A0005708EBD0DB5087F0DBD0DB507FFFACF49
:10094A008EB5089505FF6E40737069009404AD0476
:10095A008C0189919991FC01C8012EBC2DB527FF04
:10096A00FDCF2EB521930197C1F7899199910C94E6
:10097A00057005FF6E2173706900A704C4048C0119
:10098A0089919991FC01C80121912EBD2DB527FFAE
:10099A00FDCF2EB50197C1F7899199910C940570F5
:1009AA000BFF6170706C7475726E6B657900BE04B2
:1009BA000170CB007974647BE27740753D70E8037F
:1009CA00C271F070DD7522776D7704006B487A206A
:1009DA00A07720700BFF7365742D63757272656E54
:1009EA007400D50401703D704A003B73207008FF03
:1009FA00776F72646C697374EF040170B775547120
:100A0A00CF703B73B1705E75997BB87520700EFF1D
:100A1A00666F7274682D776F72646C697374FC0404
:100A2A0048704C0009FF7365742D6F72646572001B
:100A3A000C0501703D704E00EE0320700FFF7365C8
:100A4A00742D7265636F676E697A65727300170534
:100A5A0001703D706000EE0320700FFF6765742D12
:100A6A007265636F676E697A657273002305017038
:100A7A003D706000CD03207004FF636F646532052A
:100A8A0001709E01FE02AE75AB7BCC01207008FF9F
:100A9A00656E642D636F646541050170C1010C9434
:100AAA00C1010570207008FF286D61726B6572299B
:100ABA004C056F706C00B47BBE7B0800706F73745A
:100ACA00706F6E6558050170B479CC7AD77AB170B7
:100ADA00FF70AB7BAB7BCB732A70F670AB7BCB73AF
:100AEA00CC01207003FF3272400062057C059A93A4
:100AFA008A93EF91FF918F919F919F938F93FF9389
:0C0B0A00EF939A938A93CF010C9405702E
:10E00200BF93AF93DB011196B21469F4FD01EE0FD9
:10E01200FF1F659175911196FB01EE0FFF1F059190
:10E022001591F80109949A938A938B2D9927BB2411
:10E0320062EA74E7F1CF04FF6578697477052170AD
:10E04200AF91BF91E1CF07FF657865637574650095
:10E052001C702B70BC0189919991DECF3070FD014B
:10E06200EE0FFF1FA591B591CFCF3770982B8991F5
:10E072009991A9F31196C8CF3E709A938A93FD01A4
:10E08200EE0FFF1F859195911196BECF48709A931E
:10E092008A93FB013196EE0FFF1F85919591B4CFC4
:10E0A20052709A938A93CB010196AECF58709A938D
:10E0B2008A93FB013196EE0FFF1F85919591840D96
:10E0C200951DA2CF07FF2876616C75652900247023
:10E0D20001709E01FE02C1016F7020700E94170341
:10E0E200B170AB7BCB732A70207001FF400063706C
:10E0F2007A70FC018191919187CF01FF21007670A6
:10E102008270FC018991999191838083899199917F
:10E112007BCF02FF63217E708E70FC018991999101
:10E1220080838991999170CF02FF63408A709970C0
:10E13200FC019927808168CF02FF407595700170BC
:10E1420002739D717970207002FF21759D700170BC
:10E1520002739D718170207003FF64757000A57059
:10E16200B2709A938A9350CF04FF3F647570AD707A
:10E17200BA70082F092B11F09A938A9345CF04FFA6
:10E1820073776170B570C5708C01899199911A93FA
:10E192000A933ACF04FF6F766572C070D0709A937B
:10E1A2008A938A819B8130CF04FF64726F70CB7037
:10E1B200DA708991999128CF03FF726F7400D5703C
:10E1C200E2708C0129913991899199913A932A931C
:10E1D2001A930A9319CF03FF6E697000DD70F17014
:10E1E200229612CF02FF723EEC70F7709A938A93D6
:10E1F2008F919F9109CF02FF3E72F37000719F933E
:10E202008F938991999100CF02FF7240FC7009713E
:10E212009A938A938F919F919F938F93F5CE02FF4A
:10E222003C3E057101707F7D1A71207002FF303D06
:10E2320010711B71982BD1F530C002FF303C177161
:10E24200227197FD2AC032C002FF303E1E71297131
:10E25200821593055CF151F120C003FF64303E004A
:10E2620025713371821593058991999182059305E0
:10E27200ECF0E1F012C003FF64303C002E714171FA
:10E28200229697FD0C944E710C94577104FF747290
:10E2920075653C714C719A938A938FEF9FEFB4CE60
:10E2A20001FF3000477155719A938A93C101ACCE38
:10E2B20002FF753C51715D71299139918217930763
:10E2C200A8F3A1F3EACF02FF753E59710170C47041
:10E2D2005C71207001FF3C0064716F71299139916A
:10E2E200281739071CF7D9CF01FF3E006B717971EE
:10E2F2002991399128173907CCF2C1F2CECF04FF08
:10E302006C6F673275718571FC01992780E18A957E
:10E3120022F0EE0FFF1FD8F777CE9A9575CE01FF48
:10E322002D008071947109911991081B190BC80174
:10E332006BCE01FF2B0090719E7109911991800F94
:10E34200911F62CE02FF6D2A9A71A7718C01899189
:10E3520099919C0131027001209FC0013003F308A2
:10E36200900DE11CF31C1203F308900DE11CF31C49
:10E372009A938A93C70148CE06FF756D2F6D6F641D
:10E38200A371C3717C01299139910991199140E1DD
:10E392005527000F111F221F331F551F2E153F0532
:10E3A200520518F003952E193F094A9589F73A93B9
:10E3B2002A93C80129CE03FF756D2A00BD71E17150
:10E3C2008C0189919991809FF00122273327909F98
:10E3D200F00D211D331D819FF00D211D331D919FD5
:10E3E200200D311DCF019A938A93C9010DCE06FFEC
:10E3F200696E76657274DC71FE718095909504CEBB
:10E4020002FF322FF871057295958795FDCD02FFB7
:10E41200322A01720C72880F991FF6CD03FF616ECA
:10E422006400087214720991199180239123ECCD32
:10E4320002FF6F720F721D7209911991802B912B3D
:10E44200E3CD03FF786F7200197227720991199157
:10E4520080279127D9CD02FF312B2272307201968B
:10E46200D3CD02FF312D2C7236720197CDCD07FF2D
:10E472003F6E65676174650032720170217136709A
:10E4820043723F76207006FF6C7368696674387257
:10E492004A72FC018991999131971AF0880F991F5C
:10E4A200FBCFB2CD06FF727368696674447259720B
:10E4B200FC018991999131971AF096958795FBCF36
:10E4C200A3CD02FF2B2153726672FC0189919991AF
:10E4D20020813181820F931F808391838991999149
:10E4E20093CD03FF72704000627277729A938A939F
:10E4F2008DB79EB789CD03FF72702100727281724F
:10E502002FB7F8948DBF9EBF2FBF899199917CCD73
:10E5120003FF737040007C728E729A938A93CE01CD
:10E5220073CD03FF7370210089729772EC01899198
:10E5320099916ACD9C7229913991E0E83E0F821B34
:10E54200930B3F932F939F938F93899199915CCDD6
:10E5520001FF69009272AD729A938A938F919F9193
:10E56200EF91FF91FF93EF939F938F938E0F9F1FD6
:10E572004BCDBB72EF91FF91E80FF91F89919991F1
:10E582001BF0FF93EF936BCD0F911F9111963CCD32
:10E59200CA72EF91FF913196BBF3F3CF06FF756E0E
:10E5A2006C6F6F70A972D5721F910F911F910F91AD
:10E5B2002BCD06FF636D6F76653ECF72E072BF931F
:10E5C200AF93E991F991A991B991092F082B41F0E3
:10E5D200E80FF91FA80FB91F1E9112930197E1F7D7
:10E5E200AF91BF91899199910FCD02FF3E3CDA72B2
:10E5F200FA72092F982F802F07CD03FF7570400004
:10E60200F67203739A938A93C201FECC03FF75706C
:10E612002100FE720C732C0189919991F5CC03FFB4
:10E62200316D730007731573E0EAFFE03197F1F77C
:10E63200EBCC03FF323E720010731F73FC01899111
:10E6420099919F938F93FF93EF9389919991DCCC4A
:10E6520003FF32723E001A732E739A938A93EF91DC
:10E66200FF918F919F919A938A93CF01CDCC02FF14
:10E67200216529733C73FC01899199912FB7F89414
:10E6820028D000B5081709F00BD0319622D000B57A
:10E69200091711F0892F04D02FBF89919991B4CC19
:10E6A200F999FECF07B700FDFDCFF2BDE1BD80BDF8
:10E6B200FA9AF99A089502FF4065387360732FB78A
:10E6C200F894FC0106D080B5319603D090B52FBFE7
:10E6D2009BCCF999FECFF2BDE1BDF89A089502FFF5
:10E6E20021695C73137C6A00B47BBE7B09FF28211D
:10E6F200692D6E727777290070737F731FB71F932E
:10E70200F8949C0189919991AF93BF93CF93DF9332
:10E7120009D0DF91CF91BF91AF91899199911F91CA
:10E722001FBF72CC10D0E094F0948E219F21982BC1
:10E7320019F0F90102E020D0F90104E01DD0F9013D
:10E7420000E11AD00895F901E078FF7FEF01A0E817
:10E75200B0E0FE01EE0FFF1F45915591FE01E21759
:10E76200F30711F00A0102C07A010C01002704D05C
:10E772002196119771F70895F999FECF17B710FDF9
:10E78200FDCFEE0FFF1F016007BFE895089502FF5E
:10E7920040697773CC73FC01EE0FFF1F8591959151
:10E7A20033CC03FF6E3E7200C873D773FC01082F8F
:10E7B200899199919F938F930A95D1F7EF93FF9344
:10E7C2008991999121CC03FF6E723E00D273E97355
:10E7D2009A938A93FF91EF910E2F8F919F919A9323
:10E7E2008A930A95D1F7CF010FCC03FF64322A0036
:10E7F200E473FB7309911991000F111F881F991F70
:10E802001A930A9301CC03FF64322F00F673097442
:10E812000991199195958795179507951A930A93DA
:10E82200F3CB02FF642B0474167429913991E99099
:10E83200F99049915991240F351F8E1D9F1D3A93CE
:10E842002A93E2CB02FF642D127427742991399125
:10E85200E990F99049915991421B530BE80AF90A40
:10E862005A934A93C701D0CB07FF64696E766572EB
:10E87200740023743C7409911991809590950095C8
:10E8820010951A930A93C0CB02FF752E357401704E
:10E8920054712A77207003FF752E7200457401703F
:10E8A2005471C470337720700DFF73686F772D77C2
:10E8B2006F72646C697374004C7401703D7064749F
:10E8C200C470577C20700170727CA077E2774B7124
:10E8D200207005FF776F72647300557401703D708C
:10E8E20050005F735E74207004FF2B696E746A744B
:10E8F2007A74789489CB04FF2D696E74757481746F
:10E90200F89482CB04FF696E74217C7401703D70AF
:10E9120000009D713B73207004FF696E7440837424
:10E9220001703D7000009D715F73207008FF696E79
:10E93200742D747261708D749E74B82E8991999140
:10E9420063CB017091742A70A7742070A87401D0EF
:10E952005BCB189504FF7069636B977401702F721B
:10E9620058758D729D717970207002002E22AB74E1
:10E972000170C174C101A077207002007322B674C5
:10E9820001703D70220087794B7579703670CA74B8
:10E99200ED01207004FF66696C6CBE740170E17059
:10E9A200E170B9703670DC745E7D9B72B170AC72CE
:10E9B2008D70C972D774D97020700BFF656E76693D
:10E9C200726F6E6D656E7400CB744870480009FFFB
:10E9D200776F72646C6973747300000001703D702C
:10E9E2000800207004FF2F706164E87401708D725A
:10E9F20084759371207005FF2F686F6C6400F37447
:10EA020001708475BF75937120700AFF666F72740E
:10EA1200682D6E616D65FC7401706D770700616D24
:10EA2200666F72746800207007FF76657273696F93
:10EA32006E00067501703D704100207003FF637027
:10EA42007500157501703D703B00CC77207008FF92
:10EA52006D63752D696E666F1F7501703D703700AD
:10EA6200207005FF2F7573657200287501703D7067
:10EA72002C00207005FF665F63707500DE74017004
:10EA82003D7000243D70F400207005FF73746174C2
:10EA920065003B754870360104FF62617365467517
:10EAA20058700C0005FF63656C6C73004D750C7239
:10EAB20005FF63656C6C2B0053755F750296A4CAE3
:10EAC20004FF3264757059750170CF70CF70207079
:10EAD20005FF3264726F700061750170D970D97070
:10EAE200207004FF7475636B69750170C470CF7018
:10EAF200207003FF3E696E0072755870180003FFA4
:10EB0200706164007A750170BF753D7028009D7157
:10EB1200207004FF656D69748075137C0E00DC7BC8
:10EB2200E87B05FF656D69743F008A75137C1000F0
:10EB3200DC7BE87B03FF6B6579009275137C120026
:10EB4200DC7BE87B04FF6B65793F9B75137C1400CB
:10EB5200DC7BE87B02FF6470A3756F703A00B47BC4
:10EB6200BE7B05FF656865726500AB756F703E0020
:10EB7200B47BBE7B04FF68657265B2756F703C0042
:10EB8200B47BBE7B05FF616C6C6F7400BB7501705A
:10EB9200BF759D71997BC075207003FF62696E001D
:10EBA200C37501708B7D51758170207007FF64659C
:10EBB20063696D616C00CE7501703D700A0051751C
:10EBC2008170207003FF68657800D77501703D7011
:10EBD200100051758170207002FF626CE3754870FD
:10EBE200200007FF7475726E6B657900ED75137CFA
:10EBF2004600B47BBE7B04FF2F6D6F64F275017615
:10EC02009C0109911991412F432717FF04C01095C8
:10EC120000950F5F1F4F37FF04C0309520952F5F7F
:10EC22003F4FEE24FF1851E1001F111F5A9539F48E
:10EC320047FF04C0109500950F5F1F4F0BC0EE1CDD
:10EC4200FF1CE21AF30A20F4E20EF31E8894ECCFC2
:10EC52000894EACFFA92EA92C801D6C905FF752F45
:10EC62006D6F6400FC750170FF705471F670C271B3
:10EC7200207006FF6E65676174652F760170FD7105
:10EC82002F72207001FF2F003A7601700076F0702B
:10EC9200207003FF6D6F6400437601700076D970B7
:10ECA200207003FF616273004A760170B1703E7298
:10ECB200207003FF6D696E00527601706575787180
:10ECC20036706476C470D970207003FF6D6178006D
:10ECD2005A76017065756E7136707076C470D9702F
:10ECE200207006FF77697468696E66760170CF706E
:10ECF2009371FF709371F6705C71207007FF746FEF
:10ED020075707065720072760170B1703D7061004D
:10ED12003D707B007776367091763D70DF0013721E
:10ED2200207007FF746F6C6F776572007F760170D9
:10ED3200B1703D7041003D705B0077763670A4760D
:10ED42003D7020001C72207003FF686C6400927694
:10ED52004870380104FF686F6C64A5760170A9766B
:10ED6200B17079703572B170FF70C4708170F670D5
:10ED72008D70207002FF3C23AB7601708475A976FA
:10ED82008170207001FF2300BB760170517579708C
:10ED92004377E1703D700900CF706E713670D476A2
:10EDA2003D7007009D713D7030009D71AF762070FF
:10EDB20002FF2373C3760170C67665751C721A71E1
:10EDC2003670DD76207002FF233ED97601706E75B3
:10EDD200A97679708475CF709371207004FF73697E
:10EDE200676EE476017021713670FA763D702D00FF
:10EDF200AF76207003FF642E7200EF760170FF7011
:10EE02007675D47CBE76DC76E170F376E776F670C2
:10EE1200CF709371EB77FB77207002FF2E72FB7637
:10EE22000170FF70677DF670FF76207002FF642E1E
:10EE32000E7701705471FF76E277207001FF2E0089
:10EE420017770170677D1A77207003FF75642E00B3
:10EE52001F77017054713377E277207004FF756475
:10EE62002E7226770170FF70BE76DC76E776F6703A
:10EE7200CF709371EB77FB77207006FF75642F6D6F
:10EE82006F642F770170FF7054710871C271F67050
:10EE9200C470FF70C271F670207006FF6469676902
:10EEA200743F3E7701708576B1703D70390078719C
:10EEB2003D70000113729D71B1703D704001787117
:10EEC2003D700701137293713D7030009371B17000
:10EED200517579705C71207001700871CC77F67091
:10EEE200CF702F7204729D712F72FF70207002FF1B
:10EEF200732C4E770170B1707F7720700170CC0156
:10EF0200B170047276750B729371FF7054718B023B
:10EF1200367092779B72B1707970CC015E75C9724E
:10EF22008C77F670287136709977B1709870CC0131
:10EF3200D970207005FF6974797065007877017067
:10EF4200B170047276750B729371FF7054718B02FB
:10EF52003670B4779B72B170CB73B170C177BD77E5
:10EF62002F72C972AC77F67028713670BB77B170A8
:10EF7200CB73C177D97020700170F972C17720709C
:10EF820001703D70FF0013728E75207006FF696379
:10EF92006F756E749B770170B1702F72C470CB73F2
:10EFA200207002FF6372C77701703D700D008E758D
:10EFB2003D700A008E75207005FF737061636500F5
:10EFC200D2770170F0758E75207006FF73706163E1
:10EFD2006573DD77017054716A76B1703670F577BA
:10EFE200E27735722F70EE77D970207004FF747952
:10EFF2007065E67701705E7D8B02367006789B72D3
:10F00200AC7298708E75C9720178207001FF27006A
:10F01200F7770170B479CC7AD77AB1704A7B7F7D69
:10F02200C470CB733D707F7B7F7D1C7236701C7801
:10F032003D70F3FF4178D970207007FF68616E64FC
:10F042006C657200077858700A0005FF636174638B
:10F0520068001E7801708D72FF7024787970FF70DD
:10F062007672247881702A70F67024788170F67036
:10F07200D9705471207005FF7468726F770026781A
:10F082000170B1701A7136704878D9702070247886
:10F0920079708072F67024788170F670C470FF7097
:10F0A2009672D970F670207005FF63736B697000F9
:10F0B2003C780170FF70B17036706978CF709870CB
:10F0C20008717F7D36706978867DA5792F705C78AE
:10F0D200F670D970207005FF637363616E00557816
:10F0E2000170FF70CF70B170987008717F7D1A71D6
:10F0F20036708678C4703572C470CF7021711A71FF
:10F10200367086782F722F707478F070CF7093718A
:10F11200F670D970207006FF6163636570746C7855
:10F122000170CF709D713572CF709F75B170D278BA
:10F132001A713670C478B1703D7008007F7D3670E8
:10F14200B478D970E17065757871FF70E170E17023
:10F15200F6703670B278CA783572FF70CF70F6707A
:10F162005E012F70C278B170F0756E713670BB7827
:10F17200D970F075B1708E75CF708D702F72CF709F
:10F182006A012F709678D970F070C4709371D57738
:10F19200207001703D700800B1708E75E2778E7537
:10F1A20020700170B1703D700D007F7DC4703D70A4
:10F1B2000A007F7D1C72207006FF726566696C6CA6
:10F1C2008C78137C1A00DC7BE87B04FF6368617235
:10F1D200DD780170B479D9709870207006FF6E7571
:10F1E2006D626572E678017051757970FF703879D9
:10F1F200FF704B793879F6701C72FF70B1701A711A
:10F2020036700B796E75F670D970F6705175817023
:10F21200547120701E73547154712D736979B970D1
:10F2220036702D79867D7F7D3670247998703D7099
:10F232002E007F7D36702579F67036702179E17C5B
:10F242008B7D2F703379D9706E75F670D970F67028
:10F2520051758170547120706E75F6703670327906
:10F262003F76867DF670517581704B71207001700A
:10F27200CF7098703D702D007F7DB170FF70367039
:10F282004479867DA579F670207052700A001000CC
:10F2920002000A000170CF7098703D7023009371D4
:10F2A200B17054713D700400777636706179467999
:10F2B2009D71CB7351758170867DA5792F706279AE
:10F2C200D970207007FF3E6E756D62657200EF782F
:10F2D2000170B17036708179CF70987053771A715E
:10F2E20036707579D9702070FF70057D517579700F
:10F2F2004F01F6704701057D867DA5792F706A79E9
:10F30200207005FF70617273650063790170FF7090
:10F312009B797E757970A579F6707178B1702F72CC
:10F322007E756572867DA579207006FF736F757292
:10F3320063658279137C1600DC7BE87B07FF2F7301
:10F342007472696E670096790170E170CF709D7179
:10F35200E170E170937120700AFF70617273652D24
:10F362006E616D659F790170F075B87920700170DA
:10F37200FF709B797E757970A57908715A78F6705D
:10F38200717865759D719B79D97093717E75817065
:10F39200207007FF66696E642D787400AD79017084
:10F3A2003D70DC793D704E000C041A713670DB79C9
:10F3B2006E75547120700170FF706575F670257C52
:10F3C200B1703670E979FF70F070F070F6704B71C1
:10F3D200207001706D770300206F6B00A0772070A2
:10F3E20003FF2E6F6B00CA79137C1C00DC7BE87B69
:10F3F20001706D7702003E20D577A077207006FF5E
:10F402002E7265616479F179137C2000DC7BE87BE4
:10F4120001706D770400203F3F20A077517579700D
:10F42200FF70DD7522777E7579702277F6705175DF
:10F432008170207006FF2E6572726F72007A137CE3
:10F442001E00DC7BE87B04FF717569741B7A017016
:10F45200C102C8028170897A9672967A80725603C6
:10F462004B7579701A713670377A057AE278367090
:10F47200497A3D70AF7A2B78B9703670497AB1709B
:10F482003D70FEFF6E713670477A207A2F70297AAE
:10F49200F5792F70317A05FF706175736500247AF2
:10F4A200137C3A01C87BD27B04FF636F6C644C7A95
:10F4B2005A7AA4B622243324BB2424BEE0E0F1E02D
:10F4C2002192E030E9F7F131D9F7ECE3F1E02F01D5
:10F4D2000FEF0DBF048310E11EBF1583CFEAC68371
:10F4E200D0E1D783ACE7BAE70C94057004FF7761EB
:10F4F200726D557A0170507D3D707F7B3D70517AFF
:10F50200F37B5603F875287A03FF73703000777A1D
:10F512006F700600DC7BE87B02FF7370857A58709F
:10F52200080003FF727030008D7A01709A7A797048
:10F5320020705870040005FF646570746800927A48
:10F542000170897A8D72937104723572207009FF8D
:10F55200696E74657270726574009C7A0170B47918
:10F56200B1703670C07ACC7AD77A4B7579703670B2
:10F57200BB7AAB7BCB732A70577B2F70B07A6E75D8
:10F58200207010FF666F7274682D7265636F676E0C
:10F59200697A6572A87A6F704200B47BBE7B09FFFC
:10F5A2007265636F676E697A6500C27A01703D7039
:10F5B200E27AC4700C041A713670E17A6E754A7B75
:10F5C20020700170E170E17065751E73E1702A7040
:10F5D2002D73E170B1704A7B7F7D3670F37AD970FA
:10F5E20054712070F070F0704B71207006FF6474DB
:10F5F2003A6E756DD07A52707F7BE201E20107FFAD
:10F6020064743A646E756D00F77A52707F7B777D11
:10F61200777D07FF7265633A6E756D00007B01703E
:10F62200F47836701C7B867D7F7D36701A7BFC7A7F
:10F632002070067B20704A7B207008FF7265633A57
:10F6420066696E640A7B0170D079B1701A71367086
:10F652002D7BD9704A7B2070347B207005FF647447
:10F662003A7874001E7B5270387B3C7B777D017048
:10F67200D9702A702070017021713670427BCC01E2
:10F6820020702A70207007FF64743A6E756C6C00EB
:10F692002F7B52704E7B4E7B4E7B01703D70F3FF91
:10F6A200417806FF3F737461636B447B0170A17AFA
:10F6B200217136705F7B3D70FCFF4178207003FF43
:10F6C20076657200527B01700D75A077E2775175F5
:10F6D20079701B75DD75677DBE76C6763D702E002E
:10F6E200AF76DC76E776FB7751758170E27723752A
:10F6F200A077207004FF6E6F6F70607B01702070C6
:10F7020006FF756E757365647B7B01708D72BF75C4
:10F71200937120700200746F817B01700A78707D92
:10F722004B75797036709F7BC101997BCC0120703B
:10F732000170F670B170AB7BFF70CB73B170AB7BB5
:10F74200AB7BCB732A70207007FF692D63656C6CED
:10F752002B008B7B01702F72207007FF456465665A
:10F7620065724000A57B0170CB735F73207007FF49
:10F772004564656665722100AE7B0170CB733B7395
:10F78200207007FF5264656665724000B87B0170A5
:10F79200CB737970207007FF526465666572210031
:10F7A200C27B0170CB738170207007FF5564656660
:10F7B20065724000CC7B0170CB7302739D717970CE
:10F7C200207007FF5564656665722100D67B017063
:10F7D200CB7302739D718170207006FF646566654C
:10F7E2007221E27B0170707DB170AB7BAB7BCB731E
:10F7F2002A70207006FF646566657240EE7B0170B8
:10F80200707DB170AB7BCB732A70207007FF2864C8
:10F81200656665722900FB7B01709E01FE02C101D3
:10F82200137C20700E941703B170AB7BCB732A70DC
:10F832002A7020700FFF7365617263682D776F7293
:10F84200646C69737400077C0170FF7054713D70C1
:10F852003A7CF670577CB1701A713670347C6E75D2
:10F86200D97054712070B1707E7CC47084017201B1
:10F8720020700170FF70D97065750871727C887C88
:10F882003670487CF670D97054714B7120706E7569
:10F89200F6705471207011FF74726176657273652F
:10F8A2002D776F72646C697374001B7C01705F73D7
:10F8B200B1703670687C65751E73C4702A702D73C2
:10F8C200E1703670687C7B04CB732F70597C6E7547
:10F8D20020700BFF6E616D653E737472696E670016
:10F8E2004C7C0170CC773D70FF001372207007FFD3
:10F8F2006E66613E636661006A7C01707B042F72F2
:10F90200207008FF69636F6D70617265787C0170A9
:10F91200FF70CF70F67013713670937C6E75D9706C
:10F922004B712070C47054718B023670B67C9B721E
:10F93200CF707970CF70CB73B1703D7000015C7184
:10F942003670A77CC4703D70FF001372137136705D
:10F95200AE7C6E754B71D47220702F72C4705E755E
:10F96200C4703D700200BA72997C6E755471207039
:10F9720001FF2A00827C0170A671D970207001FFFC
:10F982006A00B97C017076723D7007009D717970D2
:10F9920076723D7009009D7179709D71207004FF2F
:10F9A20064616273C07C0170B17021713670DA7C5F
:10F9B200E17C207007FF646E656761746500D07C2E
:10F9C20001703B74867D54711574207005FF636D60
:10F9D2006F766500DB7CED7CBF93AF93E991F99183
:10F9E200A991B991092F082B21F01D91119301972B
:10F9F200E1F7AF91BF91899199910C94057005FF40
:10FA0200327377617000E77C0170E170FF70E17022
:10FA1200F67020700AFF726566696C6C2D746962FB
:10FA2200007D01702E7D3D705A009178347D817089
:10FA320054717E7581704B7120700AFF736F7572FD
:10FA420063652D7469620B7D01702E7D347D797042
:10FA5200207003FF746962001E7D4870680104FF14
:10FA6200237469622A7D4870C20106FF65653E7291
:10FA7200616D307D017054719B72CF705F73CF7076
:10FA820081705E75C4705E75C470C9723E7D6E759C
:10FA9200207008FF696E69742D72616D367D017088
:10FAA2003D706E0002733D70220004723B7D207037
:10FAB20006FF626F756E64734A7D0170CF709D712F
:10FAC200C470207003FF733E6400597D0170B170F1
:10FAD2002171207005FF3E626F647900637D307290
:10FAE2000800326C69746572616C6B7D0170C47060
:10FAF200E201E201207001FF3D00717D017093710E
:10FB02001A71207001FF31007C7D4870010001FFF5
:10FB12003200837D4870020002FF2D31887D4870DB
:02FB2200FFFFE3
:00000001FF
